:020000040800F2
:10000000204600209D010008993B00081D2D000896
:10001000953B0008F50D000841490008000000006C
:10002000000000000000000000000000F145000892
:10003000F90D000800000000814500081546000881
:10004000B7010008B7010008B7010008B7010008B0
:10005000B7010008B7010008B7010008B7010008A0
:10006000B7010008B7010008B7010008B701000890
:10007000B7010008B7010008B7010008B701000880
:10008000B7010008B7010008B7010008B701000870
:10009000B7010008B7010008B7010008B701000860
:1000A000B7010008B7010008B7010008B701000850
:1000B000B7010008B7010008B7010008B701000840
:1000C000B7010008B7010008B7010008B701000830
:1000D000B7010008B7010008B7010008B701000820
:1000E000B7010008B7010008B7010008B701000810
:1000F00009470008B7010008B7010008B701000868
:10010000B7010008B7010008B7010008B7010008EF
:10011000B7010008B7010008B7010008B7010008DF
:10012000B7010008B7010008B7010008B7010008CF
:10013000B7010008B7010008B7010008B7010008BF
:10014000B7010008B7010008B7010008B7010008AF
:10015000B7010008B7010008B7010008B70100089F
:10016000B7010008B7010008B7010008B70100088F
:10017000B7010008B7010008B7010008000000003F
:10018000B7010008B7010008DFF80CD000F066FBEB
:100190000048004775560008204600200648804762
:1001A00006480047FEE7FEE7FEE7FEE7FEE7FEE75C
:1001B000FEE7FEE7FEE7FEE7F546000889010008D6
:1001C0002DE9F05F0546002092469B46884606468C
:1001D000814640241BE0284641464746224600F01F
:1001E0003AF953465A46C01A914110D3114618465F
:1001F000224600F021F92D1A67EB01084F462246EE
:100200000120002100F018F917EB00094E41201ED3
:10021000A4F10104DFDC484631462A464346BDE8E6
:10022000F09F2DE9F0410024061B254671F10006E0
:1002300005DA01240027D0EB070067EB0101161E49
:1002400073F1000605DA0027D2EB0702012567EB00
:100250000303FFF7B5FF86460E4617469C46AC42A1
:1002600004D00025D0EB050E65EB010624B100207B
:10027000D2EB000760EB030C704631463A4663460A
:10028000BDE8F08130B504460020034600E05B1C69
:10029000934203D2E05CCD5C401BF8D030BD2DE929
:1002A000FE4F81EA030404F0004421F00041009471
:1002B0004FF0000B23F0004350EA01045ED052EAF5
:1002C00003045BD0C3F30A54C1F30A552C44A4F2CF
:1002D000F3340194A0FB0254C1F3130141F48011E3
:1002E000C3F3130343F4801301FB024400FB034EEA
:1002F000840A970A44EA815447EA8357A4FB0768B3
:1003000002958D0A05FB07854FEA932C04FB0C54DC
:100310002705029D4FEA065847EA1637B5EB080550
:100320006EEB070C870E920E47EA811742EA8312A2
:10033000A7FB0201B6EB0B0164EB00042B0D43EAB3
:100340000C335E1844EB1C50DA465146E7FB0201C1
:10035000C5F313044FEA0B3343EA14534FEA043254
:10036000019C43EA0603A4F10C040294009CCDE92D
:1003700000B400F0C6F803B0BDE8F08F00200146DD
:10038000F9E7F0B4CA17CB0F50405140C61841F1FD
:1003900000054FEAC372314628004FF0960303D0A0
:1003A000B623F0BC00F070B830460021F9E700F049
:1003B000004230F000400AD0C10D01F56071C0F379
:1003C000160042EA0151C20840071143704700205D
:1003D0000146704701F0004330B421F0004150EA7B
:1003E000010206D00A0DA2F56072C1F31301002AC2
:1003F00002DC30BC00207047440F44EAC104C10055
:10040000E01830BC00EBC25000F035B830B50B46F8
:10041000014600202022012409E021FA02F59D4234
:1004200005D303FA02F5491B04FA02F52844151E08
:10043000A2F10102F1DC30BD202A04DB203A00FAEF
:1004400002F1002070479140C2F1200320FA03F32B
:10045000194390407047202A04DB203A21FA02F029
:100460000021704721FA02F3D040C2F120029140EE
:100470000843194670470029A8BF7047401C49002F
:1004800008BF20F00100704710B4B0FA80FC00FAF9
:100490000CF050EA010404BF10BC704749B1CCF124
:1004A000200421FA04F411FA0CF118BF01212143B0
:1004B0000843A3EB0C01CB1D4FEA00614FEA10206B
:1004C00042BF002010BC704700EBC350104400290D
:1004D000A4BF10BC7047401C490008BF20F00100B9
:1004E00010BC704710B5141E73F1000408DA401CEC
:1004F00041F1000192185B411A4301D120F0010043
:1005000010BD2DE9F04D92469B4611B1B1FA81F232
:1005100002E0B0FA80F220329046FFF78DFF0446E9
:100520000F4640EA0A0041EA0B0153465A46084387
:1005300013D0114653EA010019D0C8F140025046C9
:10054000FFF789FF05460E46504659464246FFF7DB
:1005500073FF084305D0012004E020463946BDE87A
:10056000F08D0020054346EAE0762C4337430A9895
:100570006305E40AA0EB08000022FD0A44EA4754A0
:100580000A3002D500200146E9E70105101969414A
:10059000DDE9084500196941BDE8F04DA2E72DE904
:1005A000FE4F804681EA0300C00F0C46009021F008
:1005B000004123F00045B8EB0200A94105D24046B6
:1005C000214690461C460B46024623F0004010434D
:1005D00047D0270DC7F30A00C3F30A510290401A0F
:1005E000019040286BDAC3F3130040F4801B00989D
:1005F000924620B10023D2EB030A63EB0B0B019868
:100600005946C0F140025046FFF716FF06460D4618
:1006100050465946019A00F033F910EB0800614149
:10062000002487EA115284EAE7731A4340D0009A03
:1006300062B3019A012A4FEA075215DC001B61EBF5
:1006400002014FF0004202EA0752CDE90042001CCD
:1006500041F5801132462B46FFF753FF03B0BDE84A
:10066000F08F40462146F9E7001B61EB0201001CB8
:1006700041F5801300185B412018A2F5001747EBE5
:10068000030140EAD570B6196D4111E06D084FEADB
:10069000360645EAC0754FEA0752001B61EB0201BE
:1006A000001C41F5801149084FEA30000019514102
:1006B00032462B4603B0BDE8F04FFFF713BF00985A
:1006C000012240000023D0EB020263EBE0730098AC
:1006D00021464FEAE074B8EB000061EB0401E9E762
:1006E00083F000435BE781F0004158E72DE9F04DCE
:1006F00081EA030404F0004B21F0004514464FF05A
:10070000000A23F0004150EA050220D054EA010219
:100710001DD0C5F30A570246C5F31303C1F31300F6
:10072000C1F30A5640F4801543F48013A7EB060882
:10073000101BD64608F2FD3873EB050002D308F112
:10074000010801E092185B41B8F1000F03DA0020C4
:100750000146BDE8F08D00204FF480110646844626
:100760000EE0171B73EB050705D3121B63EB0503A4
:1007700006434CEA010C49084FEA300092185B41ED
:1007800050EA0107EDD152EA030012D082EA0400D8
:1007900083EA0501084305D0101BAB4106D20122B4
:1007A000002306E000224FF0004302E06FF0010258
:1007B00053101AEB06004CEB085110EB0A0041EB0A
:1007C0000B01BDE8F04DFFF78DBEC1F30A52C1F336
:1007D000130140F2FF3341F480119A4202DA002003
:1007E0000146704740F233439A42A2F2334202DCA0
:1007F0005242FFF730BEFFF71FBE000030B5041EA7
:1008000071F1000404DB4FF00044404264EB01014D
:10081000141E73F1000405DB1C464FF000435242E6
:1008200063EB04038B4208BF824230BD30B5041E27
:1008300071F1000404DB4FF00044404264EB01011D
:10084000141E73F1000405DB1C464FF000435242B6
:1008500063EB0403994208BF904230BD064C074D3C
:1008600006E0E06840F0010394E807009847103480
:10087000AC42F6D3FFF78CFC50A9000870A9000821
:10088000202A06DBCB17203A41FA02F043EAE07354
:1008900006E041FA02F3D040C2F120029140084341
:1008A000194670472DE9F04D00231A461B1A8A415C
:1008B00003DB00200146BDE8F08DC1F30A52C1F30D
:1008C000130141F480154FF0000BD10702D100183D
:1008D0006D41521E0027044640F2FF11384601EBDD
:1008E000620A3E468046024600204FF48011FFF720
:1008F000B2FDC2197141BB1846EB0100B4EB030C09
:1009000075EB000C04D3E41A65EB000517460E46A0
:10091000241908F101006D4180463428E3DDF919FE
:1009200046EB0600091BA84103D24FF0FF321346E5
:1009300001E0002213461BEB070046EB0A51BDE81D
:10094000F04DFFF7CFBD00002DE9F04381B040F23C
:100950003818C2F20008D8F81800B8F80010C21011
:10096000C1EB2010B8F904604043B8F90230000B25
:10097000A2EB410270435A43801300EBE226B8F920
:100980000A50A6F5FA3E8EFB0E3CA3FB0520EF179E
:1009900003FB0700B8F908100CFB0500120A81FBE5
:1009A0000E1742EA0062B8F8065012EB0132A2FBC1
:1009B00005244FEA073242EA115141EB202000F5AD
:1009C000004000FB0545C8F820606A1042EAE57067
:1009D00000286FD0B8F91010B8F90E00A3FB0196EB
:1009E000CC1703FB04638EFB0007D8F81C600CFBDC
:1009F00001317F0447EAD03719EB4040C6F5801338
:100A00007941B8F90C7003F00046D0EBC37040F6A2
:100A1000354C46EA530301EBC701A0FB0C0463EB22
:100A2000010101FB0C41B8F91290EB17FFF7F9FB3C
:100A3000420B42EAC142A2FB02374D13B8F91660DD
:100A400002FB0577A3FB06C402FB0572F71703FB45
:100A500007434FEA5C6402FB0632B8F914304FEAF0
:100A6000626EA0FB0376DD1700FB056644EAC21246
:100A700001FB0363FF0C47EA4337801841EB0E018B
:100A8000C01941EBE341000A0A1240EA01604FEA53
:100A9000E971090141EA197110EB09105141FFF7A1
:100AA00070FC9FED080A01EE100A21EE000A01B069
:100AB000BDE8F0839FED020A01B0BDE8F08300BFFE
:100AC000000000000000803B80B540F2381CC2F2FC
:100AD000000CDCF81810BCF80020CB10C2EB211180
:100AE000BCF904E04943BCF90200090BA3EB420343
:100AF00001FB0EF15843891301EBE02000EB80016C
:100B00008031091200EE101A9FED041AB8EEC00AE7
:100B100080EE010ACCF8200080BD00BF0000C84272
:100B200070B584B0B62040F2C0148DF80F000126D5
:100B30000DF10F00C2F200044FF0FF35CDE90006C1
:100B40002046EC21E0220123029500F001FFC8209D
:100B500000F05AF955208DF80E0010208DF80D0088
:100B60000DF10E00CDE900062046EC21F422012310
:100B7000029500F0EDFE0DF10D00CDE900062046D6
:100B8000EC21F5220123029500F0E2FE00F04EF880
:100B900004B070BD80B584B055208DF80F000120E1
:100BA0000DF10F01CDE9001040F2C0104FF0FF3CF5
:100BB000C2F20000EC21F4220123CDF808C000F0BD
:100BC000C7FE04B080BD000080B586B006200DF1E0
:100BD0001201CDE9001040F2C0104FF0FF3CC2F20C
:100BE0000000EC21F7220123CDF808C000F0F8FC4A
:100BF0009DF813109DF8120009019DF8142041EA98
:100C000000309DF816109DF8153040EA12100901C9
:100C10009DF8172041EA033140F23813C2F2000375
:100C200041EA1211C3E9061006B080BD2DE9F0417A
:100C300084B040F2C014C2F200044FF0FF38022624
:100C40000DF10E072046EC2188220123CDE9007624
:100C5000CDF8088000F0C4FCBDF80E0040F2381555
:100C6000C2F2000528802046EC218A220123CDE92A
:100C70000076CDF8088000F0B3FCBDF80E00EC2142
:100C8000688020468C220123CDE90076CDF80880CB
:100C900000F0A6FCBDF80E00EC21A88020468E22B4
:100CA0000123CDE90076CDF8088000F099FCBDF86D
:100CB0000E00EC21E880204690220123CDE9007649
:100CC000CDF8088000F08CFCBDF80E00EC212881E6
:100CD000204692220123CDE90076CDF8088000F06D
:100CE0007FFCBDF80E00EC21688120469422012390
:100CF000CDE90076CDF8088000F072FCBDF80E005A
:100D0000EC21A881204696220123CDE90076CDF87A
:100D1000088000F065FCBDF80E00EC21E88120465B
:100D200098220123CDE90076CDF8088000F058FC28
:100D3000BDF80E00EC21288220469A220123CDE93D
:100D40000076CDF8088000F04BFCBDF80E00EC21D9
:100D5000688220469C220123CDE90076CDF80880E8
:100D600000F03EFCBDF80E00EC21A88220469E2239
:100D70000123CDE90076CDF8088000F031FCBDF804
:100D80000E00E88204B0BDE8F081000082B040F2BD
:100D90005C17C2F2000712A4FFF7FCFEFFF714FF76
:100DA000FFF792FE87ED000AFFF7CEFD3868B0EE40
:100DB000408A87ED010AFFF7FAFA054618EE100A95
:100DC0000E46FFF7F4FA41EC100B20462A46334654
:100DD0008DED000B07F00CF9C82006F091F9DBE768
:100DE000543A20252E32662020503A202566200DC8
:100DF0000A000000FEE7000070470000EFF31080DB
:100E000072B600BFFEE70000B0B5044600F0EAF895
:100E1000054640F20800C2F200000078611C18BFCD
:100E2000044400BF00F0DEF8401BA042FAD3B0BD7E
:100E30002DE9F04F82B000F13E4241F6004502F14B
:100E4000FF77C4F20205082243F6004E4FEAB726A8
:100E5000A84208BF0722C4F2010E072E38BF4FEA8E
:100E6000B7220125002600274FF00008009208E075
:100E700008F101080437B8F1100F06F1020600F07E
:100E8000A7800C6805FA08F914EA090FF0D0D1F828
:100E900004B003220BF0030CACF10104B240012CAE
:100EA0006FEA020A10D88268CC6802EA0A02B440EB
:100EB000224382604268CBF3001422EA090204FA5A
:100EC00008F42243426005E0BCF1030F02D14FF069
:100ED000030C20E0C2688C6802EA0A02B440224394
:100EE000BCF1020FC26016D16FF0030202EA580291
:100EF0000244D2F820C007F01C050F230C69AB4058
:100F00002CEA030304FA05F52B431362D1F804B06D
:100F100001250BF0030C02680CFA06F302EA0A0240
:100F20001A431BF4403F0260A2D0002243F6440360
:100F30000192C4F202031A684FF6084C42F4804250
:100F40001A601A68CFF6FF7C02F480420192019A7F
:100F500028F00302724452F80C3007F00C050F24FD
:100F6000AC40A343009C04FA05F52B4342F80C3037
:100F7000DEF808204B6842EA090543F60C4CDC0217
:100F800058BF22EA0905CEF80850C4F2010CDCF87B
:100F900000209C0242EA090558BF22EA0905CCF864
:100FA0000050DEF804209C0342EA090558BF22EAFB
:100FB0000905CEF80450DEF80020DB0342EA0905FB
:100FC00058BF22EA0905CEF80050012550E700BFBE
:100FD00002B0BDE8F08F0000002A08BF090481615B
:100FE0007047000043F6C870C2F200000068704706
:100FF00070B5B8B3044690F83D0028B9002084F8D5
:101000003C00204600F092FD242084F83D0020683A
:10101000016821F001010160016841F400410160B3
:10102000016821F40041016001F008F848F28041B4
:10103000C0F21E0140F60013D4F804E088424FF0DD
:101040000001C0F23D0348F2A16C4FF0000238BF2E
:1010500001219842C0F2010C38BF0122E64538BF99
:101060000A460AB1012070BD4DF68361C4F21B31FE
:10107000A0FB01122168950C4B684FF4967623F083
:101080003F0343EA9243754344F6D3564B60C1F2A3
:1010900062060B6AA5FB0656B50923F03F03E64539
:1010A00038BF950C6A1C1A430A62CA6948F2A066E6
:1010B0004CF6FF73C0F20106B64522EA03020BD8D4
:1010C00001384FEA4E03B0FBF3F001306FF31F30ED
:1010D000042898BF04201EE0A368013863B11923D7
:1010E0000EFB03F3B0FBF3F001306FF31F3078B168
:1010F00000F5804008E000BF0EEB4E03B0FBF3F0BC
:1011000001306FF31F3028B100F5004003E000BF4D
:10111000012000E001201043C8610868D4E90723DA
:1011200020F0C000104318430860886848F2FF327E
:1011300004F10C0690434CCE18431043A569886017
:10114000C86820F0FF0030432843C860086840F0BA
:101150000100086000202021206484F83D102063F5
:1011600084F83E0070BD00002DE9F04381B01F46B9
:10117000164688460446FFF735FF94F83D102029AF
:1011800020D1054620688169890717D5FFF72AFF16
:10119000401B1928F6D900202021206384F83D1037
:1011A00084F83E00216C022641F02001216484F87D
:1011B0003C00304601B0BDE8F08300BF94F83C101D
:1011C000012905D10226304601B0BDE8F08300BFF9
:1011D000012184F83C100168C90703D1016841F07E
:1011E00001010160016821F400610160212184F89E
:1011F0003D10102184F83E1000212164666267854D
:10120000618D21850021CFF6FF71E162E16A11F560
:10121000803F18BF012919D1016841F48071016034
:101220004169DDF82090C90723D119F1010116D0D9
:10123000B9F1000F46D000BFFFF7D4FE401B484570
:1012400042D820684169C907F6D012E00829E3D0E6
:10125000216B1229E0D0E3E74169C90709D141694F
:10126000C90706D14169C90704BF41695FEAC17175
:10127000F2D02169B1F5804F02D1FE2161E000BFBB
:10128000062101EAD811F03101614169090757D4FB
:10129000416919F1010201F480612FD0002946D182
:1012A000B9F1000F00F04281FFF79CFE401B48455A
:1012B00000F23E8120684169090741D4416949052E
:1012C000F2D534E0FFF78EFE00202021206384F861
:1012D0003D1084F83E00216C012641F0200121647C
:1012E000216884F83C000868C00544BF4FF40070D2
:1012F0002064304601B0BDE8F08300BFB9B9416950
:1013000009071DD44169490511D44169090717D45A
:10131000416949050BD44169090711D4416949055F
:1013200005D4416909070BD441694905E7D501682E
:1013300041F4007101606FF4806141610420F8E0C4
:10134000FF2101EA08010161416989073AD4416935
:1013500019F1010201F4806112D051BBB9F1000F03
:1013600000F0E080FFF73EFE401B484500F2DC80C5
:1013700020684169890725D441694905F2D518E0FB
:10138000B9B9416989071DD44169490511D4416939
:10139000890717D4416949050BD44169890711D4DC
:1013A0004169490505D4416989070BD4416949055B
:1013B000E7D5016841F4007101606FF4806141611B
:1013C0000420B6E0002600964169009181690091F1
:1013D0000099218D002900F0958009F1010801464E
:1013E00051F8142F120635D4B8F1000F16D0B9F108
:1013F000000F00F0AF8000BF0868400500F1B28028
:10140000FFF7F0FD401B484500F2A9802068014627
:1014100051F8142F1206EFD51CE000BF0A685205E0
:1014200000F1A0800A68120614D40A68520500F17F
:1014300099800A6812060DD40A68520500F192805C
:101440000A68120606D40A68520500F18B800A6801
:101450001206E3D5636A194611F8012B0261616235
:10146000618D01396185278D0146A7F1010CA4F832
:1014700028C051F8142F52070DD55FEA0C420AD04C
:101480005A78A7F1020C02619A1C6262628D013ADD
:101490006285A4F828C00A6852072FD4B8F1000F5B
:1014A00014D0B9F1000F7BD00868400500F18080AE
:1014B000FFF798FD401B484577D82068014651F852
:1014C000142F5207F0D5B4F828C017E00A68520567
:1014D0006ED40A68520711D40A68520568D40A68A3
:1014E00052070BD40A68520562D40A68520705D421
:1014F0000A6852055CD40A685207E7D55FEA0C41D6
:101500007FF46DAF016841F400710160202084F820
:101510003D0084F83E6084F83C60304601B0BDE890
:10152000F08300BFFFF75EFD202002E0FFF75AFDC9
:10153000202000212022216384F83D2084F83E10E1
:10154000226C01261043206484F83C10304601B020
:10155000BDE8F0830868400504D4FFF743FD202070
:1015600004E000BF6FF480600860042000212022A6
:10157000216384F83D2084F83E10226C10432064DF
:1015800084F83C10206C042825D1206801260168CD
:1015900041F400710160304601B0BDE8F08300BF46
:1015A0000868400504D4FFF71DFD202004E000BFBB
:1015B0006FF480600860042000212022216384F8F9
:1015C0003D2084F83E10226C1043206484F83C10C7
:1015D000206C0428D9D00126304601B0BDE8F08344
:1015E0002DE9F04784B0984617460E460446FFF7AB
:1015F000F9FC94F83D10202923D105462068816923
:10160000890719D5FFF7EEFC401B1928F6D90020F1
:101610002021206384F83D1084F83E00206C04F102
:101620003C0940F0200020640220002189F80010CD
:1016300004B0BDE8F08700BFA14619F83C1F01299E
:1016400004D1022004B0BDE8F08700BF012289F870
:1016500000200368DDE90D1A0C9ADB0703D103684B
:1016600043F001030360036823F400630360222056
:1016700084F83D00402084F83E000020206462622F
:101680006185608D314620850020CFF6FF70E062D5
:1016900020463A464346CDF800A0019501F040FBB4
:1016A00020B1012004B0BDE8F08700BF208DA8B1B3
:1016B00002282BD0012835D121680A6822F48062E3
:1016C0000A60002203924A6903928A690392039A8C
:1016D0000A6842F400720A602CE000BF0020039008
:1016E000206841690391816903910399016841F47C
:1016F00000710160202084F83D00002084F83E0045
:10170000002189F8001004B0BDE8F08721680A685C
:1017100022F480620A600A6842F400620A600022D1
:10172000039202E00021039121684A6903928969CA
:10173000039103990AF1010680B2032818D8022800
:1017400042D0012856D1BAF1000F00F0AB802068DA
:10175000014651F8142F520600F1A8800868C0060F
:1017600000F1E280FFF73EFC401B5045EFD9D0E08E
:10177000BAF1000F10D000BF2068014651F8142FB5
:1017800052060ED40868C00600F1CE80FFF72AFC8E
:10179000401B5045F0D9BCE020684169490640F142
:1017A000B1800069616A0870606A2268411C208DFE
:1017B000616201382085638D013B638553695B0756
:1017C00040F18080106973E020684169490747D47F
:1017D000002E59D0BAF1000F00F09980FFF702FCFB
:1017E000401B504500F29580206841694907F5D5B6
:1017F00036E000BF2068416949070FD4002E65D04C
:10180000BAF1000F00F08380FFF7ECFB401B50455E
:1018100000F27F80206841694907F5D5016821F40D
:10182000806101600069616A0870606A218D013021
:101830000139606221852068618D013961854169C6
:1018400049070DD4002E4FD0BAF1000F5FD0FFF73B
:10185000C9FB401B50455CD8206841694907F6D553
:10186000016841F4007101600069616A0870606A92
:101870002268411C6162218D01392185618D013908
:1018800061851169417014E041694907E8D44169F3
:1018900049075CBF41695FEA4171E1D44169490789
:1018A000F2D5DDE72068416949062BD50069616AF8
:1018B0000870606A218D01306062481E2085618D4C
:1018C0000139618501047FF437AF13E741694907A6
:1018D000A4D4416949075CBF41695FEA41719DD465
:1018E00041694907F2D599E741694907B8D4416987
:1018F00049075CBF41695FEA4171B1D44169490759
:10190000F2D5ADE750F8141FC90601460CD4FFF715
:1019100069FB00202021206384F83D1084F83E00FC
:10192000206C40F020000AE06FF0100008600020FA
:101930002021206384F83D1084F83E00206C206450
:101940000120002189F8001004B0BDE8F0870000F4
:101950002DE9F04383B0994616460F460446FFF73B
:1019600041FB94F83D1020291CD10546206881696F
:10197000890713D5FFF736FB401B1928F6D900203D
:101980002021206384F83D1084F83E00216C41F052
:101990002001216484F83C0004E000BF94F83C106E
:1019A000012903D1022003B0BDE8F083012284F8AD
:1019B0003C200368DDE90B180A9ADB0703D10368B2
:1019C00043F001030360036823F4006303602120F4
:1019D00084F83D00402084F83E00002020646262CC
:1019E0006185608D394620850020CFF6FF70E0626A
:1019F000204632464B46CDF80080019501F020FB91
:101A000020B1012003B0BDE8F08300BF208D002885
:101A100050D0206808F10106014651F8142F120633
:101A20002CD49EB1B8F1000F5AD000BF0868400511
:101A30005ED4FFF7D7FA401B404556D820680146D0
:101A400051F8142F1206F1D518E000BF0A685205AC
:101A50004ED40A68120611D40A68520548D40A689E
:101A600012060BD40A68520542D40A68120605D43D
:101A70000A6852053CD40A681206E7D5626A114624
:101A800011F8013B0361238D6162591E2185678D29
:101A9000013F678547697F070AD50F0408D0517851
:101AA0000161911C6162991E2185628D013A6285F6
:101AB0000904B1D1204641462A4601F0FBFB38BB60
:101AC0002068016841F400710160202084F83D0025
:101AD000002084F83E0084F83C0003B0BDE8F083A9
:101AE0000868400504D4FFF77DFA202004E000BF19
:101AF0006FF480600860042000212022216384F8B4
:101B00003D2084F83E10226C1043206484F83C1081
:101B1000206C04287FF475AF2068016841F40071DF
:101B20000160012003B0BDE8F08300002DE9F0471B
:101B300086B0006845F60041C4F2000100268842E4
:101B4000CDE90466CDE90266019639D045F600017B
:101B5000C4F2000188427BD045F20041C4F200018A
:101B6000884272D1002543F630040095C4F2020485
:101B7000206801A940F002002060206800F0020007
:101B800000900098C02001901220CDE902050320AA
:101B90000490042005900020C4F2020000F580604B
:101BA000FFF746F90095206940F400102061206994
:101BB00000F400100090009806B0BDE8F08700BF68
:101BC00043F630070096C4F202073868002440F05C
:101BD000040038603868C4F2020400F00400009089
:101BE00000980096386801AD40F001003860386810
:101BF0004FF0120800F00100009000984FF40070C0
:101C000001904FF003094FF0040A04F500602946E3
:101C1000CDE90286CDF81090CDF814A0FFF708F9B1
:101C20004FF48070CDE9010803A880E84006204603
:101C30002946FFF7FDF80096386940F40000386146
:101C4000386900F400000090009806B0BDE8F08705
:101C5000002443F630050094C4F2020528681221DE
:101C600040F020002860286800F0200000900098D4
:101C7000032001900490042005900020C4F202008B
:101C8000CDE9021400F5A05001A9FFF7D1F80094A6
:101C9000286940F480002861286900F480000090E1
:101CA000009806B0BDE8F08740F2080043F6C8711E
:101CB000C2F20000C2F2000100780A681044086015
:101CC0007047000080B543F60040C4F2020001688E
:101CD00041F400710160016841F4806101600168B4
:101CE00041F480710160032000F0C8F80F2000F07B
:101CF00005F800F061F8002080BD000070B586B0E6
:101D0000002543F640010195C4F202010A68044629
:101D100042F080020A60096801A801F08001019187
:101D20000199694600F06AF9049E002E18BF012649
:101D300000F084F94DF68361B040C4F21B31A0FB82
:101D400001014FF0FF3000EB914140F2682041F675
:101D50000042C2F20000C4F2000240F2E733C0E9E0
:101D60000021C0E902530561856100F083FB05464F
:101D700010B1284606B070BD40F26820C2F20000E3
:101D800000F0C2FB05460028F3D12C2000F036F805
:101D90000F2C0DD82C2021460022002500F042F8FF
:101DA00040F20C00C2F200000460284606B070BD8C
:101DB0000125284606B070BD82B0002043F64001E0
:101DC0000190C4F202014A6842F480424A604A68C3
:101DD00002F480420192019A00900868002240F0CB
:101DE0008050086008680F2100F080500090009833
:101DF0006FF0010002B000F015B80000002848BFE5
:101E00007047C1B200F01F00012202FA00F04EF24A
:101E10000012CEF2000242EAD10121F00301086073
:101E20007047000010B54EF60C5CCEF2000CDCF8EA
:101E30000030C3F3022E8EF00704042C28BF0424C4
:101E4000BEF103034FF0FF3E0EFA04F438BF002347
:101E5000A14399400EFA03F39A43114300F00F0295
:101E600000F160430901043A03F564436244002829
:101E700048BF02F10C03197010BD00004EF60C5162
:101E8000CEF200010A684FF6FF031A4060F30A22FF
:101E900042F0806040F0FD70086070472DE9F0412D
:101EA000002800F08B8043F60808C4F202080446BC
:101EB000D8F8F8030D4600F00700884207D288F8EA
:101EC000F853D8F8F80300F00700A84276D120684C
:101ED000810717D5410705D5D8F8001041F4E05126
:101EE000C8F80010010705D5D8F8001041F460418A
:101EF000C8F80010D8F80010A26821F0F0011143D2
:101F0000C8F80010C0073FD1D8F8F80300F0070068
:101F1000A84207D988F8F853D8F8F80300F007006A
:101F2000A8424BD12068410707D5D8F80010E268D5
:101F300021F4E0511143C8F80010000708D5D8F883
:101F40000000216920F4604040EAC100C8F80000A8
:101F500000F09CF8D8F8001049F26E42C1F303116A
:101F6000C0F60002515C40F2100220FA01F140F28A
:101F70000C00C2F200000068C2F200021160FFF71C
:101F8000BDFE0020BDE8F0816068811E022907D2F5
:101F900058F8081C89015CBF0120BDE8F08111E000
:101FA000012807D158F8081C89035CBF0120BDE84F
:101FB000F08107E058F8081C890703D40120BDE828
:101FC000F08100BFD8F8001021F003010843C8F8E1
:101FD0000000FFF707F8064641F28837D8F80000FE
:101FE000616800F00C00B0EB810F8DD0FEF7FAFFB6
:101FF000801BB842F2D90320BDE8F0810F220260B5
:1020000043F60802C4F20202136803F003034360BC
:10201000136803F0F0038360136803F4E053C360B4
:10202000D2F800C04FF4E05303EADC030361D2F8B6
:10203000F80300F0070008607047000040F210004D
:1020400043F60801C2F20000C4F202010068096808
:1020500049F27E42C1F38221C0F60002515CC840C1
:102060007047000040F2100043F60801C2F2000081
:10207000C4F202010068096849F27E42C1F34231AC
:10208000C0F60002515CC8407047000010B543F62E
:102090000404C4F20204606800F00C0142F2004043
:1020A0000829C0F2F40007D0042918BF10BD41F27E
:1020B0000020C0F27A0010BD216801F03F022168C3
:1020C00023684902C3F3881106D4A1FB0001002351
:1020D000FEF776F807E000BF41F20020C0F27A0078
:1020E0004843B0FBF2F021680222C1F3014102EB48
:1020F0004101B0FBF1F010BD2DE9F04182B00028A4
:1021000068D00446007843F60006C007C4F2020611
:102110000BD0B06800F00C00042840F09F803068BD
:10212000800302D56068002854D0207880071AD533
:10213000B06810F00C0F09D0B06800F00C0008284F
:1021400040F0A6807068400200F1A28030688007ED
:1021500002D5E06801283DD13068216920F0F800FF
:1021600040EAC10030602078000737D4207840076B
:102170004CD4A56955B3B06800F00C00082840F0B5
:10218000BB80012D26D07068E16900F480028A428C
:1021900020D1216A00F03F028A421BD147F6C0716C
:1021A000626A0140B1EB821F14D1A16A4FF6FF733E
:1021B000C903994300F44032A1F580318A4209D124
:1021C000E16A00F07060B0EB016F03D1002002B053
:1021D000BDE8F081012002B0BDE8F081606900280F
:1021E00040F20000C4F2472076D00121C0F8801EE2
:1021F000FEF7F8FE054600BF706F8007B6D4FEF705
:10220000F1FE401B0228F7D9DDE000BF306C10F072
:1022100080580AD100200190306C40F0805030642A
:10222000306C00F080500190019847F20007C4F232
:1022300000073868C00541D4386840F480703860C1
:10224000FEF7D0FE054600BF3868C00536D4FEF75D
:10225000C9FE401B0228F7D9B5E000BFB06800F006
:102260000C00082803D1706840023FF558AF606841
:10227000B0F5803F07D0B0F5A02F40F08D803068DA
:1022800040F480203060306840F4803030608DE071
:10229000E068002852D00020C4F2472001210160EC
:1022A000FEF7A0FE054600BF306880073FF554AF3B
:1022B000FEF798FE401B0228F6D984E0A0680128AA
:1022C00005D005284ED1306F40F004003067306FE4
:1022D00040F0010030674FE00021C0F8801EFEF79B
:1022E00081FE0546706F80077FF540AFFEF77AFEEE
:1022F000401B0228F6D966E00027C4F247270020D9
:102300003866FEF76FFE022D05460BD1306880015E
:102310005ED5FEF767FE401B02284FF00300F5D99B
:1023200055E700BF306880017FF550AFFEF75AFED9
:10233000401B02284FF00300F4D948E70020C4F204
:10234000472000210160FEF74DFE054630688007FA
:102350007FF509AFFEF746FE401B02284FF0030051
:10236000F4D934E7316F002821F001013167316F72
:1023700021F0040131674DD0FEF734FE054641F2ED
:10238000883700BF306F800756D4FEF72BFE401B06
:10239000B842F7D917E000BF3168002821F4803136
:1023A0003160316821F4802131604FD0FEF71AFE90
:1023B000054600BF306880033FF5B7AEFEF712FE5A
:1023C000401B6428F6D9032002B0BDE8F08100BFAD
:1023D00004F11C052FCD084340EA8210D9034FF6C3
:1023E000FF729143A1F5803140EA056008437060B7
:1023F00001203866FEF7F6FD044600BF3068800114
:102400003FF5E4AEFEF7EEFD001B02284FF003009F
:10241000F4D9DCE6FEF7E6FD054641F2883700BF59
:10242000306F800708D5FEF7DDFD401BB8424FF046
:102430000300F5D9CBE600BFB8F1000F7FF499AEE9
:10244000306C20F08050306493E600BFFEF7CAFD88
:10245000054600BF306880037FF567AEFEF7C2FD1A
:10246000401B64284FF00300F4D9B0E67047000029
:1024700070470000002804BF0120704710B50446D3
:1024800090F83D0028B9002084F83C00204600F078
:102490001FF8022084F83D002068211D02F03AF95F
:1024A000012084F8460084F83E0084F83F0084F858
:1024B000400084F8410084F8420084F8430084F826
:1024C000440084F8450084F83D00002010BD000061
:1024D00081B0006842F20001C4F20001884201D0DC
:1024E00001B070470020009043F64000C4F20200A3
:1024F000016841F480710160006800F48070009010
:10250000009801B07047000090F83D1001291CBFF1
:1025100001207047022180F83D10006841F2FF72EF
:10252000C168C4F20002904241F00101C1600DDCBB
:1025300040F2FF71C4F20001884215DCB0F1804F17
:102540002AD040F20041C4F2000123E040F2FF3102
:10255000C4F20101884213DC41F60001C4F200011B
:10256000884219D0002113E040F60001C4F20001B6
:10257000884211D040F60041C4F200010AE000BFD9
:1025800044F20001C4F20101884205D040F200414A
:10259000C4F20101884206D1816801F007010629D1
:1025A00004BF00207047016841F001010160002074
:1025B000704700007047000010B5016804460869C4
:1025C000800744BFC8685FEA807039D40869400753
:1025D00044BFC8685FEA40703ED40869000744BF42
:1025E000C8685FEA007045D40869C00644BFC8687F
:1025F0005FEAC0604AD40869C0071CBFC8685FEAC8
:10260000C07051D10869000644BFC8685FEA006025
:1026100052D40869400644BFC8685FEA406053D49A
:102620000869800646BFC8685FEA806010BD6FF029
:10263000200220460A61BDE81040FFF719BF00BF25
:102640006FF002000861012020778869800743D07D
:102650002046FFF7AFFF45E06FF00400086102205D
:102660002077886910F4407F40D02046FFF7A2FF12
:1026700042E000BF6FF00800086104202077C869BD
:1026800080073DD02046FFF795FF3FE06FF0100038
:10269000086108202077C86910F4407F3AD02046AE
:1026A000FFF788FF3CE000BF6FF0010008612046A3
:1026B00000F080F92168A5E76FF0800008612046EE
:1026C000FFF7D4FE2168A4E76FF0400008612046C0
:1026D00000F07AF92168A3E7204600F025F82046AB
:1026E00000F066F92168002020776FE7204600F0AF
:1026F0001BF8204600F05CF92168002020776CE789
:10270000204600F011F8204600F052F92168002020
:10271000207769E7204600F007F8204600F048F9E6
:1027200021680020207766E7704700002DE9F0431C
:1027300090F83C30012B04BF0220BDE8F0834FEA43
:10274000B202032A00F2FC80DFE802F0023E7EBE05
:10275000036840F200471A6A43F4806522F00102E0
:102760001A621C6A1A46D3F804E052F818CF8E6831
:1027700024F00204C4F20107BD4244EA060405D174
:10278000CE6824F00C0426F0040634430E68BD42E3
:1027900007D1D1E905572EF4407E45EA0E0545EAFA
:1027A000070E2CF073073743C3F804E09F614F68AE
:1027B00009695F631C629F6947F008079F619F6911
:1027C00027F004079F61B1E0036840F200481A6AED
:1027D00043F4806522F010021A621C6A1A46D3F88C
:1027E00004C052F818EF8F6824F02004C4F20108E6
:1027F000454544EA071407D1CF686FF0400624F03E
:10280000C00406EA07163443D1F80090454506D1C6
:10281000D1E905562CF440672E4347EA860C2EF486
:10282000E64747EA0927C3F804C09F614F68096972
:102830009F631C629F6947F400679F619F6927F44B
:1028400080679F6171E000BF036840F200481A6A28
:1028500043F4806522F480721A621C6A1A46D3F827
:1028600004C052F81CEF8F6824F40074C4F201080D
:10287000454544EA072408D1CF6840F2FF463F02AD
:1028800024F4406427EA06063443D1F80090454515
:1028900006D1D1E905562CF440572E4347EA061CD1
:1028A0002EF0730747EA0907C3F804C0DF614F68D9
:1028B0000969DF631C62DF6947F00807DF61DF69D0
:1028C00027F00407DF6131E0036840F200451A6A2F
:1028D00043F4806722F480521A621A46D3F820C06B
:1028E0005C6852F81CEFD1F800808E68C4F20105D4
:1028F000AF4204D14D6924F4804444EA85142CF499
:10290000005747EA06372EF4E64646EA08265C609A
:10291000DE614E6809691E641F62DF6947F4006763
:10292000DF61DF6927F48067DF61090213681943FB
:1029300011600021002280F83C200846BDE8F083A9
:102940000121002280F83C200846BDE8F083000009
:10295000002804BF0120704710B5044690F83D00E0
:1029600028B9002084F83C00204600F01FF802201F
:1029700084F83D002068211D01F0CCFE012084F880
:10298000460084F83E0084F83F0084F8400084F854
:10299000410084F8420084F8430084F8440084F83D
:1029A000450084F83D00002010BD00007047000085
:1029B00070470000006841F60041C4F200018842FF
:1029C00018BF7047FFF770B970470000002804BFB8
:1029D0000120704710B5044690F83D0028B900204A
:1029E00084F83C00204600F021F8242084F83D00C3
:1029F0002068C16821F40051C160204601F028FF21
:102A00002068016921F490410161416921F02A01A6
:102A10004161C16841F40051C1600020202120645F
:102A200084F83D1084F83E1010BD000080B586B0DB
:102A3000016844F60040C4F20000814202D006B0B2
:102A400080BD00BF002143F630020191C4F20202B2
:102A5000136900F5DA3043F400231361136903F4BA
:102A600000230193019B0191136843F0010313605C
:102A70001268022302F001020192019ACDE90231AB
:102A800008210322059101A901920492FEF7D0F9D1
:102A900006B080BD2DE9F04381B0044690F83D00BA
:102AA00020280DD10F4600294FF0010000F0DD80F5
:102AB0001646002A00F0D98094F83C00012803D182
:102AC000022001B0BDE8F083012084F83C00002022
:102AD000206421201D4684F83D00FEF783FAA68479
:102AE000E684A1680646B1F5805F03D1206900281D
:102AF00000F01081B8460027002084F83C00E18CEB
:102B00002068002900F0908005F101090DE000BF68
:102B1000B8F1000F28D018F8011B4160E18C013991
:102B2000E184E18C002900F07F8001680906EFD480
:102B3000B9F1000F0AD0FDB1FEF754FA801BA8428C
:102B40001AD8206801680906F6D5E1E70168090688
:102B5000DED4016809065CBF01685FEA0161D7D471
:102B600001680906F2D5D3E737F8021B4FF00008D9
:102B70006FF35F21D1E700BF206850E8030F2168A1
:102B800020F4D07041E80302BAB3206850E8030F84
:102B9000216820F4D07041E8030272B3206850E845
:102BA000030F216820F4D07041E803022AB32068A3
:102BB00050E8030F216820F4D07041E80302002A96
:102BC000DAD11AE0206850E8050F216820F00100F2
:102BD00041E80502DAB1206850E8050F216820F0CD
:102BE000010041E8050292B1206850E8050F216814
:102BF00020F0010041E805024AB1206850E8050FC5
:102C0000216820F0010041E80502002ADAD12020E5
:102C100084F83D0084F83E00002084F83C00032046
:102C200001B0BDE8F08300BF0168490619D4FDB1C9
:102C3000691C0DD10168490613D4016849065CBFBF
:102C400001685FEA41610CD401684906F2D508E0E9
:102C5000FEF7C8F9801BA8420AD820680068400621
:102C6000F6D5202084F83D00002001B0BDE8F083B7
:102C7000206850E8030F216820F4D07041E8030277
:102C8000E2B3206850E8030F216820F4D07041E8D7
:102C900003029AB3206850E8030F216820F4D07033
:102CA00041E8030252B3206850E8030F216820F482
:102CB000D07041E80302002ADAD11FE0206850E812
:102CC000050F216820F0010041E80502002A9ED08E
:102CD000206850E8050F216820F0010041E8050256
:102CE000002A3FF494AF206850E8050F216820F0D7
:102CF000010041E80502002A3FF489AF206850E84E
:102D0000050F216820F0010041E80502002AD5D115
:102D10007DE700BF4FF00008EEE60000FEE7000090
:102D20002DE9F04383B00446006899460368904655
:102D300043F48062026002680B9D42F4807202607C
:102D400042690A9ED2070F461DD1711C11D0002E78
:102D500000F03681FEF746F9401BB04200F23281A6
:102D600020684169C907F5D00DE000BF4169C90776
:102D700009D14169C90706D14169C90704BF416941
:102D80005FEAC171F2D007F0FE0707614169890768
:102D900038D44169721C01F4806111D049BB002E06
:102DA00000F03A81FEF71EF9401BB04200F2368176
:102DB00020684169890725D441694905F2D518E0A1
:102DC000B9B9416989071DD44169490511D44169DF
:102DD000890717D4416949050BD44169890711D482
:102DE0004169490505D4416989070BD44169490501
:102DF000E7D5016841F4007101606FF480614161C1
:102E000004200CE100210291014651F8142F029296
:102E10004A680292029A0A68120620D4002E00F034
:102E2000AB80721C51D10A68520500F1AD800A686E
:102E3000120614D40A68520500F1A6800A68120628
:102E40000DD40A68520500F19F800A68120606D464
:102E50000A68520500F198800A681206E3D5B9F1B4
:102E6000010F45D04FEA18210161014651F8142F96
:102E700012063DD4002E00F07F80721C2AD10A6811
:102E8000520500F181800A68120631D40A685205A1
:102E90007AD40A6812062BD40A68520574D40A68D8
:102EA000120625D40A6852056ED40A681206E6D5C1
:102EB0001EE000BFFEF796F8401BB04261D82068C4
:102EC000014651F8142F1206C9D408684005F1D5FF
:102ED0005AE000BF0868400556D4FEF783F8401B4F
:102EE000B0424ED82068014651F8142F1206F1D591
:102EF0005FFA88F10161014651F8142F12061AD4C5
:102F0000D6B3721C33D10A6852053DD40A68120642
:102F100011D40A68520537D40A6812060BD40A681D
:102F2000520531D40A68120605D40A6852052BD41A
:102F30000A681206E7D50168002241F48071016039
:102F400020464FF001113346009500F007FA0028A3
:102F500050D02068006844E0FEF744F8401BB042BF
:102F60000FD82068014651F8142F1206E3D40868E0
:102F70004005F1D508E000BF0868400504D4FEF71D
:102F800031F8202004E000BF6FF480600860042066
:102F900000212022216384F83D2084F83E10226C19
:102FA0001043206484F83C10206C042843D120682E
:102FB000016841F400710160012003B0BDE8F083B5
:102FC000FEF710F800202021206384F83D1084F8DB
:102FD0003E00216C41F020012164216884F83C000E
:102FE0000868C00544BF4FF400702064032003B09C
:102FF000BDE8F083206847F0010101610221C0F2C1
:103000000101204632462B4600F050FA002818BF36
:10301000012003B0BDE8F083FDF7E4FF202000218C
:103020002022216384F83D2084F83E10226C104356
:10303000206484F83C10012003B0BDE8F083000058
:103040002DE9F04381B00446006890460268099D6E
:1030500042F4807202604269089E9946D2070F4688
:103060001DD1711C11D0002E00F0D280FDF7BAFFE7
:10307000401BB04200F2CE8020684169C907F5D0FC
:103080000DE000BF4169C90709D14169C90706D1EF
:103090004169C90704BF41695FEAC171F2D007F015
:1030A000FE0101614169890738D44169721C01F44C
:1030B000806111D049BB002E00F0E880FDF792FF3F
:1030C000401BB04200F2E48020684169890725D4A2
:1030D00041694905F2D518E0B9B9416989071DD49C
:1030E0004169490511D44169890717D441694905E6
:1030F0000BD44169890711D44169490505D4416957
:1031000089070BD441694905E7D5016841F400718D
:1031100001606FF4806141610420BAE000210091F8
:10312000014651F8142F00924A680092009A0A68EA
:1031300012061ED4002E00F08580721C4DD10A6844
:10314000520500F187800A68120612D40A685205F7
:1031500000F180800A6812060BD40A68520579D4FF
:103160000A68120605D40A68520573D40A68120662
:10317000E5D5B9F1010F43D04FEA182101610146AD
:1031800051F8142F12063BD4002E5BD0721C29D1AB
:103190000A6852055ED40A68120631D40A685205DC
:1031A00058D40A6812062BD40A68520552D40A6809
:1031B000120625D40A6852054CD40A681206E7D5CF
:1031C0001EE000BFFDF70EFF401BB0423FD8206855
:1031D000014651F8142F1206CBD408684005F1D5EA
:1031E00038E000BF0868400534D4FDF7FBFE401B03
:1031F000B0422CD82068014651F8142F1206F1D5A0
:103200005FFA88F10161002001B0BDE8F08300BFE2
:10321000FDF7E8FE00202021206384F83D1084F8AB
:103220003E00216C41F020012164216884F83C00BB
:103230000868C00544BF4FF400702064032001B04B
:10324000BDE8F0830868400504D4FDF7CBFE2020DC
:1032500004E000BF6FF48060086004200021202299
:10326000216384F83D2084F83E10226C10432064D2
:1032700084F83C10206C042817D12068016841F4C0
:1032800000710160012001B0BDE8F083FDF7AAFEE6
:10329000202000212022216384F83D2084F83E1064
:1032A000226C1043206484F83C10012001B0BDE87A
:1032B000F083000070B50368044653F8140F40070C
:1032C00037D40E46F1B1701C24D100BF18684005F8
:1032D00032D4186840072CD4186840052CD41868DC
:1032E000400726D41868400526D41868400720D423
:1032F0001868400520D4186840074FF0000048BF08
:1033000070BDE3E71868400516D4FDF76BFE20207A
:1033100016E000BF154600BF186840050CD4FDF745
:1033200061FE401BB042F2D8236853F8140F4007E7
:10333000F2D5002070BD00BF6FF4806018600420DB
:1033400000212022216384F83D2084F83E10226C65
:1033500010432064012084F83C1070BD2DE9F04139
:1033600005461446DDF8188001F47F002A681E46E1
:10337000B0F5803F8FB241D150693840C01BB0FAE0
:1033800080F04009A0427BD1701C2DD0002E7BD054
:10339000FDF728FEA0EB0800B04277D82868406906
:1033A0003840C01BB0FA80F04009A042F0D00020A5
:1033B000BDE8F08150693840C01BB0FA80F0400988
:1033C000A0425DD150693840C01BB0FA80F040097E
:1033D000A04255D150693840C01BB0FA80F0400976
:1033E000A0424FF000005FD150693840C01BB0FAD6
:1033F00080F04009A042DDD042E000BF9069384033
:10340000C01BB0FA80F04009A04239D1701C1FD017
:10341000D6B300BFFDF7E6FDA0EB0800B04235D8FB
:10342000286880693840C01BB0FA80F04009A0428B
:10343000F0D00020BDE8F08190693840C01BB0FAA0
:1034400080F04009A0424FF0000018BFBDE8F081B5
:1034500090693840C01BB0FA80F04009A0420FD1FB
:1034600090693840C01BB0FA80F04009A04207D1F3
:1034700090693840C01BB0FA80F04009A042DBD010
:103480000020BDE8F08100BFFDF7ACFD0020202149
:10349000286385F83D1085F83E00296C41F0200135
:1034A000296485F83C000120BDE8F081F0B581B0C9
:1034B000044600681D4643698FB203EA0701B9421A
:1034C00002D1002001B0F0BD41691646013201F47D
:1034D00080610FD059BB9EB3FDF784FD401BB04205
:1034E00030D8206841693940B942EAD0416949057C
:1034F000F2D51CE0D9B941693940B942E1D04169FE
:10350000490514D441693940B942DAD041694905C5
:103510000DD441693940B942D3D04169490506D437
:1035200041693940B942CCD041694905E3D50168C8
:1035300041F4007101606FF480614161042002E098
:10354000FDF750FD202000212022216384F83D203A
:1035500084F83E10226C1043206484F83C10012053
:1035600001B0F0BD000000002DE9F0412DED0E8B03
:103570008CB004460DF10E0090460D460DF10D077E
:1035800000900DF12A0009A905AA04AB019701F0EA
:1035900035FB38B14FF0FF300CB0BDEC0E8BBDE801
:1035A000F08100BFBDF80E00C00505D400200CB0AE
:1035B000BDEC0E8BBDE8F08105A890ED000A90ED02
:1035C000011A9FED514A90ED022AB8EEC00A90ED23
:1035D000033A20EE049AB8EEC10A20EE04CAB8EE0F
:1035E000C20A20EE04AAB8EEC30A20EE04BAB8EE6E
:1035F000000A2CEE00DA39EE098A28EE0A0A2DEECE
:103600000B1A31EE000A10EE100AFCF7D0FE41EC66
:10361000100B04F015FD51EC100B9FED390B56EC1F
:10362000107B3A463346FCF73AFEFCF7D3FE3AEEFF
:103630000AEA28EE0C0A2EEE0B1A31EE000A206080
:1036400010EE100AFCF7B3FE2AEE0E0A2DEE0C1A4D
:1036500031EE400AB7EE001A30EE010A41EC180BC9
:1036600010EE100AFCF7A3FE41EC110BB0EE480A75
:10367000F0EE680A05F000F851EC100B3A463346BC
:10368000FCF70DFEFCF7A6FE2CEE0A0A29EE0B1A3B
:1036900031EE000A30EE000A286010EE100AFCF746
:1036A00086FE2CEE0C0A29EE091A31EE000A2AEEEB
:1036B0000A1A30EE410A2BEE0B1A30EE410A41ECA9
:1036C000180B10EE100AFCF772FE41EC110BB0EE75
:1036D000480AF0EE680A04F0CFFF51EC100B3A46AE
:1036E0003346FCF7DCFDFCF775FEC8F8000000204F
:1036F0000CB0BDEC0E8BBDE8F08100BF00BF00BF79
:103700006666666666A64C400000803080B582B072
:1037100001A802F099F818B14FF0FF3002B080BD57
:10372000782003F01BFC18B16FF0010002B080BDDF
:10373000782001F0C7FF18B16FF0020002B080BD21
:10374000642003F08DFB18B16FF0030002B080BD60
:1037500001F048FA20B16FF0040002B080BD00BF54
:1037600001F086FF01F03CFC20B16FF0050002B0D3
:1037700080BD00BF40F2731001F0E4F820B16FF09B
:10378000060002B080BD00BF642001F081FB18B1CB
:103790006FF0070002B080BD03F08AFF20B16FF028
:1037A000080002B080BD00BF012003F065FA0028C8
:1037B00018BF6FF0090002B080BD000084B000BFE8
:1037C000FFF7A4FF04464FF47A7003F099FC002C35
:1037D000F6D140F22C1BC2F2000B0BF104090BF1E5
:1037E000080A0FF2500802E0C82003F089FC58468E
:1037F00049465246FFF7B8FE0028F5D1DBE900073D
:10380000DBF80850FCF7D3FD064638460C46FCF7BB
:10381000CEFD41EC180B2846FCF7C9FD41EC100B1E
:103820004046324623468DED008B8DED020B04F0B1
:10383000DFFBD9E77069746368203D20252E32666E
:103840002C20726F6C6C203D20252E32662C207946
:103850006177203D20252E32660D0A0070B596B0A6
:103860001C480DF1400E0F901AA000F1040C9CE8CA
:103870001E1080698EE81E1015900FA8002103F01D
:103880004DFC40F24806C2F200061949306018A00B
:10389000051D08913ECD80690DF1240C8CE83E0099
:1038A0000E9008A8002103F039FC1849706017A099
:1038B000051D01912ECDD0E905400DF1080C8CE8D5
:1038C0002E00CDE9064001A8002103F027FCB060DE
:1038D00016B070BDD0A80008BD3700080000000079
:1038E0000000000080000000000000000000000058
:1038F000BEA800088D0D00080000000000000000B8
:10390000800000000000000000000000C7A80008C0
:10391000E1440008FFFF00000000000080000000FC
:103920000000000000000000F0B587B0002543F65D
:10393000300006950195C4F20200016840F60004CB
:1039400041F0040101600168C4F2020401F00401C5
:103950000191019901950168012241F02001016066
:1039600001684FF4005601F0200101910199019581
:103970000168012741F080010160016801F08001C8
:10398000019101990195016841F00101016001680F
:1039900001F00101019101990195016841F00201D5
:1039A000016000684FF4005100F00200019001989E
:1039B0002046FDF711FB02A92046CDE90267CDE9BB
:1039C0000455FDF735FA07B0F0BD000080B540F2B0
:1039D0006C1045F20041C2F20000C4F2000141F651
:1039E000802200234FF4804CC0F2060280E80E00D3
:1039F000C0E9033CC0E90533C0E90733FDF7F8FA35
:103A0000002808BF80BDBDE88040FDF7F7B9000081
:103A100080B540F2C01045F60001C2F20000C4F2C9
:103A2000000141F6802200234FF4804CC0F20602D0
:103A300080E80E00C0E9033CC0E90533C0E9073364
:103A4000FDF7D6FA002808BF80BDBDE88040FDF72D
:103A5000D5B9000080B540F2142045F60041C2F20D
:103A60000000C4F2000141F6802200234FF4804C94
:103A7000C0F2060280E80E00C0E9033CC0E905334D
:103A8000C0E90733FDF7B4FA002808BF80BDBDE8E0
:103A90008040FDF7B3B90000B0B58CB042F200052C
:103AA00040F2B020C4F200050021C2F20000A722BB
:103AB00044F61F63CDE90511CDE90311C0E90052B9
:103AC000C0E9021301618161FEF7D4FC002818BF30
:103AD000FDF794F940F2B020C2F20000FEF738FF83
:103AE000002818BFFDF78AF9602040F2B02400904A
:103AF0000020C2F20004CDE901000490694620468E
:103B00000022FEF713FE002818BFFDF777F92068A2
:103B1000A84201D00CB0B0BD002043F630010790A0
:103B2000C4F202010A6842F020020A60096801F04A
:103B30002001079107994FF4007107910221CDE907
:103B400008100A9009200B9005F5FA3007A9FDF737
:103B50006FF90CB0B0BD000080B540F2F82044F61B
:103B60000041C2F20000C4F2000100234FF00C0C2F
:103B70004FF4E13280E80E00C0E90333C0E905C329
:103B8000C361FEF723FF002808BF80BDBDE8804069
:103B9000FDF734B9FEE70000FEE700002DE9F04F25
:103BA00083B040F214244FF6FF76C2F200044FF4C3
:103BB000805902AF4FF040080DF10A054FF0000B9D
:103BC0000BF1B00000218DF804108DF8050020469F
:103BD000782101AA02230096FDF7C6FA4FF400707F
:103BE000ADF80600204678210DF10602022300966A
:103BF000FDF7BAFA204678213A460223ADF808903C
:103C00000096FDF7B1FA4FF0000A00BF2046782178
:103C10002A460223ADF80A800096FDF7A5FA0AF1BC
:103C200001004FFA80FABAF1FF3FEFDCBBF1070F5A
:103C30000BF1010BC4D303B0BDE8F08FB0B584B075
:103C400040F214244FF40D40C2F20004ADF80A0013
:103C50004FF6FF750DF10A022046782102230095E8
:103C6000FDF782FA4FF4A050ADF80C0003AA2046ED
:103C7000782102230095FDF777FA4FF42F40ADF835
:103C80000E000DF10E022046782102230095FDF76B
:103C90006BFA04B0B0BD00002DE9F04182B06420A1
:103CA000FDF7B2F840F214244FF42E40C2F20004A3
:103CB000ADF806004FF6FF750DF10602204678219B
:103CC00002230095FDF750FA4FF400780DF106023B
:103CD000204678210223ADF806800095FDF744FACE
:103CE0004FF48050ADF806000DF106022046782111
:103CF00002230095FDF738FA4FF480460DF10602D5
:103D0000204678210223ADF806600095FDF72CFAD5
:103D10004FF40140ADF806000DF10602204678216F
:103D200002230095FDF720FA4FF47F40ADF806001E
:103D30000DF106022046782102230095FDF714FAC2
:103D40004FF42140ADF806000DF10602204678211F
:103D500002230095FDF708FA4FF44840ADF806003D
:103D60000DF106022046782102230095FDF7FCF9AB
:103D70004FF426470DF10602204678210223ADF8C4
:103D800006700095FDF7F0F94FF42840ADF80600F5
:103D90000DF106022046782102230095FDF7E4F993
:103DA0004FF47C50ADF806000DF106022046782154
:103DB00002230095FDF7D8F94FF45340ADF8060003
:103DC0000DF106022046782102230095FDF7CCF97B
:103DD0000020ADF806000DF10602204678210223EE
:103DE0000095FDF7C1F94FF45540ADF806000DF10F
:103DF00006022046782102230095FDF7B5F94FF41D
:103E00000040ADF806000DF106022046782102239D
:103E10000095FDF7A9F94FF45940ADF806000DF1F2
:103E200006022046782102230095FDF79DF94FF404
:103E30007140ADF806000DF10602204678210223FC
:103E40000095FDF791F94FF45A40ADF806000DF1D9
:103E500006022046782102230095FDF785F94FF4EC
:103E60009050ADF806000DF106022046782102239D
:103E70000095FDF779F94FF45B40ADF806000DF1C0
:103E800006022046782102230095FDF76DF90DF119
:103E90000602204678210223ADF806600095FDF762
:103EA00063F94FF40050ADF806000DF1060220460C
:103EB000782102230095FDF757F90DF106022046FF
:103EC00078210223ADF806800095FDF74DF94FF4F7
:103ED0000D40ADF806000DF10602204678210223C0
:103EE0000095FDF741F94FF4A050ADF806000DF133
:103EF00006022046782102230095FDF735F94FF49C
:103F00002440ADF806000DF1060220467821022378
:103F10000095FDF729F90DF10602204678210223CC
:103F2000ADF806700095FDF71FF94FF42F40ADF87E
:103F300006000DF106022046782102230095FDF7C8
:103F400013F9FFF72BFE02B0BDE8F0812DE9F04F29
:103F500085B047B201EBD01427EAE7711027203A69
:103F600047EA111601F00E01A4F150004F1C102B6E
:103F7000D5B240F0418140F214280021C2F200087D
:103F80008DF812108DF813004FF6FF790DF1120223
:103F90004046782102234FF0000ACDF800900394A8
:103FA000FDF7E2F80DF112024046782102238DF868
:103FB00012A08DF81360CDF80090FDF7D5F80DF143
:103FC00012024046782102238DF812A08DF813705A
:103FD000CDF80090FDF7C8F849F2AE612801C0F6AF
:103FE0000001085C029701EB05170DF11205402452
:103FF0008DF81300404678212A4602238DF812409E
:10400000CDF80090FDF7B0F8787897F802A097F80F
:1040100003B001963E798DF81300404678212A4678
:1040200002238DF81240CDF80090FDF79DF8404630
:1040300078212A4602238DF812408DF813A0CDF87E
:104040000090FDF791F8404678212A4602238DF82A
:1040500012408DF813B0CDF80090FDF785F840467A
:1040600078212A4602238DF812408DF81360CDF88E
:104070000090FDF779F8787978218DF813004046A3
:104080002A4602238DF81240CDF80090FDF76CF817
:10409000B87978218DF8130040462A4602238DF81E
:1040A0001240CDF80090FDF75FF8F87978218DF88F
:1040B000130040462A4602238DF81240CDF80090A6
:1040C000FDF752F8039800254F388DF813000DF1D5
:1040D00012024046782102238DF81250CDF800904C
:1040E000FDF742F801980DF112028DF813004046D9
:1040F000782102238DF812500025CDF80090FDF7AD
:1041000033F802980DF112028DF813004046782121
:1041100002238DF81250CDF80090FDF725F8387A7B
:104120000DF112058DF81300404678212A4602232E
:104130008DF81240CDF80090FDF716F8787A7821C6
:104140008DF8130040462A4602238DF81240CDF820
:104150000090FDF709F8B87A78218DF813004046F1
:104160002A4602238DF81240CDF80090FCF7FCFFA0
:10417000F87A78218DF8130040462A4602238DF8FC
:104180001240CDF80090FCF7EFFF387B78218DF8D6
:10419000130040462A4602238DF81240CDF80090C5
:1041A000FCF7E2FF787B78218DF8130040462A4621
:1041B00002238DF81240CDF80090FCF7D5FFB87BB4
:1041C00078218DF8130040462A4602238DF81240CC
:1041D000CDF80090FCF7C8FFF87B8DF812408DF801
:1041E0001300404678212A460223CDF80090FCF7C0
:1041F000BBFF05B0BDE8F08F40F2142AC2F2000AFE
:1042000000248DF813004FF6FF780DF1120250468E
:10421000782102238DF81240CDF80080FCF7A4FF2E
:104220000DF112025046782102238DF812408DF8CC
:104230001360CDF80080FCF797FF0DF11202504695
:10424000782102238DF812408DF81370CDF800808C
:10425000FCF78AFF49F2864105EB4500C0F60001F4
:1042600001EB400711F810000DF1120B40268DF8FC
:104270001300504678215A4602238DF81260CDF87B
:104280000080FCF771FF7878BC78FD7897F804908F
:104290008DF81300504678215A4602238DF812609B
:1042A000CDF80080FCF760FF504678215A46022383
:1042B0008DF812608DF81340CDF80080FCF754FFA4
:1042C000504678215A4602238DF812608DF813501B
:1042D000CDF80080FCF748FF504678215A4602236B
:1042E0008DF812608DF81390CDF80080FCF73CFF3C
:1042F000787978218DF8130050465A4602238DF8BC
:104300001260CDF80080FCF72FFF05B0BDE8F08FFC
:104310002DE9F04F81B02DED028B88B0B5EE400A4B
:104320001C469146B0EE408A0E46F1EE10FA014668
:10433000059007DA31462D222346FFF707FEB1EE3E
:10434000488A09E0B5EE408AF1EE10FA04DD314604
:104350002B222346FFF7FAFDB9F1000F00F09980F8
:10436000B2EE040A28EE000ABDEEC00A10EE100AF2
:1043700006900598A9F1010708300090A9F1020004
:1043800065080290002042F2107B00214FF00008E7
:104390000791CDE9036401971DE000BF059F3146F9
:1043A00008FB05702E22C0B22346FFF7CFFD38462A
:1043B000019F08F1010808FB05004AF03001C0B276
:1043C000CAB231462346FFF7C1FD08F101085FFA82
:1043D00088F048455DD26FEA080101EB0902110639
:1043E00008D00299A1EB0801C9B2032904D2012126
:1043F0000CE000BF01211FE002F0FC0300240121BA
:104400000434E6B29E4201FB0BF1F9D1DDE903640D
:1044100012F0030210D0012A04D101EB81014900FE
:104420000AE000BF4FF47A734B43022A4FF0640254
:1044300008BF01FB02F31946069AB2FBF1F14CF6F4
:10444000CD42CCF6CC42A1FB0223DA08079B02EB5B
:104450008202A1EB420A33B9874204DDBAF1000FB0
:1044600006D001210791874298D00598A3E700BFA5
:104470000098314608FB05002022C0B22346FFF712
:1044800065FD0020079008F101085FFA88F04845B3
:10449000A1D308B0BDEC028B01B0BDE8F08F0000E5
:1044A0002DE9F04115461278002A08BFBDE8F081D9
:1044B00098460E4607460024F8B2F1B2D2B24346FF
:1044C000FFF744FD0837F8B201347828E0B288BF1E
:1044D00002362A5C88BF0027002AEDD1BDE8F081B2
:1044E00086B00020059046F25910C3F6772004905C
:1044F00043F66820039046F65010C6F274300290DE
:104500003A20019046F6527040F22C17C6F66C40E5
:1045100004ACC2F2000702AD6E46009001200121FA
:1045200022461023FFF7BCFF97ED020A212001214C
:1045300005221023FFF7ECFE012003212A46102359
:10454000FFF7AEFF97ED000A31200321052210236B
:10455000FFF7DEFE0120052132461023FFF7A0FF02
:1045600097ED010A2920052105221023FFF7D0FE2F
:104570000A2002F0C5FDD1E70000000000000000A5
:10458000EFF30980BFF36F8F154B1A681EF0100F01
:1045900008BF20ED108A20E9F04F10602DE90900D6
:1045A0004FF0500080F31188BFF34F8FBFF36F8F30
:1045B00003F0BEFA4FF0000080F31188BDE8090057
:1045C00019680868B0E8F04F1EF0100F08BFB0EC93
:1045D000108A80F30988BFF36F8F704700BF00BF58
:1045E0005400002000000000000000000000000057
:1045F000074B19680868B0E8F04F80F30988BFF3EB
:104600006F8F4FF0000080F31188704700BF00BF2C
:104610005400002080B54FF0500080F31188BFF3A4
:104620006F8FBFF34F8F03F0E9FB30B14EF60450AC
:10463000CEF200004FF080510160002080F311881D
:1046400080BD0000B0B592B0002443F64000CDE933
:104650000A44CDE908440594CDE90344CDE9014479
:104660000094C4F202000168022541F0805101600B
:10467000006800F080500090009847F2000000941D
:10468000C4F20000016841F4804101600068A82183
:1046900000F4804000900098012006904FF4803094
:1046A00007904FF480000D9004200E90119006A802
:1046B0000C95CDE90F15FDF71FFD28B1EFF3108024
:1046C00072B600BFFEE700BF0F20CDE901054FF431
:1046D000A05004904FF48050059001A80521039448
:1046E000FDF7DCFB20B1EFF3108072B6FEE700BFF0
:1046F00012B0B0BD4EF68850CEF20000016841F411
:10470000700101607047000040F26820C2F20000B2
:10471000FDF752BF10B540F6FF3E0368C4F2000E2D
:1047200040F2004C7045C4F2010C27DCB0F1804F20
:1047300031D040F20042C4F2000290422BD040F649
:104740000002C4F20002904225D041F6FF72C4F28A
:104750000002904229DC70453CDCB0F1804F5FD014
:1047600040F20042C4F20002904259D040F60002EA
:10477000C4F20002904253D056E000BF40F600421F
:10478000C4F20002904206D0604504D00022C4F278
:1047900001029042D9D14A6823F07003134341F6D5
:1047A000FF72C4F200029042D5DD43F6FF72C4F2FC
:1047B0000102904222DC42F20002C4F20002904266
:1047C0002ED00022C4F20102904229D0604527D0A9
:1047D0002AE000BF40F60042C4F2000290421FD01F
:1047E00041F60002C4F20002904219D041F60042A4
:1047F000C4F20002904213D016E000BF44F200025F
:10480000C4F2010290420BD044F60002C4F201024D
:10481000904205D044F20042C4F20102904203D11A
:10482000CA6823F44073134323F080024B69D1F824
:1048300000E08C681A430260C46240F48062C0F8F1
:1048400028E0624504BF096901630121416110BD8F
:1048500010B504460068D4E902C22369016921F455
:10486000405111430161626943EA0C01E36911435C
:10487000C268194349F20C639A431143C16041690C
:10488000A26921F4407141F20043114340F4806277
:10489000C4F201039A42416102D1FDF7E3FB01E05A
:1048A000FDF7CCFBE16963681922B1F5004FA0FB6D
:1048B000020123D15A00DB0FFBF782FC48F21F51A3
:1048C000C5F2EB11A0FB01235A094FF69C73C0F609
:1048D000FF7303F1805302FB0300322303EBC0009C
:1048E000A0FB01014FF4F87000EA111000EB021078
:1048F000C1F3421108442168886010BD9A009B0FE3
:10490000FBF75EFC48F21F51C5F2EB11A0FB01233F
:104910005A094FF69C73C0F6FF7302FB0300322363
:1049200003EB0010A0FB0101F02000EA511000EBA6
:104930000210C1F3431108442168886010BD0000D3
:10494000FEE700002DE9F04186B004464CF6022057
:10495000C0F6E3100DF10205CDF802006820042135
:104960002A4602F08BFBA3206FF03F018DF8020076
:1049700014F0400608BF6FF05C016FF037026FF073
:104980003D0308BF6FF05C0208BF6FF05C038DF859
:1049900003106FF03B018DF804208DF8053014F4FE
:1049A000C07708BF6FF05C016FF033026FF039031E
:1049B00008BF6FF05C0208BF6FF05C038DF8061053
:1049C0004AF2A3318DF80720ADF809108DF80B00DD
:1049D00040F6A7200A212A468DF8083002F04EFB47
:1049E000202014F0030808BF6FF027008DF80200A4
:1049F00040F6B62001212A4602F040FBA0060BD467
:104A0000C720059048F6B000CCF2C35004904AF697
:104A1000B820CAF6AA200AE05D20059049F6B40045
:104A2000C3F20D5004904AF6B820C8F6B350039074
:104A300003AA4FF49760092102F020FB2FB36FF017
:104A40004D016FF0740214F4807008BF6FF04F01D5
:104A500008BF6FF07F026FF049036FF0640508BF75
:104A60006FF04B03002808BF6FF06F058DF8021040
:104A70008DF803200DF1020240F6A22004218DF8EA
:104A800004308DF8055002F0F9FAE00708D1D8207B
:104A90008DF802000DF102024FF40B60012150E08D
:104AA000F8208DF802000DF102024FF40B60012195
:104AB00002F0E4FA0720FA2100F006FB3F208DF80F
:104AC0000C0003AA4FF4A470012102F0D7FA0020D1
:104AD0008DF80C0003AA40F24F10012102F0CEFA2B
:104AE0004FF4A050ADF80C0003AA4FF4EF70022170
:104AF00002F0C4FA4FF4C840ADF80C0003AA4FF41A
:104B0000ED70022102F0BAFA48F60060C9F2F9002D
:104B1000039003AA4FF4AE70042102F0AFFA4FF4F1
:104B20000060ADF80C0003AA4FF4AD70022102F052
:104B3000A5FA4FF40070ADF80C0003AA4FF4AC7066
:104B4000022102F09BFAA0076FF0260058BF6FF019
:104B500027008DF802000DF1020240F23D700121A4
:104B600002F08CFA600752BF4FF08B304CF2C0203D
:104B7000CCF2C460039003AA40F69820042102F00E
:104B80007DFA01F001FAE00652BF4FF0A33042F681
:104B90002000C3F63000039003AA40F69E200421B3
:104BA00002F06CFA01F0F0F940F2F40544F008006C
:104BB000C2F20005A88001F0E7F9002E18BF062612
:104BC000002F18BF063614F0140F18BF46F0100659
:104BD000B8F1000F18BF043600202E7006B0BDE8F3
:104BE000F081000049F69E41C0F6000140F6F63023
:104BF0004FF48062C82300F033BF00002DE9F04F6E
:104C000089B01446DDE912A20F46002140F2F409F2
:104C1000AAF80010C2F2000999F800100DF1040B77
:104C20008046084659461E4601F034F920B14FF03F
:104C3000FF3009B0BDE8F08FB9F804C01CF0140FC4
:104C400050D09DF80520B6469DF80410BDF80660CA
:104C500012049DF8095042EA016132BA9DF8083009
:104C600041EA1242BDF80A6022602A0442EA036265
:104C700033BA42EA134363609DF80D309DF80C602F
:104C8000BDF80E501B0443EA06632EBA43EA1646EB
:104C9000A6609DF811609DF8105011FB31F13604AB
:104CA00012FB321146EA056613FB3311BDF8120000
:104CB00016FB36116FF0885211444FF6FE7200BA9F
:104CC000CFF6FF5246EA10409142E06072D801F000
:104CD0005BF90020AAF800004FF0FF3009B0BDE8F2
:104CE000F08F00BF00215FEA4C6026D541F0010241
:104CF0001BF801001BF8022041F0030342EA0020E8
:104D000041F002021BF802201BF80330388043EA0E
:104D1000022041F0040241F005031BF802201BF8B9
:104D20000330788043EA0220B880BAF8000041F0EE
:104D3000060140F00800AAF800001CF4C07F18D05B
:104D40003BF801000BEB010200BA5388000CA8F8F5
:104D5000000018BA9288000CA8F8020010BA000CE3
:104D6000A8F80400BAF80000063140F07000AAF874
:104D700000005FEA8C7016D00BEB01056878EC78C8
:104D8000C10709D0D9F8082032B104F00700411C4E
:104D9000C4F3C20090476878000704D5D9F80C1016
:104DA00009B1A0098847FCF71DF93060002009B05F
:104DB000BDE8F08FBAF80000102140F4807076460C
:104DC000AAF800005FEA4C6090D4B6E710B584B052
:104DD00004460DF1020000F0FDFC40F26411BDF844
:104DE00002C000BFC2F20001098801F003024B07B4
:104DF00054F822204FF00C0348BF524203EA5103FB
:104E00008806E358C1F3811048BF5B4254F8200084
:104E1000C90548BF40424FEACC3181FB02C481FB47
:104E200003E281FB00014FEA9C73800F43EA840C8C
:104E30004FEA9E7340EA810EA00D8DF80400A00B8E
:104E40008DF80500A0098DF80600900D8DF808007A
:104E5000900B8DF8090090098DF80A00880D8DF8E7
:104E60000C00880B8DF80D00880943EA82038DF849
:104E70000E0001AA4FF425700C218DF807C08DF8A3
:104E80000B308DF80FE002F0F9F804B010BD00000F
:104E900010B586B004464AF6BB70CDF6DF700590BB
:104EA0004FF2AA10CDF6DF7004904FF2FE20CCF244
:104EB000AB40C82C039017D8E0B2C821B1FBF0F08A
:104EC000002101388DF804108DF8050001AA40F288
:104ED0001620022102F0D2F830B903AA40F6C12010
:104EE0000C2102F0CBF818B14FF0FF3006B010BD26
:104EF00040F26810C2F200000480002006B010BD2D
:104F0000F0B581B040F26411C2F200010E880C23AA
:104F100006F003014EF2093450F8211003EA56035B
:104F2000C0F2CA24720748BF4942C758C6F381136A
:104F300081FB041250F82350F0054FEA91704FEABC
:104F4000925148BF6D428DF80010910B40EA8200EB
:104F50008DF8011091098DF802108DF803006A4652
:104F60004FF47470042102F089F8E0B9B00648BF2C
:104F70007F42A7FB0401FA1702FB0411800F8A0D80
:104F800040EA81008DF800208A0B89098DF8012004
:104F90008DF802108DF803006A464FF475700421F5
:104FA00002F06CF820B14FF0FF3001B0F0BD00BF4F
:104FB00085FB0401800F40EA8100010E8DF800108E
:104FC000010C8DF80110010A8DF802108DF8030014
:104FD0006A464FF47670042102F050F801B0F0BD3B
:104FE000B0B582B0054649F26B41C0F60001C5F389
:104FF000C10300F00300CC5C0A5C8DF8054049F267
:1050000068448DF80420C5F38112C0F60004895C61
:10501000205C8DF806108DF80000E05CA15C8DF836
:1050200001008DF8021001AA40F22640032102F08F
:1050300025F850BB6A4640F22A40032102F01EF8D0
:1050400018BB45F23660C0F27600019044F226604B
:10505000C0F26600690700901CD4A80622D4E805B7
:1050600005D577208DF8060067208DF8020001AA8B
:105070004FF48860032102F001F830B96A4640F22B
:105080003140032101F0FAFFB0B14FF0FF3002B020
:10509000B0BD00BF37208DF8040027208DF8000038
:1050A000A806DCD557208DF8050047208DF80100B3
:1050B000E805D6D4DBE700BF40F26410C2F200007E
:1050C0000580002002B0B0BDB0B582B00446B1F595
:1050D000C86F4FF0FF3045D80D4614F0070141D09E
:1050E0000DF1030000F058FB9DF8030002384FEA71
:1050F0007000072867D8C1B28B2222FA01F1C907D4
:1051000061D000EE105A9FED321AB8EE400A80EEE0
:10511000010A30A101EB800191ED001A35A101EBEC
:10512000800090ED002A20EE011A20EE020ABDEE6A
:10513000C00A10EE100ABDEEC10A10EE101A0A0ADB
:105140008DF804208DF80510010A01AA951C8DF830
:105150000610E1078DF8070006D1A00714D46007F8
:1051600022D4002002B0B0BD01AA4FF4EA7002219F
:1051700001F084FF38BB4FF4927002212A4601F0FF
:105180007DFF00BBE9E700BF01AA4FF4EC700221EC
:1051900001F074FFB8B94FF4947002212A4601F06F
:1051A0006DFF80B9DBE700BF01AA4FF4EE7002216A
:1051B00001F064FF38B94FF4967002212A4601F0DD
:1051C0005DFF0028CDD04FF0FF3002B0B0BD00BF72
:1051D0000000484300008046000000460000804672
:1051E00000008045000080460000804600008046A8
:1051F00000000045000040460000C0450000404659
:105200000000404500004046000040460000404687
:105210000000C04480B582B0019040F2F820C2F294
:10522000000001A901224FF0FF33FDF733FC019884
:1052300002B080BD2DE9F04F89B040F21407C2F2F0
:10524000000780460125D7E90030ADF8185089469F
:1052500001785B7D02200DF1180BCDE900B040F222
:105260006C1016460F24C2F200001A460123029465
:10527000FCF76EFB002840F03081C82001F040FFB1
:1052800000208DF81800D7E9002001230178527C16
:1052900040F26C10C2F20000CDE90154CDF800B02C
:1052A000FCF756FB002840F01881D7E900200F24B6
:1052B0000178527940F26C100125C2F200000123FE
:1052C000CDE900B50294FCF743FB002840F00581CE
:1052D000D7E9002001230178527D40F26C10C2F220
:1052E0000000CDE90154CDF800B0FCF731FB0028F7
:1052F00040F0F380D7E900200F240178927E40F23D
:105300006C100125C2F200000123CDE900B5029422
:10531000FCF71EFB002840F0E080D7E900200123C5
:105320000178127940F26C10C2F20000CDE901540C
:10533000CDF800B0FCF70CFB002840F0CE800C202C
:105340008DF81800D7E900200F240178127940F277
:105350006C100125C2F200000123CDE900B50294D2
:10536000FCF7F6FA002840F0B8800F2001F0C8FEE4
:10537000B86A3A68407A79688DF8180009789278A6
:1053800040F26C10C2F200000123CDE90154CDF8C7
:1053900000B0FCF7DDFA002840F09F80B86A3A6858
:1053A000007A79688DF818000978527840F26C100C
:1053B0000F240125C2F200000123CDE900B50294BB
:1053C000FCF7C6FA002840F08880B96AD7E90002E5
:1053D000897A002E18BF41F0E0018DF8181011787D
:1053E000827940F26C10C2F200000123CDE9015431
:1053F000CDF800B0FCF7ACFA00286ED126B1B86A3F
:10540000C07A60F01F0000E018208DF81800D7E97E
:105410000020012301780F20D279CDE9013040F23C
:105420006C10C2F200000123CDF800B0FCF790FA36
:10543000002852D116B1C82001F062FE40208DF83C
:105440001800D7E900200F240178127940F26C107F
:105450000125C2F200000123CDE900B50294FCF75A
:1054600077FAD0BB78208DF81800D7E90020012307
:105470000178527940F26C10C2F20000CDE901547B
:10548000CDF800B0FCF764FA38BB322001F038FEEA
:1054900000208DF81800D7E900200F2401780120A2
:1054A0005279CDE900B040F26C10C2F20000012345
:1054B0000294FCF74DFA80B9D7E900200123017866
:1054C0000220127BCDE9010440F26C10C2F2000010
:1054D000CDF800B0FCF784F830B14FF0FF37384614
:1054E00009B0BDE8F08F00BFBDF818004AF6AB2147
:1054F00000BA000C4843C0F3C7420021002AC8E9A3
:105500000011C8F80810C9E900110492C9F8081080
:1055100048D0C00C0026C0B20590D7E90020012376
:1055200001780C20527B019040F26C10C2F2000016
:105530000F25CDF800B00295FCF752F80028CCD129
:10554000BDF81800BDF81A10BDF81C2099E8380005
:1055500000BA09BA12BA03EB204004EB214105EB73
:105560002242C9E90001C9F80820BDF82220BDF88F
:105570002010D8F80840BDF81E0012BAD8E900354E
:1055800009BA04EB22440136059A00BA05EB214A18
:10559000F1B203EB20409142C8E9000AC8F8084084
:1055A000BBD303E0D8E9000AD8F80840C1170904C2
:1055B00041EA10410004832200230027FAF731FE5C
:1055C000049E00233246FAF72CFEC8F800004FEA8A
:1055D000EA70000440EA1A414FEA0A40832200239D
:1055E000FAF71FFE32460023FAF71BFEC8F8040044
:1055F000E017000440EA1441200483220023FAF754
:1056000010FE32460023FAF70CFEC8F80800D9E96C
:105610000005D9F80840C117490141EAD0614001AD
:1056200032460023FAF7FDFDC9F80000E8174001F3
:1056300040EAD561680132460023FAF7F2FDC9F865
:105640000400E017400140EAD461600132460023C3
:10565000FAF7E7FD4FF480310028C4BF0021CFF6F0
:10566000FF710844C9F80800384609B0BDE8F08F5A
:10567000AC207047FCF726FBFEF7E4FFFEF754F979
:10568000FEF76AFAFEF708FAFEF7A0F9FEF7C0F98E
:10569000FEF7E0F9FBF744FAFEF7FEFAFEF7CEFA62
:1056A000FEF77CFA40F60000C4F202004FF400510D
:1056B0000022FBF791FCFEF7D1F801F029FD00BFB5
:1056C000FEE70000F0B585B040F21405C2F2000517
:1056D00095F8241021B10024204605B0F0BD00BF8C
:1056E000A97AA9B300F0FE0739402E7CCC1B287D97
:1056F00018BF4FF0FF34002F297408BF00282DD0A9
:10570000687CC8B90120D5E900218DF812000DF19F
:1057100012030978527CCDE9003040F26C104FF052
:105720000F0CC2F200000123CDF808C0FCF710F9FD
:1057300010B99DF812006874002FCDD000F024FC41
:1057400000281CBF2E744FF0FF34204605B0F0BD7A
:105750004FF0FF34204605B0F0BD00BF00208DF8AB
:105760001300D5E900200DF1130301780120527CCC
:10577000CDE9003040F26C100F27C2F20000012387
:105780000297FCF7E5F80028A6D19DF8130068748D
:10579000204605B0F0BD000040F21401C2F2000145
:1057A0004A7A032A84BF4FF0FF30704740F2024329
:1057B000D200C1F20803D3400370C97C002904BFA2
:1057C0000020704740F60401C2F21001D140017080
:1057D0000020704740F21402C2F20002517A0329FD
:1057E00084BF4FF0FF30704707A3D27C33F81130ED
:1057F000002A038004BF0020704705A232F8111070
:1058000001800020704700BF00409C1F001000086E
:105810000020CE0F0008000440F21401C2F2000183
:10582000097A032984BF4FF0FF30704702A252F873
:1058300021100160002070470000034300008342F4
:105840003333034233338341F0B585B040F214045F
:105850008020C2F200048DF80D00D4E900200F264C
:105860000178527D40F26C1001270DF10D05C2F256
:1058700000000123CDE900570296FCF769F828BB28
:10588000642001F03DFC00208DF80D00D4E90020DB
:1058900001230178527D40F26C10C2F20000CDE984
:1058A00001760095FCF754F880B9D4E9002006236E
:1058B00001780F20527ECDE9013040F26C10C2F227
:1058C000000001230095FBF78BFE28B14FF0FF3459
:1058D000204605B0F0BD00BF9DF812209DF80E00D7
:1058E0009DF81010042303EA820261F3410200F0E4
:1058F0000100111806D0012935D0022928D1002035
:1059000032E000BFD4E900200F2701780120D278CF
:10591000CDE9005040F26C10C2F200000123029762
:10592000FBF75EFE0028D1D19DF80D0000F00F00BE
:10593000042815D00028E2D14AF6DC00C0F60000A9
:1059400003F0CEFC4FF0FF34204605B0F0BD00BFA1
:1059500031A002F04DFB4FF0FF34204605B0F0BD02
:1059600037A003F0BDFC0120E0744FF6FF7000216A
:10597000E081FF20C4E90511E1612184C4F823100E
:1059800084F8271018212074A0744FF0FF308DF890
:105990001310D4E90021A06001200DF1130320733E
:1059A0000978927984F82200CDE9003040F26C1039
:1059B0000F27C2F2000001230297FBF7C9FF00285E
:1059C0007FF484AF9DF81300C0082072022001F01C
:1059D0005FF800287FF47AAF2A2001F0E9F9002867
:1059E0007FF474AF322001F03BFA00287FF46EAFF1
:1059F0000020FFF767FE00287FF468AF002001F069
:105A00009FF800287FF462AF0020002401F0A6FA7E
:105A1000204605B0F0BD00BF556E737570706F7293
:105A200074656420736F6674776172652070726F3D
:105A300064756374207265762025642E0A00000068
:105A400048616C662073656E7369746976697479F0
:105A5000207061727420666F756E642E0000000005
:105A60002DE9F04F8DB0064600294FF0FF3000F0D1
:105A7000BF8040F21408C2F200080C4698F82510C6
:105A8000002940F0B580002ECDE9033200F08D8072
:105A90004FF00009CDE905461FFA89FBA6EB0B0A7A
:105AA00098F80A00BAF1100FA8BF4FF0100A0028AA
:105AB00000F09380D8F804001FFA8AF2418952FA64
:105AC00089F68E4299FA89F14FEA11410792ADF8B1
:105AD000321000F28280D8F8002001780DF13200F7
