:020000040800F2
:10000000C00500209D010008F1320008A925000864
:100010006D3200088D0D0008F13500080000000069
:10002000000000000000000000000000F93200089D
:10003000910D000800000000F5320008FD320008B4
:10004000B7010008B7010008B7010008B7010008B0
:10005000B7010008B7010008B7010008B7010008A0
:10006000B7010008B7010008B7010008B701000890
:10007000B7010008B7010008B7010008B701000880
:10008000B7010008B7010008B7010008B701000870
:10009000B7010008B7010008B7010008B701000860
:1000A000B7010008B7010008B7010008B701000850
:1000B000B7010008B7010008B7010008B701000840
:1000C000B7010008B7010008B7010008B701000830
:1000D000B7010008B7010008B7010008B701000820
:1000E000B7010008B7010008B7010008B701000810
:1000F000B7010008B7010008B7010008B701000800
:10010000B7010008B7010008B7010008B7010008EF
:10011000B7010008B7010008B7010008B7010008DF
:10012000B7010008B7010008B7010008B7010008CF
:10013000B7010008B7010008B7010008B7010008BF
:10014000B7010008B7010008B7010008B7010008AF
:10015000B7010008B7010008B7010008B70100089F
:10016000B7010008B7010008B7010008B70100088F
:10017000B7010008B7010008B7010008000000003F
:10018000B7010008B7010008DFF80CD000F066FBEB
:100190000048004725430008C00500200648804766
:1001A00006480047FEE7FEE7FEE7FEE7FEE7FEE75C
:1001B000FEE7FEE7FEE7FEE7B1330008890100082D
:1001C0002DE9F05F0546002092469B46884606468C
:1001D000814640241BE0284641464746224600F01F
:1001E0003AF953465A46C01A914110D3114618465F
:1001F000224600F021F92D1A67EB01084F462246EE
:100200000120002100F018F917EB00094E41201ED3
:10021000A4F10104DFDC484631462A464346BDE8E6
:10022000F09F2DE9F0410024061B254671F10006E0
:1002300005DA01240027D0EB070067EB0101161E49
:1002400073F1000605DA0027D2EB0702012567EB00
:100250000303FFF7B5FF86460E4617469C46AC42A1
:1002600004D00025D0EB050E65EB010624B100207B
:10027000D2EB000760EB030C704631463A4663460A
:10028000BDE8F08130B504460020034600E05B1C69
:10029000934203D2E05CCD5C401BF8D030BD2DE929
:1002A000FE4F81EA030404F0004421F00041009471
:1002B0004FF0000B23F0004350EA01045ED052EAF5
:1002C00003045BD0C3F30A54C1F30A552C44A4F2CF
:1002D000F3340194A0FB0254C1F3130141F48011E3
:1002E000C3F3130343F4801301FB024400FB034EEA
:1002F000840A970A44EA815447EA8357A4FB0768B3
:1003000002958D0A05FB07854FEA932C04FB0C54DC
:100310002705029D4FEA065847EA1637B5EB080550
:100320006EEB070C870E920E47EA811742EA8312A2
:10033000A7FB0201B6EB0B0164EB00042B0D43EAB3
:100340000C335E1844EB1C50DA465146E7FB0201C1
:10035000C5F313044FEA0B3343EA14534FEA043254
:10036000019C43EA0603A4F10C040294009CCDE92D
:1003700000B400F0C6F803B0BDE8F08F00200146DD
:10038000F9E7F0B4CA17CB0F50405140C61841F1FD
:1003900000054FEAC372314628004FF0960303D0A0
:1003A000B623F0BC00F070B830460021F9E700F049
:1003B000004230F000400AD0C10D01F56071C0F379
:1003C000160042EA0151C20840071143704700205D
:1003D0000146704701F0004330B421F0004150EA7B
:1003E000010206D00A0DA2F56072C1F31301002AC2
:1003F00002DC30BC00207047440F44EAC104C10055
:10040000E01830BC00EBC25000F035B830B50B46F8
:10041000014600202022012409E021FA02F59D4234
:1004200005D303FA02F5491B04FA02F52844151E08
:10043000A2F10102F1DC30BD202A04DB203A00FAEF
:1004400002F1002070479140C2F1200320FA03F32B
:10045000194390407047202A04DB203A21FA02F029
:100460000021704721FA02F3D040C2F120029140EE
:100470000843194670470029A8BF7047401C49002F
:1004800008BF20F00100704710B4B0FA80FC00FAF9
:100490000CF050EA010404BF10BC704749B1CCF124
:1004A000200421FA04F411FA0CF118BF01212143B0
:1004B0000843A3EB0C01CB1D4FEA00614FEA10206B
:1004C00042BF002010BC704700EBC350104400290D
:1004D000A4BF10BC7047401C490008BF20F00100B9
:1004E00010BC704710B5141E73F1000408DA401CEC
:1004F00041F1000192185B411A4301D120F0010043
:1005000010BD2DE9F04D92469B4611B1B1FA81F232
:1005100002E0B0FA80F220329046FFF78DFF0446E9
:100520000F4640EA0A0041EA0B0153465A46084387
:1005300013D0114653EA010019D0C8F140025046C9
:10054000FFF789FF05460E46504659464246FFF7DB
:1005500073FF084305D0012004E020463946BDE87A
:10056000F08D0020054346EAE0762C4337430A9895
:100570006305E40AA0EB08000022FD0A44EA4754A0
:100580000A3002D500200146E9E70105101969414A
:10059000DDE9084500196941BDE8F04DA2E72DE904
:1005A000FE4F804681EA0300C00F0C46009021F008
:1005B000004123F00045B8EB0200A94105D24046B6
:1005C000214690461C460B46024623F0004010434D
:1005D00047D0270DC7F30A00C3F30A510290401A0F
:1005E000019040286BDAC3F3130040F4801B00989D
:1005F000924620B10023D2EB030A63EB0B0B019868
:100600005946C0F140025046FFF716FF06460D4618
:1006100050465946019A00F033F910EB0800614149
:10062000002487EA115284EAE7731A4340D0009A03
:1006300062B3019A012A4FEA075215DC001B61EBF5
:1006400002014FF0004202EA0752CDE90042001CCD
:1006500041F5801132462B46FFF753FF03B0BDE84A
:10066000F08F40462146F9E7001B61EB0201001CB8
:1006700041F5801300185B412018A2F5001747EBE5
:10068000030140EAD570B6196D4111E06D084FEADB
:10069000360645EAC0754FEA0752001B61EB0201BE
:1006A000001C41F5801149084FEA30000019514102
:1006B00032462B4603B0BDE8F04FFFF713BF00985A
:1006C000012240000023D0EB020263EBE0730098AC
:1006D00021464FEAE074B8EB000061EB0401E9E762
:1006E00083F000435BE781F0004158E72DE9F04DCE
:1006F00081EA030404F0004B21F0004514464FF05A
:10070000000A23F0004150EA050220D054EA010219
:100710001DD0C5F30A570246C5F31303C1F31300F6
:10072000C1F30A5640F4801543F48013A7EB060882
:10073000101BD64608F2FD3873EB050002D308F112
:10074000010801E092185B41B8F1000F03DA0020C4
:100750000146BDE8F08D00204FF480110646844626
:100760000EE0171B73EB050705D3121B63EB0503A4
:1007700006434CEA010C49084FEA300092185B41ED
:1007800050EA0107EDD152EA030012D082EA0400D8
:1007900083EA0501084305D0101BAB4106D20122B4
:1007A000002306E000224FF0004302E06FF0010258
:1007B00053101AEB06004CEB085110EB0A0041EB0A
:1007C0000B01BDE8F04DFFF78DBEC1F30A52C1F336
:1007D000130140F2FF3341F480119A4202DA002003
:1007E0000146704740F233439A42A2F2334202DCA0
:1007F0005242FFF730BEFFF71FBE000030B5041EA7
:1008000071F1000404DB4FF00044404264EB01014D
:10081000141E73F1000405DB1C464FF000435242E6
:1008200063EB04038B4208BF824230BD30B5041E27
:1008300071F1000404DB4FF00044404264EB01011D
:10084000141E73F1000405DB1C464FF000435242B6
:1008500063EB0403994208BF904230BD064C074D3C
:1008600006E0E06840F0010394E807009847103480
:10087000AC42F6D3FFF78CFC44800008648000088B
:10088000202A06DBCB17203A41FA02F043EAE07354
:1008900006E041FA02F3D040C2F120029140084341
:1008A000194670472DE9F04D00231A461B1A8A415C
:1008B00003DB00200146BDE8F08DC1F30A52C1F30D
:1008C000130141F480154FF0000BD10702D100183D
:1008D0006D41521E0027044640F2FF11384601EBDD
:1008E000620A3E468046024600204FF48011FFF720
:1008F000B2FDC2197141BB1846EB0100B4EB030C09
:1009000075EB000C04D3E41A65EB000517460E46A0
:10091000241908F101006D4180463428E3DDF919FE
:1009200046EB0600091BA84103D24FF0FF321346E5
:1009300001E0002213461BEB070046EB0A51BDE81D
:10094000F04DFFF7CFBD00002DE9F04381B040F23C
:100950005808C2F20008D8F81800B8F80010C21001
:10096000C1EB2010B8F904604043B8F90230000B25
:10097000A2EB410270435A43801300EBE226B8F920
:100980000A50A6F5FA3E8EFB0E3CA3FB0520EF179E
:1009900003FB0700B8F908100CFB0500120A81FBE5
:1009A0000E1742EA0062B8F8065012EB0132A2FBC1
:1009B00005244FEA073242EA115141EB202000F5AD
:1009C000004000FB0545C8F820606A1042EAE57067
:1009D00000286FD0B8F91010B8F90E00A3FB0196EB
:1009E000CC1703FB04638EFB0007D8F81C600CFBDC
:1009F00001317F0447EAD03719EB4040C6F5801338
:100A00007941B8F90C7003F00046D0EBC37040F6A2
:100A1000354C46EA530301EBC701A0FB0C0463EB22
:100A2000010101FB0C41B8F91290EB17FFF7F9FB3C
:100A3000420B42EAC142A2FB02374D13B8F91660DD
:100A400002FB0577A3FB06C402FB0572F71703FB45
:100A500007434FEA5C6402FB0632B8F914304FEAF0
:100A6000626EA0FB0376DD1700FB056644EAC21246
:100A700001FB0363FF0C47EA4337801841EB0E018B
:100A8000C01941EBE341000A0A1240EA01604FEA53
:100A9000E971090141EA197110EB09105141FFF7A1
:100AA00070FC9FED080A01EE100A21EE000A01B069
:100AB000BDE8F0839FED020A01B0BDE8F08300BFFE
:100AC000000000000000803B80B540F2580CC2F2EC
:100AD000000CDCF81810BCF80020CB10C2EB211180
:100AE000BCF904E04943BCF90200090BA3EB420343
:100AF00001FB0EF15843891301EBE02000EB80016C
:100B00008031091200EE101A9FED041AB8EEC00AE7
:100B100080EE010ACCF8200080BD00BF0000C84272
:100B200070B584B0B62040F2D8048DF80F000126CD
:100B30000DF10F00C2F200044FF0FF35CDE90006C1
:100B40002046EC21E0220123029500F091FCC82010
:100B500000F026F955208DF80E0010208DF80D00BC
:100B60000DF10E00CDE900062046EC21F422012310
:100B7000029500F07DFC0DF10D00CDE90006204648
:100B8000EC21F5220123029500F072FC00F04EF8F2
:100B900004B070BD80B584B055208DF80F000120E1
:100BA0000DF10F01CDE9001040F2D8004FF0FF3CED
:100BB000C2F20000EC21F4220123CDF808C000F0BD
:100BC00057FC04B080BD000080B586B006200DF152
:100BD0001201CDE9001040F2D8004FF0FF3CC2F204
:100BE0000000EC21F7220123CDF808C000F088FABC
:100BF0009DF813109DF8120009019DF8142041EA98
:100C000000309DF816109DF8153040EA12100901C9
:100C10009DF8172041EA033140F25803C2F2000365
:100C200041EA1211C3E9061006B080BD2DE9F0417A
:100C300084B040F2D804C2F200044FF0FF3802261C
:100C40000DF10E072046EC2188220123CDE9007624
:100C5000CDF8088000F054FABDF80E0040F25805B7
:100C6000C2F2000528802046EC218A220123CDE92A
:100C70000076CDF8088000F043FABDF80E00EC21B4
:100C8000688020468C220123CDE90076CDF80880CB
:100C900000F036FABDF80E00EC21A88020468E2226
:100CA0000123CDE90076CDF8088000F029FABDF8DF
:100CB0000E00EC21E880204690220123CDE9007649
:100CC000CDF8088000F01CFABDF80E00EC21288158
:100CD000204692220123CDE90076CDF8088000F06D
:100CE0000FFABDF80E00EC21688120469422012302
:100CF000CDE90076CDF8088000F002FABDF80E00CC
:100D0000EC21A881204696220123CDE90076CDF87A
:100D1000088000F0F5F9BDF80E00EC21E8812046CE
:100D200098220123CDE90076CDF8088000F0E8F99B
:100D3000BDF80E00EC21288220469A220123CDE93D
:100D40000076CDF8088000F0DBF9BDF80E00EC214C
:100D5000688220469C220123CDE90076CDF80880E8
:100D600000F0CEF9BDF80E00EC21A88220469E22AC
:100D70000123CDE90076CDF8088000F0C1F9BDF877
:100D80000E00E88204B0BDE8F0810000FEE700003C
:100D900070470000EFF3108072B600BFFEE700005E
:100DA000B0B5044600F0EAF8054640F20800C2F289
:100DB00000000078611C18BF044400BF00F0DEF89A
:100DC000401BA042FAD3B0BD2DE9F04F82B000F134
:100DD0003E4241F6004502F1FF77C4F202050822C7
:100DE00043F6004E4FEAB726A84208BF0722C4F2D6
:100DF000010E072E38BF4FEAB72201250026002733
:100E00004FF00008009208E008F101080437B8F13B
:100E1000100F06F1020600F0A7800C6805FA08F929
:100E200014EA090FF0D0D1F804B003220BF0030C40
:100E3000ACF10104B240012C6FEA020A10D88268BA
:100E4000CC6802EA0A02B440224382604268CBF3D3
:100E5000001422EA090204FA08F42243426005E081
:100E6000BCF1030F02D14FF0030C20E0C2688C6884
:100E700002EA0A02B4402243BCF1020FC26016D15A
:100E80006FF0030202EA58020244D2F820C007F0D1
:100E90001C050F230C69AB402CEA030304FA05F58B
:100EA0002B431362D1F804B001250BF0030C026848
:100EB0000CFA06F302EA0A021A431BF4403F0260EE
:100EC000A2D0002243F644030192C4F202031A683E
:100ED0004FF6084C42F480421A601A68CFF6FF7C45
:100EE00002F480420192019A28F00302724452F8FF
:100EF0000C3007F00C050F24AC40A343009C04FA0F
:100F000005F52B4342F80C30DEF808204B6842EA26
:100F1000090543F60C4CDC0258BF22EA0905CEF85D
:100F20000850C4F2010CDCF800209C0242EA0905DA
:100F300058BF22EA0905CCF80050DEF804209C03D3
:100F400042EA090558BF22EA0905CEF80450DEF846
:100F50000020DB0342EA090558BF22EA0905CEF862
:100F60000050012550E700BF02B0BDE8F08F00003F
:100F7000002A08BF090481617047000040F2B810E0
:100F8000C2F200000068704770B5B8B3044690F82C
:100F90003D0028B9002084F83C00204600F056FBB4
:100FA000242084F83D002068016821F001010160DF
:100FB000016841F400410160016821F400410160D1
:100FC00000F006FD48F28041C0F21E0140F6001319
:100FD000D4F804E088424FF00001C0F23D0348F22B
:100FE000A16C4FF0000238BF01219842C0F2010C01
:100FF00038BF0122E64538BF0A460AB1012070BD5C
:101000004DF68361C4F21B31A0FB01122168950CDF
:101010004B684FF4967623F03F0343EA92437543BF
:1010200044F6D3564B60C1F262060B6AA5FB065626
:10103000B50923F03F03E64538BF950C6A1C1A43F7
:101040000A62CA6948F2A0664CF6FF73C0F2010654
:10105000B64522EA03020BD801384FEA4E03B0FB33
:10106000F3F001306FF31F30042898BF04201EE016
:10107000A368013863B119230EFB03F3B0FBF3F04F
:1010800001306FF31F3078B100F5804008E000BFF9
:101090000EEB4E03B0FBF3F001306FF31F3028B1BD
:1010A00000F5004003E000BF012000E001201043F4
:1010B000C8610868D4E9072320F0C0001043184332
:1010C0000860886848F2FF3204F10C0690434CCE69
:1010D00018431043A5698860C86820F0FF003043BA
:1010E0002843C860086840F0010008600020202103
:1010F000206484F83D10206384F83E0070BD000039
:101100002DE9F04784B0984617460E460446FFF78F
:1011100035FF94F83D10202923D1054620688169C8
:10112000890719D5FFF72AFF401B1928F6D9002097
:101130002021206384F83D1084F83E00206C04F1E7
:101140003C0940F0200020640220002189F80010B2
:1011500004B0BDE8F08700BFA14619F83C1F012983
:1011600004D1022004B0BDE8F08700BF012289F855
:1011700000200368DDE90D1A0C9ADB0703D1036830
:1011800043F001030360036823F40063036022203B
:1011900084F83D00402084F83E0000202064626214
:1011A0006185608D314620850020CFF6FF70E062BA
:1011B00020463A464346CDF800A0019501F0F6F9E5
:1011C00020B1012004B0BDE8F08700BF208DA8B198
:1011D00002282BD0012835D121680A6822F48062C8
:1011E0000A60002203924A6903928A690392039A71
:1011F0000A6842F400720A602CE000BF00200390ED
:10120000206841690391816903910399016841F460
:1012100000710160202084F83D00002084F83E0029
:10122000002189F8001004B0BDE8F08721680A6841
:1012300022F480620A600A6842F400620A600022B6
:10124000039202E00021039121684A6903928969AF
:10125000039103990AF1010680B2032818D80228E5
:1012600042D0012856D1BAF1000F00F0AB802068BF
:10127000014651F8142F520600F1A8800868C006F4
:1012800000F1E280FFF77AFE401B5045EFD9D0E035
:10129000BAF1000F10D000BF2068014651F8142F9A
:1012A00052060ED40868C00600F1CE80FFF766FE35
:1012B000401B5045F0D9BCE020684169490640F127
:1012C000B1800069616A0870606A2268411C208DE3
:1012D000616201382085638D013B638553695B073B
:1012E00040F18080106973E020684169490747D464
:1012F000002E59D0BAF1000F00F09980FFF73EFEA2
:10130000401B504500F29580206841694907F5D59A
:1013100036E000BF2068416949070FD4002E65D030
:10132000BAF1000F00F08380FFF728FE401B504504
:1013300000F27F80206841694907F5D5016821F4F2
:10134000806101600069616A0870606A218D013006
:101350000139606221852068618D013961854169AB
:1013600049070DD4002E4FD0BAF1000F5FD0FFF720
:1013700005FE401B50455CD8206841694907F6D5F9
:10138000016841F4007101600069616A0870606A77
:101390002268411C6162218D01392185618D0139ED
:1013A00061851169417014E041694907E8D44169D8
:1013B00049075CBF41695FEA4171E1D4416949076E
:1013C000F2D5DDE72068416949062BD50069616ADD
:1013D0000870606A218D01306062481E2085618D31
:1013E0000139618501047FF437AF13E7416949078B
:1013F000A4D4416949075CBF41695FEA41719DD44A
:1014000041694907F2D599E741694907B8D441696B
:1014100049075CBF41695FEA4171B1D4416949073D
:10142000F2D5ADE750F8141FC90601460CD4FFF7FA
:10143000A5FD00202021206384F83D1084F83E00A3
:10144000206C40F020000AE06FF0100008600020DF
:101450002021206384F83D1084F83E00206C206435
:101460000120002189F8001004B0BDE8F0870000D9
:101470002DE9F04383B0994616460F460446FFF720
:101480007DFD94F83D1020291CD105462068816916
:10149000890713D5FFF772FD401B1928F6D90020E4
:1014A0002021206384F83D1084F83E00216C41F037
:1014B0002001216484F83C0004E000BF94F83C1053
:1014C000012903D1022003B0BDE8F083012284F892
:1014D0003C200368DDE90B180A9ADB0703D1036897
:1014E00043F001030360036823F4006303602120D9
:1014F00084F83D00402084F83E00002020646262B1
:101500006185608D394620850020CFF6FF70E0624E
:10151000204632464B46CDF80080019501F0D6F9C1
:1015200020B1012003B0BDE8F08300BF208D00286A
:1015300050D0206808F10106014651F8142F120618
:101540002CD49EB1B8F1000F5AD000BF08684005F6
:101550005ED4FFF713FD401B404556D82068014676
:1015600051F8142F1206F1D518E000BF0A68520591
:101570004ED40A68120611D40A68520548D40A6883
:1015800012060BD40A68520542D40A68120605D422
:101590000A6852053CD40A681206E7D5626A114609
:1015A00011F8013B0361238D6162591E2185678D0E
:1015B000013F678547697F070AD50F0408D0517836
:1015C0000161911C6162991E2185628D013A6285DB
:1015D0000904B1D1204641462A4601F0B1FA38BB90
:1015E0002068016841F400710160202084F83D000A
:1015F000002084F83E0084F83C0003B0BDE8F0838E
:101600000868400504D4FFF7B9FC202004E000BFBF
:101610006FF480600860042000212022216384F898
:101620003D2084F83E10226C1043206484F83C1066
:10163000206C04287FF475AF2068016841F40071C4
:101640000160012003B0BDE8F0830000B0B586B0B2
:10165000006845F60001C4F2000100248842CDE98B
:101660000444CDE90244019430D045F20041C4F273
:101670000001884253D1002443F630050094C4F29F
:101680000205286801A940F002002860286800F0DF
:10169000020000900098C02001901220CDE90204C1
:1016A000032004900420059040F20040C4F20200A0
:1016B000FFF78AFB0094286940F40010286128692C
:1016C00000F400100090009806B0B0BD43F630055D
:1016D0000094C4F202052868122140F0200028601E
:1016E000286800F0200000900098032001900490EA
:1016F0000420059040F20040C4F20200CDE902143B
:1017000000F5805001A9FFF75FFB0094286940F4C1
:1017100080002861286900F480000090009806B0DD
:10172000B0BD000040F2080040F2B811C2F2000063
:10173000C2F2000100780A68104408607047000097
:1017400080B543F60040C4F20200016841F4007124
:101750000160016841F480610160016841F48071B9
:101760000160032000F074F80F2000F005F800F08D
:1017700027F8002080BD000070B540F20806C2F2D4
:10178000000640F210013278C2F200014FF47A7381
:101790000968B3FBF2F20446B1FBF2F1084600F02F
:1017A0002FFB0F2C4FF0010508D838B94FF0FF3050
:1017B00021460022002500F01FF87460284670BD05
:1017C00082B0002043F640010190C4F202014A6851
:1017D00042F480424A604A6802F480420192019ACF
:1017E0000090086840F080500860086800F0805061
:1017F0000090009802B0704710B54EF60C5CCEF227
:10180000000CDCF80030C3F3022E8EF00704042C29
:1018100028BF0424BEF103034FF0FF3E0EFA04F488
:1018200038BF0023A14399400EFA03F39A431143B2
:1018300000F00F0200F160430901043A03F564432C
:101840006244002848BF02F10C03197010BD00006B
:101850004EF60C51CEF200010A684FF6FF031A4013
:1018600060F30A2242F0806040F0FD70086070472B
:101870002DE9F041002800F08B8043F60808C4F2FF
:1018800002080446D8F8F8030D4600F00700884225
:1018900007D288F8F853D8F8F80300F00700A842F8
:1018A00076D12068810717D5410705D5D8F80010F3
:1018B00041F4E051C8F80010010705D5D8F8001030
:1018C00041F46041C8F80010D8F80010A26821F077
:1018D000F0011143C8F80010C0073FD1D8F8F80351
:1018E00000F00700A84207D988F8F853D8F8F803A1
:1018F00000F00700A8424BD12068410707D5D8F86F
:101900000010E26821F4E0511143C8F8001000070C
:1019100008D5D8F80000216920F4604040EAC100F1
:10192000C8F8000000F07CF8D8F8001047F29632B2
:10193000C1F30311C0F60002515C40F2100220FA1C
:1019400001F140F20C00C2F200000068C2F2000295
:101950001160FFF711FF0020BDE8F0816068811E73
:10196000022907D258F8081C89015CBF0120BDE894
:10197000F08111E0012807D158F8081C89035CBFE9
:101980000120BDE8F08107E058F8081C890703D45E
:101990000120BDE8F08100BFD8F8001021F003015C
:1019A0000843C8F80000FFF7E9FA064641F2883715
:1019B000D8F80000616800F00C00B0EB810F8DD00A
:1019C000FFF7DCFA801BB842F2D90320BDE8F081B2
:1019D00040F2100043F60801C2F20000C4F2020116
:1019E0000068096847F2A632C1F38221C0F60002FE
:1019F000515CC8407047000040F2100043F60801F7
:101A0000C2F20000C4F202010068096847F2A6327F
:101A1000C1F34231C0F60002515CC840704700007B
:101A200010B543F60404C4F20204606800F00C012F
:101A300042F200400829C0F2F40007D0042918BF80
:101A400010BD41F20020C0F27A0010BD216801F003
:101A50003F02216823684902C3F3881106D4A1FB21
:101A600000010023FEF7ACFB07E000BF41F20020BD
:101A7000C0F27A004843B0FBF2F021680222C1F3C1
:101A8000014102EB4101B0FBF1F010BD2DE9F04145
:101A900082B0002868D00446007843F60006C007EC
:101AA000C4F202060BD0B06800F00C00042840F02D
:101AB0009F803068800302D56068002854D0207869
:101AC00080071AD5B06810F00C0F09D0B06800F08C
:101AD0000C00082840F0A6807068400200F1A28047
:101AE0003068800702D5E06801283DD1306821695F
:101AF00020F0F80040EAC10030602078000737D4B9
:101B0000207840074CD4A56955B3B06800F00C00AC
:101B1000082840F0BB80012D26D07068E16900F4F0
:101B200080028A4220D1216A00F03F028A421BD102
:101B300047F6C071626A0140B1EB821F14D1A16AFD
:101B40004FF6FF73C903994300F44032A1F5803189
:101B50008A4209D1E16A00F07060B0EB016F03D1F5
:101B6000002002B0BDE8F081012002B0BDE8F081A4
:101B70006069002840F20000C4F2472076D00121BD
:101B8000C0F8801EFFF7FAF9054600BF706F8007A6
:101B9000B6D4FFF7F3F9401B0228F7D9DDE000BF08
:101BA000306C10F080580AD100200190306C40F069
:101BB00080503064306C00F080500190019847F202
:101BC0000007C4F200073868C00541D4386840F403
:101BD00080703860FFF7D2F9054600BF3868C0054D
:101BE00036D4FFF7CBF9401B0228F7D9B5E000BF88
:101BF000B06800F00C00082803D1706840023FF57F
:101C000058AF6068B0F5803F07D0B0F5A02F40F026
:101C10008D80306840F480203060306840F480303F
:101C200030608DE0E068002852D00020C4F24720E8
:101C300001210160FFF7A2F9054600BF3068800767
:101C40003FF554AFFFF79AF9401B0228F6D984E01C
:101C5000A068012805D005284ED1306F40F004005F
:101C60003067306F40F0010030674FE00021C0F86E
:101C7000801EFFF783F90546706F80077FF540AF40
:101C8000FFF77CF9401B0228F6D966E00027C4F272
:101C9000472700203866FFF771F9022D05460BD162
:101CA000306880015ED5FFF769F9401B02284FF0CC
:101CB0000300F5D955E700BF306880017FF550AFCC
:101CC000FFF75CF9401B02284FF00300F4D948E706
:101CD0000020C4F2472000210160FFF74FF90546BC
:101CE000306880077FF509AFFFF748F9401B0228ED
:101CF0004FF00300F4D934E7316F002821F00101DF
:101D00003167316F21F0040131674DD0FFF736F9AB
:101D1000054641F2883700BF306F800756D4FFF781
:101D20002DF9401BB842F7D917E000BF31680028F1
:101D300021F480313160316821F4802131604FD04D
:101D4000FFF71CF9054600BF306880033FF5B7AECA
:101D5000FFF714F9401B6428F6D9032002B0BDE850
:101D6000F08100BF04F11C052FCD084340EA82102A
:101D7000D9034FF6FF729143A1F5803140EA056027
:101D80000843706001203866FFF7F8F8044600BF8A
:101D9000306880013FF5E4AEFFF7F0F8001B022841
:101DA0004FF00300F4D9DCE6FFF7E8F8054641F20E
:101DB000883700BF306F800708D5FFF7DFF8401B7A
:101DC000B8424FF00300F5D9CBE600BFB8F1000FE1
:101DD0007FF499AE306C20F08050306493E600BF01
:101DE000FFF7CCF8054600BF306880037FF567AE8B
:101DF000FFF7C4F8401B64284FF00300F4D9B0E6A5
:101E0000411E0020B0EB116F1CBF012070474EF245
:101E10001002CEF2000251604EF62351CEF20001C4
:101E2000F0230B700721906011607047002804BFF9
:101E30000120704710B5044690F83D0028B90020F5
:101E400084F83C00204600F01FF8022084F83D0092
:101E50002068211D01F0B6FA012084F8460084F8BC
:101E60003E0084F83F0084F8400084F8410084F884
:101E7000420084F8430084F8440084F8450084F864
:101E80003D00002010BD000081B0006842F200015A
:101E9000C4F20001884201D001B0704700200090D8
:101EA00043F64000C4F20200016841F48071016011
:101EB000006800F480700090009801B07047000046
:101EC0002DE9F04390F83C30012B04BF0220BDE81F
:101ED000F0834FEAB202032A00F2FC80DFE802F04E
:101EE000023E7EBE036840F200471A6A43F48065F2
:101EF00022F001021A621C6A1A46D3F804E052F872
:101F000018CF8E6824F00204C4F20107BD4244EAEF
:101F1000060405D1CE6824F00C0426F004063443F0
:101F20000E68BD4207D1D1E905572EF4407E45EA3F
:101F30000E0545EA070E2CF073073743C3F804E09B
:101F40009F614F6809695F631C629F6947F00807DA
:101F50009F619F6927F004079F61B1E0036840F229
:101F600000481A6A43F4806522F010021A621C6A63
:101F70001A46D3F804C052F818EF8F6824F02004F2
:101F8000C4F20108454544EA071407D1CF686FF051
:101F9000400624F0C00406EA07163443D1F8009046
:101FA000454506D1D1E905562CF440672E4347EA52
:101FB000860C2EF4E64747EA0927C3F804C09F6160
:101FC0004F6809699F631C629F6947F400679F61BE
:101FD0009F6927F480679F6171E000BF036840F24A
:101FE00000481A6A43F4806522F480721A621C6AFF
:101FF0001A46D3F804C052F81CEF8F6824F400741A
:10200000C4F20108454544EA072408D1CF6840F2EC
:10201000FF463F0224F4406427EA06063443D1F821
:102020000090454506D1D1E905562CF440572E4382
:1020300047EA061C2EF0730747EA0907C3F804C0F5
:10204000DF614F680969DF631C62DF6947F00807D9
:10205000DF61DF6927F00407DF6131E0036840F2E8
:1020600000451A6A43F4806722F480521A621A46C5
:10207000D3F820C05C6852F81CEFD1F800808E685D
:10208000C4F20105AF4204D14D6924F4804444EA0E
:1020900085142CF4005747EA06372EF4E64646EA44
:1020A00008265C60DE614E6809691E641F62DF6994
:1020B00047F40067DF61DF6927F48067DF610902A9
:1020C0001368194311600021002280F83C20084663
:1020D000BDE8F0830121002280F83C200846BDE8DD
:1020E000F0830000002804BF0120704710B50446AB
:1020F00090F83D0028B9002084F83C00204600F00C
:102100001FF8022084F83D002068211D01F05AF9D3
:10211000012084F8460084F83E0084F83F0084F8EB
:10212000400084F8410084F8420084F8430084F8B9
:10213000440084F8450084F83D00002010BD0000F4
:102140007047000041B1082910D0042914BF00F1E4
:10215000410200F13F020BE090F83E20012A1CBF33
:1021600001207047022280F83E2013E000F1400277
:102170001278012A1CBF012070470222082907D0CB
:10218000042914BF80F8412080F83F2002E000BFFE
:1021900080F84020006801F01F010122036A02FA62
:1021A00001F123EA01020262026A114341F2FF7265
:1021B000C4F20002904201620CDC40F2FF71C4F2F2
:1021C0000001884214DCB0F1804F37D040F200416A
:1021D00016E000BF40F2FF31C4F20101884215DC75
:1021E00041F60001C4F20001884227D0002115E029
:1021F00040F60001C4F2000188421FD040F60041C1
:10220000C4F20001884219D01FE000BF44F200016F
:10221000C4F20101884211D040F20041C4F2010130
:10222000884212D1416C40F2004340F48062C4F213
:10223000010341F400419A42416406D1816801F0F2
:102240000701062904BF00207047016841F0010121
:102250000160002070470000002804BF0120704783
:1022600010B5044690F83D0028B9002084F83C00E1
:10227000204600F021F8242084F83D002068C16841
:1022800021F40051C160204601F03AF9206801694B
:1022900021F490410161416921F02A014161C16845
:1022A00041F40051C16000202021206484F83D10D9
:1022B00084F83E1010BD000080B586B0016844F679
:1022C0000040C4F20000814202D006B080BD00BFD1
:1022D000002143F630020191C4F20202136900F5B5
:1022E000DA3043F400231361136903F400230193EC
:1022F000019B0191136843F00103136012680223EC
:1023000002F001020192019ACDE902310821032273
:10231000059101A901920492FEF756FD06B080BD19
:102320002DE9F04381B0044690F83D0020280DD1FE
:102330000F4600294FF0010000F0DD801646002A0C
:1023400000F0D98094F83C00012803D1022001B0AC
:10235000BDE8F083012084F83C00002020642120A7
:102360001D4684F83D00FEF709FEA684E684A168B8
:102370000646B1F5805F03D12069002800F0108186
:10238000B8460027002084F83C00E18C2068002932
:1023900000F0908005F101090DE000BFB8F1000FD9
:1023A00028D018F8011B4160E18C0139E184E18CEF
:1023B000002900F07F8001680906EFD4B9F1000F11
:1023C0000AD0FDB1FEF7DAFD801BA8421AD82068BA
:1023D00001680906F6D5E1E701680906DED401685F
:1023E00009065CBF01685FEA0161D7D4016809068C
:1023F000F2D5D3E737F8021B4FF000086FF35F21E7
:10240000D1E700BF206850E8030F216820F4D070A6
:1024100041E80302BAB3206850E8030F216820F4B2
:10242000D07041E8030272B3206850E8030F2168BE
:1024300020F4D07041E803022AB3206850E8030F6B
:10244000216820F4D07041E80302002ADAD11AE0B2
:10245000206850E8050F216820F0010041E80502DE
:10246000DAB1206850E8050F216820F0010041E84A
:10247000050292B1206850E8050F216820F00100A4
:1024800041E805024AB1206850E8050F216820F0B4
:10249000010041E80502002ADAD1202084F83D003D
:1024A00084F83E00002084F83C00032001B0BDE821
:1024B000F08300BF0168490619D4FDB1691C0DD134
:1024C0000168490613D4016849065CBF01685FEAE8
:1024D00041610CD401684906F2D508E0FEF74EFDD3
:1024E000801BA8420AD8206800684006F6D5202044
:1024F00084F83D00002001B0BDE8F083206850E87A
:10250000030F216820F4D07041E80302E2B3206891
:1025100050E8030F216820F4D07041E803029AB319
:10252000206850E8030F216820F4D07041E80302CE
:1025300052B3206850E8030F216820F4D07041E8BE
:102540000302002ADAD11FE0206850E8050F216855
:1025500020F0010041E80502002A9ED0206850E8E2
:10256000050F216820F0010041E80502002A3FF430
:1025700094AF206850E8050F216820F0010041E881
:102580000502002A3FF489AF206850E8050F216852
:1025900020F0010041E80502002AD5D17DE700BF07
:1025A0004FF00008EEE60000FEE700002DE9F043E2
:1025B00083B00446006899460368904643F48062FD
:1025C000026002680B9D42F48072026042690A9EBA
:1025D000D2070F461DD1711C11D0002E00F036819C
:1025E000FEF7CCFC401BB04200F23281206841690A
:1025F000C907F5D00DE000BF4169C90709D141699C
:10260000C90706D14169C90704BF41695FEAC171C1
:10261000F2D007F0FE0707614169890738D44169A4
:10262000721C01F4806111D049BB002E00F03A8188
:10263000FEF7A4FC401BB04200F2368120684169DD
:10264000890725D441694905F2D518E0B9B941692E
:1026500089071DD44169490511D44169890717D4F7
:10266000416949050BD44169890711D4416949057C
:1026700005D4416989070BD441694905E7D501684B
:1026800041F4007101606FF48061416104200CE14C
:1026900000210291014651F8142F02924A680292D9
:1026A000029A0A68120620D4002E00F0AB80721C39
:1026B00051D10A68520500F1AD800A68120614D49F
:1026C0000A68520500F1A6800A6812060DD40A684D
:1026D000520500F19F800A68120606D40A68520566
:1026E00000F198800A681206E3D5B9F1010F45D0D0
:1026F0004FEA18210161014651F8142F12063DD40A
:10270000002E00F07F80721C2AD10A68520500F169
:1027100081800A68120631D40A6852057AD40A68A0
:1027200012062BD40A68520574D40A68120625D4FE
:102730000A6852056ED40A681206E6D51EE000BF8C
:10274000FEF71CFC401BB04261D82068014651F8DE
:10275000142F1206C9D408684005F1D55AE000BF0D
:102760000868400556D4FEF709FC401BB0424ED81D
:102770002068014651F8142F1206F1D55FFA88F14E
:102780000161014651F8142F12061AD4D6B3721CF7
:1027900033D10A6852053DD40A68120611D40A687A
:1027A000520537D40A6812060BD40A68520531D490
:1027B0000A68120605D40A6852052BD40A68120664
:1027C000E7D50168002241F48071016020464FF096
:1027D00001113346009500F007FA002850D0206818
:1027E000006844E0FEF7CAFB401BB0420FD82068E7
:1027F000014651F8142F1206E3D408684005F1D5BC
:1028000008E000BF0868400504D4FEF7B7FB2020AD
:1028100004E000BF6FF480600860042000212022E3
:10282000216384F83D2084F83E10226C104320641C
:1028300084F83C10206C042843D12068016841F4DE
:1028400000710160012003B0BDE8F083FEF796FB44
:1028500000202021206384F83D1084F83E00216C84
:1028600041F020012164216884F83C000868C0051B
:1028700044BF4FF400702064032003B0BDE8F08330
:10288000206847F0010101610221C0F201012046E8
:1028900032462B4600F050FA002818BF012003B042
:1028A000BDE8F083FEF76AFB20200021202221638F
:1028B00084F83D2084F83E10226C1043206484F894
:1028C0003C10012003B0BDE8F08300002DE9F04387
:1028D00081B00446006890460268099D42F4807207
:1028E00002604269089E9946D2070F461DD1711CAD
:1028F00011D0002E00F0D280FEF740FB401BB0420A
:1029000000F2CE8020684169C907F5D00DE000BF14
:102910004169C90709D14169C90706D14169C90798
:1029200004BF41695FEAC171F2D007F0FE010161A5
:102930004169890738D44169721C01F4806111D062
:1029400049BB002E00F0E880FEF718FB401BB042A8
:1029500000F2E48020684169890725D4416949056E
:10296000F2D518E0B9B9416989071DD44169490513
:1029700011D44169890717D4416949050BD44169CC
:10298000890711D44169490505D4416989070BD4E8
:1029900041694905E7D5016841F4007101606FF4B0
:1029A000806141610420BAE000210091014651F8A4
:1029B000142F00924A680092009A0A6812061ED4E8
:1029C000002E00F08580721C4DD10A68520500F17E
:1029D00087800A68120612D40A68520500F18080C6
:1029E0000A6812060BD40A68520579D40A681206DE
:1029F00005D40A68520573D40A681206E5D5B9F100
:102A0000010F43D04FEA18210161014651F8142FFC
:102A100012063BD4002E5BD0721C29D10A685205E5
:102A20005ED40A68120631D40A68520558D40A687E
:102A300012062BD40A68520552D40A68120625D40D
:102A40000A6852054CD40A681206E7D51EE000BF9A
:102A5000FEF794FA401BB0423FD82068014651F877
:102A6000142F1206CBD408684005F1D538E000BF1A
:102A70000868400534D4FEF781FA401BB0422CD8D8
:102A80002068014651F8142F1206F1D55FFA88F13B
:102A90000161002001B0BDE8F08300BFFEF76EFACF
:102AA00000202021206384F83D1084F83E00216C32
:102AB00041F020012164216884F83C000868C005C9
:102AC00044BF4FF400702064032001B0BDE8F083E0
:102AD0000868400504D4FEF751FA202004E000BF46
:102AE0006FF480600860042000212022216384F8B4
:102AF0003D2084F83E10226C1043206484F83C1082
:102B0000206C042817D12068016841F4007101602D
:102B1000012001B0BDE8F083FEF730FA202000214B
:102B20002022216384F83D2084F83E10226C10435B
:102B3000206484F83C10012001B0BDE8F08300005F
:102B400070B50368044653F8140F400737D40E4697
:102B5000F1B1701C24D100BF1868400532D4186848
:102B600040072CD4186840052CD41868400726D498
:102B70001868400526D41868400720D41868400516
:102B800020D4186840074FF0000048BF70BDE3E74D
:102B90001868400516D4FEF7F1F9202016E000BFB2
:102BA000154600BF186840050CD4FEF7E7F9401B36
:102BB000B042F2D8236853F8140F4007F2D5002032
:102BC00070BD00BF6FF480601860042000212022D7
:102BD000216384F83D2084F83E10226C1043206469
:102BE000012084F83C1070BD2DE9F04105461446E3
:102BF000DDF8188001F47F002A681E46B0F5803F9A
:102C00008FB241D150693840C01BB0FA80F0400902
:102C1000A0427BD1701C2DD0002E7BD0FEF7AEF9E8
:102C2000A0EB0800B04277D8286840693840C01B44
:102C3000B0FA80F04009A042F0D00020BDE8F08159
:102C400050693840C01BB0FA80F04009A0425DD105
:102C500050693840C01BB0FA80F04009A04255D1FD
:102C600050693840C01BB0FA80F04009A0424FF0D4
:102C700000005FD150693840C01BB0FA80F04009B5
:102C8000A042DDD042E000BF90693840C01BB0FADE
:102C900080F04009A04239D1701C1FD0D6B300BFCC
:102CA000FEF76CF9A0EB0800B04235D828688069BF
:102CB0003840C01BB0FA80F04009A042F0D000209C
:102CC000BDE8F08190693840C01BB0FA80F040093F
:102CD000A0424FF0000018BFBDE8F0819069384075
:102CE000C01BB0FA80F04009A0420FD19069384073
:102CF000C01BB0FA80F04009A04207D1906938406B
:102D0000C01BB0FA80F04009A042DBD00020BDE833
:102D1000F08100BFFEF732F900202021286385F8FA
:102D20003D1085F83E00296C41F02001296485F8AA
:102D30003C000120BDE8F081F0B581B00446006898
:102D40001D4643698FB203EA0701B94202D1002050
:102D500001B0F0BD41691646013201F480610FD027
:102D600059BB9EB3FEF70AF9401BB04230D8206829
:102D700041693940B942EAD041694905F2D51CE0C0
:102D8000D9B941693940B942E1D04169490514D402
:102D900041693940B942DAD0416949050DD44169E8
:102DA0003940B942D3D04169490506D44169394017
:102DB000B942CCD041694905E3D5016841F40071BD
:102DC00001606FF480614161042002E0FEF7D6F8F3
:102DD000202000212022216384F83D2084F83E1029
:102DE000226C1043206484F83C10012001B0F0BD37
:102DF0002DE9F0412DED0E8B8CB004460DF10E0047
:102E000090460D460DF10D0700900DF12A0009A91D
:102E100005AA04AB019700F049FD38B14FF0FF302F
:102E20000CB0BDEC0E8BBDE8F08100BFBDF80E000C
:102E3000C00505D400200CB0BDEC0E8BBDE8F081C0
:102E400005A890ED000A90ED011A9FED514A90ED12
:102E5000022AB8EEC00A90ED033A20EE049AB8EECA
:102E6000C10A20EE04CAB8EEC20A20EE04AAB8EEE7
:102E7000C30A20EE04BAB8EE000A2CEE00DA39EEEE
:102E8000098A28EE0A0A2DEE0B1A31EE000A10EE1E
:102E9000100AFDF78CFA41EC100B03F065F851ECC9
:102EA000100B9FED390B56EC107B3A463346FDF77D
:102EB000F6F9FDF78FFA3AEE0AEA28EE0C0A2EEE42
:102EC0000B1A31EE000A206010EE100AFDF76FFABF
:102ED0002AEE0E0A2DEE0C1A31EE400AB7EE001A59
:102EE00030EE010A41EC180B10EE100AFDF75FFA04
:102EF00041EC110BB0EE480AF0EE680A03F050FB0B
:102F000051EC100B3A463346FDF7C9F9FDF762FA6A
:102F10002CEE0A0A29EE0B1A31EE000A30EE000AF6
:102F2000286010EE100AFDF742FA2CEE0C0A29EE8A
:102F3000091A31EE000A2AEE0A1A30EE410A2BEE87
:102F40000B1A30EE410A41EC180B10EE100AFDF797
:102F50002EFA41EC110BB0EE480AF0EE680A03F0CD
:102F60001FFB51EC100B3A463346FDF798F9FDF77D
:102F700031FAC8F8000000200CB0BDEC0E8BBDE8A3
:102F8000F08100BF00BF00BF6666666666A64C4063
:102F90000000803080B582B001A801F017FB18B1A5
:102FA0004FF0FF3002B080BD782002F099FE18B1DA
:102FB0006FF0010002B080BD782001F045FA18B131
:102FC0006FF0020002B080BD642002F00BFE18B169
:102FD0006FF0030002B080BD00F05CFC20B16FF028
:102FE000040002B080BD00BF01F09AF900F050FE6D
:102FF00020B16FF0050002B080BD00BF40F2731039
:1030000000F0F8FA20B16FF0060002B080BD00BFFA
:10301000642000F095FD18B16FF0070002B080BD8C
:1030200002F030FF20B16FF0080002B080BD00BF99
:10303000012002F0E3FC002818BF6FF0090002B085
:1030400080BD0000F0B587B0002543F6300006953E
:103050000195C4F20200016840F6000441F0040149
:1030600001600168C4F2020401F0040101910199B8
:1030700001950168012241F02001016001684FF4CF
:10308000005601F020010191019901950168012785
:1030900041F080010160016801F080010191019916
:1030A0000195016841F001010160016801F0010131
:1030B000019101990195016841F0020101600068E8
:1030C0004FF4005100F00200019001982046FDF7F6
:1030D0004FFF02A92046CDE90267CDE90455FDF76F
:1030E00073FE07B0F0BD000080B540F2840045F2E9
:1030F0000041C2F20000C4F2000141F68022002328
:103100004FF4804CC0F2060280E80E00C0E9033C98
:10311000C0E90533C0E90733FDF736FF002808BFD3
:1031200080BDBDE88040FDF735BE000080B540F2AF
:10313000D80045F60001C2F20000C4F2000148F2D6
:10314000A06200234FF4804CC0F2010280E80E0020
:10315000C0E9033CC0E90533C0E90733FDF714FFBC
:10316000002808BF80BDBDE88040FDF713BE000009
:10317000B0B58CB042F2000540F22C10C4F200054C
:103180000021C2F20000A72244F61F63CDE9051119
:10319000CDE90311C0E90052C0E902130161816168
:1031A000FEF744FE002818BFFDF7F4FD40F22C1096
:1031B000C2F20000FEF796FF002818BFFDF7EAFDF7
:1031C000602040F22C1400900020C2F20004CDE9EF
:1031D00001000490694620460022FEF771FE002897
:1031E00018BFFDF7D7FD2068A84201D00CB0B0BDD4
:1031F000002043F630010790C4F202010A6842F051
:1032000020020A60096801F02001079107994FF434
:10321000007107910221CDE908100A9009200B9056
:1032200005F5FA3007A9FDF7CFFD0CB0B0BD0000E1
:1032300080B540F2741044F60041C2F20000C4F2BE
:10324000000100234FF00C0C4FF4E13280E80E0037
:10325000C0E90333C0E905C3C361FEF7FDFF0028E1
:1032600008BF80BDBDE88040FDF794BDFEE70000CB
:1032700010B5044681B108291AD0042924D1206848
:103280004FF4FA6181634FF47A60FDF789FD20689D
:1032900000F1380123E000BF20684FF4FA61416378
:1032A0004FF47A60FDF77CFD206800F1340116E0F0
:1032B00020684FF4FA61C1634FF47A60FDF770FD46
:1032C000206800F13C010AE020684FF4FA610164D3
:1032D0004FF47A60FDF764FD206800F140014FF47F
:1032E0007A724FF47A600A60BDE81040FDF758BD6D
:1032F000FEE700007047000070470000FEF712BABA
:10330000B0B592B0002443F64000CDE90A44CDE9BF
:1033100008440594CDE90344CDE901440094C4F286
:1033200002000168022541F080510160006800F050
:1033300080500090009847F200000094C4F2000012
:10334000016841F4804101600068A82100F48040D8
:1033500000900098012006904FF4803007904FF4C1
:1033600080000D9004200E90119006A80C95CDE9D8
:103370000F15FEF78BFB28B1EFF3108072B600BF7C
:10338000FEE700BF0F20CDE901054FF4A0500490E7
:103390004FF48050059001A805210394FEF768FAC8
:1033A00020B1EFF3108072B6FEE700BF12B0B0BDDF
:1033B0004EF68850CEF20000016841F470010160C1
:1033C0007047000010B540F6FF3E0368C4F2000EDF
:1033D00040F2004C7045C4F2010C27DCB0F1804F84
:1033E00031D040F20042C4F2000290422BD040F6AD
:1033F0000002C4F20002904225D041F6FF72C4F2EE
:103400000002904229DC70453CDCB0F1804F5FD077
:1034100040F20042C4F20002904259D040F600024D
:10342000C4F20002904253D056E000BF40F6004282
:10343000C4F20002904206D0604504D00022C4F2DB
:1034400001029042D9D14A6823F07003134341F638
:10345000FF72C4F200029042D5DD43F6FF72C4F25F
:103460000102904222DC42F20002C4F200029042C9
:103470002ED00022C4F20102904229D0604527D00C
:103480002AE000BF40F60042C4F2000290421FD082
:1034900041F60002C4F20002904219D041F6004207
:1034A000C4F20002904213D016E000BF44F20002C2
:1034B000C4F2010290420BD044F60002C4F20102B1
:1034C000904205D044F20042C4F20102904203D17E
:1034D000CA6823F44073134323F080024B69D1F888
:1034E00000E08C681A430260C46240F48062C0F855
:1034F00028E0624504BF096901630121416110BDF3
:1035000010B504460068D4E902C22369016921F4B8
:10351000405111430161626943EA0C01E3691143BF
:10352000C268194349F20C639A431143C16041696F
:10353000A26921F4407141F20043114340F48062DA
:10354000C4F201039A42416102D1FEF755FA01E04B
:10355000FEF73EFAE16963681922B1F5004FA0FB5E
:10356000020123D15A00DB0FFCF72AFE48F21F515B
:10357000C5F2EB11A0FB01235A094FF69C73C0F66C
:10358000FF7303F1805302FB0300322303EBC000FF
:10359000A0FB01014FF4F87000EA111000EB0210DB
:1035A000C1F3421108442168886010BD9A009B0F46
:1035B000FCF706FE48F21F51C5F2EB11A0FB0123F8
:1035C0005A094FF69C73C0F6FF7302FB03003223C7
:1035D00003EB0010A0FB0101F02000EA511000EB0A
:1035E0000210C1F3431108442168886010BD000037
:1035F000FEE700002DE9F04186B004464CF60220BB
:10360000C0F6E3100DF10205CDF802006820042198
:103610002A4602F0F5FBA3206FF03F018DF802006F
:1036200014F0400608BF6FF05C016FF037026FF0D6
:103630003D0308BF6FF05C0208BF6FF05C038DF8BC
:1036400003106FF03B018DF804208DF8053014F461
:10365000C07708BF6FF05C016FF033026FF0390381
:1036600008BF6FF05C0208BF6FF05C038DF80610B6
:103670004AF2A3318DF80720ADF809108DF80B0040
:1036800040F6A7200A212A468DF8083002F0B8FB40
:10369000202014F0030808BF6FF027008DF8020007
:1036A00040F6B62001212A4602F0AAFBA0060BD460
:1036B000C720059048F6B000CCF2C35004904AF6FB
:1036C000B820CAF6AA200AE05D20059049F6B400A9
:1036D000C3F20D5004904AF6B820C8F6B3500390D8
:1036E00003AA4FF49760092102F08AFB2FB36FF011
:1036F0004D016FF0740214F4807008BF6FF04F0139
:1037000008BF6FF07F026FF049036FF0640508BFD8
:103710006FF04B03002808BF6FF06F058DF80210A3
:103720008DF803200DF1020240F6A22004218DF84D
:1037300004308DF8055002F063FBE00708D1D82073
:103740008DF802000DF102024FF40B60012150E0F0
:10375000F8208DF802000DF102024FF40B600121F8
:1037600002F04EFB0720FA2100F006FB3F208DF807
:103770000C0003AA4FF4A470012102F041FB0020C9
:103780008DF80C0003AA40F24F10012102F038FB23
:103790004FF4A050ADF80C0003AA4FF4EF700221D3
:1037A00002F02EFB4FF4C840ADF80C0003AA4FF412
:1037B000ED70022102F024FB48F60060C9F2F90026
:1037C000039003AA4FF4AE70042102F019FB4FF4EA
:1037D0000060ADF80C0003AA4FF4AD70022102F0B6
:1037E0000FFB4FF40070ADF80C0003AA4FF4AC705F
:1037F000022102F005FBA0076FF0260058BF6FF012
:1038000027008DF802000DF1020240F23D70012107
:1038100002F0F6FA600752BF4FF08B304CF2C02036
:10382000CCF2C460039003AA40F69820042102F071
:10383000E7FA01F06BFAE00652BF4FF0A33042F610
:103840002000C3F63000039003AA40F69E20042116
:1038500002F0D6FA01F05AFA40F2480544F00800A6
:10386000C2F20005A88001F051FA002E18BF06260A
:10387000002F18BF063614F0140F18BF46F01006BC
:10388000B8F1000F18BF043600202E7006B0BDE856
:10389000F081000047F2AE31C0F6000140F6F6308C
:1038A0004FF48062C82300F09DBF00002DE9F04F67
:1038B00089B01446DDE912A20F46002140F2480902
:1038C000AAF80010C2F2000999F800100DF1040BDB
:1038D0008046084659461E4601F09EF920B14FF039
:1038E000FF3009B0BDE8F08FB9F804C01CF0140F28
:1038F00050D09DF80520B6469DF80410BDF806602E
:1039000012049DF8095042EA016132BA9DF808306C
:1039100041EA1242BDF80A6022602A0442EA0362C8
:1039200033BA42EA134363609DF80D309DF80C6092
:10393000BDF80E501B0443EA06632EBA43EA16464E
:10394000A6609DF811609DF8105011FB31F136040E
:1039500012FB321146EA056613FB3311BDF8120063
:1039600016FB36116FF0885211444FF6FE7200BA02
:10397000CFF6FF5246EA10409142E06072D801F063
:10398000C5F90020AAF800004FF0FF3009B0BDE8EB
:10399000F08F00BF00215FEA4C6026D541F00102A4
:1039A0001BF801001BF8022041F0030342EA00204B
:1039B00041F002021BF802201BF80330388043EA72
:1039C000022041F0040241F005031BF802201BF81D
:1039D0000330788043EA0220B880BAF8000041F052
:1039E000060140F00800AAF800001CF4C07F18D0BF
:1039F0003BF801000BEB010200BA5388000CA8F859
:103A0000000018BA9288000CA8F8020010BA000C46
:103A1000A8F80400BAF80000063140F07000AAF8D7
:103A200000005FEA8C7016D00BEB01056878EC782B
:103A3000C10709D0D9F8082032B104F00700411CB1
:103A4000C4F3C20090476878000704D5D9F80C1079
:103A500009B1A0098847FDF791FA3060002009B04C
:103A6000BDE8F08FBAF80000102140F4807076466F
:103A7000AAF800005FEA4C6090D4B6E710B584B0B5
:103A800004460DF1020000F067FD40F27C01BDF834
:103A900002C000BFC2F20001098801F003024B0717
:103AA00054F822204FF00C0348BF524203EA51035E
:103AB0008806E358C1F3811048BF5B4254F82000E8
:103AC000C90548BF40424FEACC3181FB02C481FBAB
:103AD00003E281FB00014FEA9C73800F43EA840CF0
:103AE0004FEA9E7340EA810EA00D8DF80400A00BF2
:103AF0008DF80500A0098DF80600900D8DF80800DE
:103B0000900B8DF8090090098DF80A00880D8DF84A
:103B10000C00880B8DF80D00880943EA82038DF8AC
:103B20000E0001AA4FF425700C218DF807C08DF806
:103B30000B308DF80FE002F063F904B010BD000007
:103B400010B586B004464AF6BB70CDF6DF7005901E
:103B50004FF2AA10CDF6DF7004904FF2FE20CCF2A7
:103B6000AB40C82C039017D8E0B2C821B1FBF0F0ED
:103B7000002101388DF804108DF8050001AA40F2EB
:103B80001620022102F03CF930B903AA40F6C12008
:103B90000C2102F035F918B14FF0FF3006B010BD1E
:103BA00040F28000C2F200000480002006B010BD88
:103BB000F0B581B040F27C01C2F200010E880C2306
:103BC00006F003014EF2093450F8211003EA5603BF
:103BD000C0F2CA24720748BF4942C758C6F38113CE
:103BE00081FB041250F82350F0054FEA91704FEA20
:103BF000925148BF6D428DF80010910B40EA82004F
:103C00008DF8011091098DF802108DF803006A46B5
:103C10004FF47470042102F0F3F8E0B9B00648BF25
:103C20007F42A7FB0401FA1702FB0411800F8A0DE3
:103C300040EA81008DF800208A0B89098DF8012067
:103C40008DF802108DF803006A464FF47570042158
:103C500002F0D6F820B14FF0FF3001B0F0BD00BF48
:103C600085FB0401800F40EA8100010E8DF80010F1
:103C7000010C8DF80110010A8DF802108DF8030077
:103C80006A464FF47670042102F0BAF801B0F0BD34
:103C9000B0B582B0054647F29331C0F60001C5F3D6
:103CA000C10300F00300CC5C0A5C8DF8054047F2CC
:103CB00090348DF80420C5F38112C0F60004895CAD
:103CC000205C8DF806108DF80000E05CA15C8DF89A
:103CD00001008DF8021001AA40F22640032102F0F3
:103CE0008FF850BB6A4640F22A40032102F088F860
:103CF00018BB45F23660C0F27600019044F22660AF
:103D0000C0F26600690700901CD4A80622D4E8051A
:103D100005D577208DF8060067208DF8020001AAEE
:103D20004FF48860032102F06BF830B96A4640F224
:103D30003140032102F064F8B0B14FF0FF3002B01F
:103D4000B0BD00BF37208DF8040027208DF800009B
:103D5000A806DCD557208DF8050047208DF8010016
:103D6000E805D6D4DBE700BF40F27C00C2F20000D9
:103D70000580002002B0B0BDB0B582B00446B1F5F8
:103D8000C86F4FF0FF3045D80D4614F0070141D001
:103D90000DF1030000F0C2FB9DF8030002384FEA6A
:103DA0007000072867D8C1B28B2222FA01F1C90737
:103DB00061D000EE105A9FED321AB8EE400A80EE44
:103DC000010A30A101EB800191ED001A35A101EB50
:103DD000800090ED002A20EE011A20EE020ABDEECE
:103DE000C00A10EE100ABDEEC10A10EE101A0A0A3F
:103DF0008DF804208DF80510010A01AA951C8DF894
:103E00000610E1078DF8070006D1A00714D460075B
:103E100022D4002002B0B0BD01AA4FF4EA70022102
:103E200001F0EEFF38BB4FF4927002212A4601F0F8
:103E3000E7FF00BBE9E700BF01AA4FF4EC700221E5
:103E400001F0DEFFB8B94FF4947002212A4601F068
:103E5000D7FF80B9DBE700BF01AA4FF4EE70022163
:103E600001F0CEFF38B94FF4967002212A4601F0D6
:103E7000C7FF0028CDD04FF0FF3002B0B0BD00BF6B
:103E800000004843000080460000004600008046D5
:103E9000000080450000804600008046000080460B
:103EA00000000045000040460000C04500004046BC
:103EB00000004045000040460000404600004046EB
:103EC0000000C04480B582B0019040F27410C2F28C
:103ED000000001A901224FF0FF33FEF721FA0198FB
:103EE00002B080BD2DE9F04F89B040F21407C2F254
:103EF000000780460125D7E90030ADF81850894603
:103F000001785B7D02200DF1180BCDE900B040F285
:103F1000840016460F24C2F200001A4601230294C0
:103F2000FDF7A6FA002840F03081C820FCF738FFE2
:103F300000208DF81800D7E9002001230178527C79
:103F400040F28400C2F20000CDE90154CDF800B087
:103F5000FDF78EFA002840F01881D7E900200F24E1
:103F60000178527940F284000125C2F20000012359
:103F7000CDE900B50294FDF77BFA002840F00581F9
:103F8000D7E9002001230178527D40F28400C2F27B
:103F90000000CDE90154CDF800B0FDF769FA002822
:103FA00040F0F380D7E900200F240178927E40F2A0
:103FB00084000125C2F200000123CDE900B502947E
:103FC000FDF756FA002840F0E080D7E900200123F1
:103FD0000178127940F28400C2F20000CDE9015468
:103FE000CDF800B0FDF744FA002840F0CE800C2058
:103FF0008DF81800D7E900200F240178127940F2DB
:1040000084000125C2F200000123CDE900B502942D
:10401000FDF72EFA002840F0B8800F20FCF7C0FE14
:10402000B86A3A68407A79688DF818000978927809
:1040300040F28400C2F200000123CDE90154CDF822
:1040400000B0FDF715FA002840F09F80B86A3A6882
:10405000007A79688DF818000978527840F2840067
:104060000F240125C2F200000123CDE900B502941E
:10407000FDF7FEF9002840F08880B96AD7E9000210
:10408000897A002E18BF41F0E0018DF818101178E0
:10409000827940F28400C2F200000123CDE901548C
:1040A000CDF800B0FDF7E4F900286ED126B1B86A6A
:1040B000C07A60F01F0000E018208DF81800D7E9E2
:1040C0000020012301780F20D279CDE9013040F2A0
:1040D0008400C2F200000123CDF800B0FDF7C8F95A
:1040E000002852D116B1C820FCF75AFE40208DF8A6
:1040F0001800D7E900200F240178127940F28400DB
:104100000125C2F200000123CDE900B50294FDF7BC
:10411000AFF9D0BB78208DF81800D7E90020012333
:104120000178527940F28400C2F20000CDE90154D6
:10413000CDF800B0FDF79CF938BB3220FCF730FE1B
:1041400000208DF81800D7E900200F240178012005
:104150005279CDE900B040F28400C2F200000123A0
:104160000294FDF785F980B9D7E900200123017891
:104170000220127BCDE9010440F28400C2F200006B
:10418000CDF800B0FCF7BCFF30B14FF0FF37384638
:1041900009B0BDE8F08F00BFBDF818004AF6AB21AA
:1041A00000BA000C4843C0F3C7420021002AC8E906
:1041B0000011C8F80810C9E900110492C9F80810E4
:1041C00048D0C00C0026C0B20590D7E900200123DA
:1041D00001780C20527B019040F28400C2F2000072
:1041E0000F25CDF800B00295FCF78AFF0028CCD14E
:1041F000BDF81800BDF81A10BDF81C2099E8380069
:1042000000BA09BA12BA03EB204004EB214105EBD6
:104210002242C9E90001C9F80820BDF82220BDF8F2
:104220002010D8F80840BDF81E0012BAD8E90035B1
:1042300009BA04EB22440136059A00BA05EB214A7B
:10424000F1B203EB20409142C8E9000AC8F80840E7
:10425000BBD303E0D8E9000AD8F80840C117090425
:1042600041EA10410004832200230027FBF7D9FF15
:10427000049E00233246FBF7D4FFC8F800004FEA43
:10428000EA70000440EA1A414FEA0A408322002300
:10429000FBF7C7FF32460023FBF7C3FFC8F8040053
:1042A000E017000440EA1441200483220023FBF7B6
:1042B000B8FF32460023FBF7B4FFC8F80800D9E97D
:1042C0000005D9F80840C117490141EAD061400111
:1042D00032460023FBF7A5FFC9F80000E8174001AC
:1042E00040EAD561680132460023FBF79AFFC9F81E
:1042F0000400E017400140EAD46160013246002327
:10430000FBF78FFF4FF480310028C4BF0021CFF6A8
:10431000FF710844C9F80800384609B0BDE8F08FBD
:10432000AC20704788B0FDF70BFAFEF7E9FFFEF707
:1043300089FEFEF77DFFFEF71BFFFEF7D5FEFEF7B9
:10434000F5FE40F22C14C2F2000420460021FDF7D5
:10435000F9FE20460021FEF78BFFFEF71BFEFCF75F
:10436000DFFB40F60000C4F202004FF400510022CF
:10437000FCF7FEFD40F240080DF118090DF1140A9A
:10438000C2F200080FF2840B2AA400BF07A8494616
:104390005246FEF72DFDFCF7FDFBFCF715FCFCF784
:1043A00093FB88ED000AFCF7CFFA079888ED010A25
:1043B000FBF7FDFF054606980E46FBF7F8FF41ECBC
:1043C000180B0598FBF7F3FF41EC100B58462A46F3
:1043D00033468DED008B8DED020B01F09BFDD8E98E
:1043E0000005FBF7E4FF064628460F46FBF7DFFF14
:1043F00041EC100B204632463B468DED000B01F0A0
:1044000089FD6420FCF7CCFCC0E700BF70697463D1
:1044100068203D20252E32662C20726F6C6C203D6A
:1044200020252E32662C20796177203D20252E32E2
:10443000660D0A00543A20252E32662020503A207C
:104440002566200D0A000000F0B585B040F2140585
:10445000C2F2000595F8241021B10024204605B0D1
:10446000F0BD00BFA97AA9B300F0FE0739402E7C49
:10447000CC1B287D18BF4FF0FF34002F297408BFD4
:1044800000282DD0687CC8B90120D5E900218DF81D
:1044900012000DF112030978527CCDE9003040F290
:1044A00084004FF00F0CC2F200000123CDF808C0C9
:1044B000FCF7DEFF10B99DF812006874002FCDD014
:1044C00000F024FC00281CBF2E744FF0FF3420465F
:1044D00005B0F0BD4FF0FF34204605B0F0BD00BF81
:1044E00000208DF81300D5E900200DF113030178A9
:1044F0000120527CCDE9003040F284000F27C2F247
:10450000000001230297FCF7B3FF0028A6D19DF815
:1045100013006874204605B0F0BD000040F214019D
:10452000C2F200014A7A032A84BF4FF0FF3070477D
:1045300040F20243D200C1F20803D3400370C97CA9
:10454000002904BF0020704740F60401C2F21001A8
:10455000D14001700020704740F21402C2F2000204
:10456000517A032984BF4FF0FF30704707A3D27CF4
:1045700033F81130002A038004BF0020704705A2E1
:1045800032F8111001800020704700BF00409C1FCE
:10459000001000080020CE0F0008000440F21401B3
:1045A000C2F20001097A032984BF4FF0FF3070473F
:1045B00002A252F82110016000207047000003435E
:1045C000000083423333034233338341F0B585B077
:1045D00040F214048020C2F200048DF80D00D4E9EA
:1045E00000200F260178527D40F2840001270DF152
:1045F0000D05C2F200000123CDE900570296FCF739
:1046000037FF28BB6420FCF7CBFB00208DF80D00A2
:10461000D4E9002001230178527D40F28400C2F2E7
:104620000000CDE901760095FCF722FF80B9D4E9BE
:104630000020062301780F20527ECDE9013040F2A0
:104640008400C2F2000001230095FCF759FD28B157
:104650004FF0FF34204605B0F0BD00BF9DF812209A
:104660009DF80E009DF81010042303EA820261F306
:10467000410200F00100111806D0012935D00229AD
:1046800028D1002032E000BFD4E900200F270178B4
:104690000120D278CDE9005040F28400C2F200003F
:1046A00001230297FCF72CFD0028D1D19DF80D00C5
:1046B00000F00F00042815D00028E2D147F6CE7094
:1046C000C0F6000002F0A0FD4FF0FF34204605B018
:1046D000F0BD00BF31A001F01DFC4FF0FF342046BB
:1046E00005B0F0BD37A002F08FFD0120E0744FF659
:1046F000FF700021E081FF20C4E90511E161218400
:10470000C4F8231084F8271018212074A0744FF0E7
:10471000FF308DF81310D4E90021A06001200DF1C5
:10472000130320730978927984F82200CDE90030D0
:1047300040F284000F27C2F2000001230297FCF729
:1047400097FE00287FF484AF9DF81300C008207204
:10475000022001F05FF800287FF47AAF2A2001F0F0
:10476000E9F900287FF474AF322001F03BFA002809
:104770007FF46EAF0020FFF767FE00287FF468AF7C
:10478000002001F09FF800287FF462AF0020002491
:1047900001F0A6FA204605B0F0BD00BF556E737556
:1047A00070706F7274656420736F66747761726580
:1047B0002070726F64756374207265762025642E94
:1047C0000A00000048616C662073656E7369746945
:1047D00076697479207061727420666F756E642ECC
:1047E000000000002DE9F04F8DB0064600294FF083
:1047F000FF3000F0BF8040F21408C2F200080C46FF
:1048000098F82510002940F0B580002ECDE903323C
:1048100000F08D804FF00009CDE905461FFA89FBB5
:10482000A6EB0B0A98F80A00BAF1100FA8BF4FF0D8
:10483000100A002800F09380D8F804001FFA8AF2CA
:10484000418952FA89F68E4299FA89F14FEA11416B
:104850000792ADF8321000F28280D8F8002001787B
:104860000DF13200D27E00900220019040F28400CF
:10487000C2F2000001230F270297FCF7F9FD002880
:104880006DD1D8E9002014FA89F401780798127ED6
:10489000019040F28400C2F2000001230F27454638
:1048A00000940297FCF7E4FD002858D1A87A00286C
:1048B00055D068682B4642894FEA1B2196428DF8F5
:1048C00032108DF833904AD81A6801780DF1320011
:1048D000D27E00900220019040F28400C2F20000DB
:1048E00001230F270297FCF7C3FDC0BBD8E90020C6
:1048F000079E0178127E40F284000DF12205C2F27B
:10490000000001230F27009501960297FCF7F8FBA2
:1049100028BB204629463246FBF7B4FC70BBD14485
:10492000069E1FFA89F0059CB042FFF477AF049809
:10493000022340BAADF83200D8E900200DF1320769
:1049400001780F20527F029040F28400CDE900737D
:10495000C2F2000001230124FCF78AFD20B14FF0D0
:10496000FF300DB0BDE8F08F039888F82540A8F817
:10497000260000200DB0BDE8F08F00BF6FF00100F1
:104980000DB0BDE8F08F000070B586B0282805D9BD
:104990004FF0FF34204606B070BD00BF40F2140552
:1049A0000446C2F20005002852D095F823000128E1
:1049B00027D0A87C95F822103222002808BF302288
:1049C0008DF8132039B16FF04D01002808BF6FF04A
:1049D0004F018DF81310D5E900200DF11303017874
:1049E0000F20D27D029040F2840001260093C2F293
:1049F000000001230196FCF73BFD002808BF85F865
:104A000023602020012C8DF810006BD1A87A0021A2
:104A10008DF81110D0B1E87A062106288DF814100F
:104A200014D0D5E9002005AB017801209278CDE9BA
:104A3000003040F284000F26C2F2000001230296EB
:104A4000FCF716FD10B99DF81400E8720720BDE0D0
:104A500095F8230048B3A87C95F822100246002858
:104A600018BF012252008DF8122039B16FF07D017C
:104A7000002808BF6FF07F018DF81210D5E90020E3
:104A80000DF1120301780120D27DCDE9003040F212
:104A900084000F26C2F2000001230296FCF7E8FC16
:104AA000002804BF002085F823004FF4E060ADF833
:104AB0001000D5E9002004AB01780220527DCDE939
:104AC000003040F284000F26C2F20000012302965B
:104AD000FCF7CEFC002851D04FF0FF34204606B042
:104AE00070BD00BF052C23D8A87A01218DF81110C4
:104AF000D8B1E87A062106288DF8151015D0D5E929
:104B000000200DF11503017801209278CDE90030E5
:104B100040F284000F26C2F2000001230296FCF747
:104B2000A7FC10B99DF81500E87247204EE000BFC1
:104B3000142C29D8A87A02218DF81110D8B1E87A5E
:104B4000052105288DF8161015D0D5E900200DF1A6
:104B50001603017801209278CDE9003040F28400FC
:104B60000F26C2F2000001230296FCF781FC10B967
:104B70009DF81600E872872028E000BF00242C75FD
:104B8000204606B070BD00BFA87A03218DF8111031
:104B9000D8B1E87A042104288DF8171015D0D5E98A
:104BA00000200DF11703017801209278CDE9003043
:104BB00040F284000F26C2F2000001230296FCF7A7
:104BC00057FC10B99DF81700E872C7208DF8110046
:104BD000D5E90020022301780F20527D04AE029017
:104BE00040F28400CDE90063C2F2000001230126F7
:104BF000FCF73EFC20B14FF0FF34204606B070BDFC
:104C00000820A872002400202C732E75FFF71CFCCE
:104C1000204606B070BD00002DE9F04385B040F29B
:104C20001407C2F200070E4697F824100546002923
:104C30004FF0FF305FD0B97A00295CD09146D7E9B8
:104C40000020022301780F20127BCDE9013040F2D1
:104C500084000DF11204C2F2000001230094FCF75D
:104C60004FFA28B14FF0FF3005B0BDE8F08300BF28
:104C7000BDF8121008BAB5EB104F07D9002089F81B
:104C800000004FF0FF3005B0BDE8F083786891FA7E
:104C900091F84288B8EB520F17D93A680178012091
:104CA000D27CCDE9004040F284004FF00F0CC2F2FC
:104CB00000000123CDF808C0FCF722FA0028D1D16A
:104CC0009DF81200C00619D478683A6801780F2060
:104CD000527B029040F28400C2F200000123009651
:104CE0000195FCF70DFA0028BCD1B8FBF5F00138AE
:104CF00089F80000002005B0BDE8F08300F006F858
:104D00006FF0010005B0BDE8F0830000F0B585B09C
:104D100040F21404C2F20004A07AA8B300208DF877
:104D20001300D4E900200F260178527C40F2840061
:104D300001270DF11305C2F200000123CDE9005750
:104D40000296FCF795FBF8B9D4E90020012301781D
:104D5000527940F28400C2F20000CDE9017600955C
:104D6000FCF786FB80B9D4E90020012301780F20ED
:104D70001279CDE9013040F28400C2F20000012333
:104D80000095FCF775FB18B14FF0FF3005B0F0BD92
:104D900094F8240000285DD00C208DF81300D4E98D
:104DA00000200F260178127940F284000127C2F218
:104DB00000000123CDE900570296FCF759FB0028BB
:104DC000E2D13220FBF7ECFFA07A0123C0076FF09D
:104DD0001F0008BF6FF03F008DF81300D4E90020DA
:104DE0000178127940F28400C2F20000CDE9017628
:104DF0000095FCF73DFB0028C6D1607C0F260028FB
:104E000018BF012040008DF81300D4E900200127CD
:104E10000178527C40F28400C2F200000123CDE907
:104E200000570296FCF724FB0028ADD100208DF836
:104E30001300D4E9002001230178527940F2840064
:104E4000C2F20000CDE900570296FCF711FB0028E2
:104E50009AD161E004208DF81300D4E900200F26D8
:104E60000178127940F284000127C2F20000012388
:104E7000CDE900570296FCF7FBFA00287FF484AFD7
:104E8000A07AA17CC0074FF0600008BF4020002935
:104E900018BF40208DF81300D4E9002001230178C9
:104EA000127940F28400C2F20000CDE9017600954B
:104EB000FCF7DEFA00287FF467AF3220FBF770FFC3
:104EC000607C0F26002818BF01208DF81300D4E95C
:104ED000002001270178527C40F28400C2F20000D9
:104EE0000123CDE900570296FCF7C2FA00287FF4AF
:104EF0004BAFD4E900200123017804F1100052796E
:104F0000CDE9000740F28400C2F200000296FCF7EF
:104F1000AFFA00287FF438AF002005B0F0BD0000E4
:104F20002DE9F04F81B02DED028B94B040F2140BBF
:104F3000C2F2000B9BF824500C46824615B10020AB
:104F400000F05CFD9BF8080003280DD84FF0FA082C
:104F5000DFE800F0140212264FF4FA789BF80900FB
:104F600003280FD922E000BF4FF000089BF809008A
:104F7000032807D91AE000BF4FF47A789BF809009C
:104F8000032813D80FF658029BF8133002EB800267
:104F90000FF63C01002B08BF01EB8002106806E011
:104FA0004FF4FA689BF809000328EBD900200A9017
:104FB0009BF80B000C9506281CD800F07F00411EC2
:104FC000B1FA81F1490909910621C14001F00101BD
:104FD00008910E21C14001F0010107911E21C1403D
:104FE00001F0010106913E2121FA00F000F00100DC
:104FF00009E000BF002009900020089000200790E1
:1050000000200690002005909BF80A00BBF80E6077
:105010000B909BF81090504621460022FEF762FF4D
:1050200040B15046214600220025FEF75BFF0028D4
:1050300040F0F28210A80DA90122FEF753FF38B10B
:1050400010A80DA90122FEF74DFF08B10025E3E2EB
:10505000DBF80400042201780F20CDE9012040F2A2
:10506000840013ADC2F200000D2201230095FCF76D
:1050700047F838B320680D999FEDE48A401A48BF7D
:10508000404203EE100AB8EEC33AB5EE401AF1EE14
:1050900010FA23EE083ACDF8109041D083EE011AB1
:1050A000BFEE003A31EE031A9FEDD93AB0EEC11AC5
:1050B000B4EE431AF1EE10FACCBF4FF001094FF0F5
:1050C000000942E09DF84C009DF84F309DF84D10CE
:1050D0001C279DF84E2007EAD000C3F301159FED71
:1050E000CD0A2D1807EAD100C3F38101084407EA6D
:1050F000D20E03F00302B0EE401A00F00A816B1EDC
:1051000000F0D88013F00301A5F1020C00F0DA8062
:10511000012940F0DF809FEDDC1A6346E8E000BF24
:105120009FEDDA1A0020B4EE413A9FEDD91AF1EE64
:1051300010FA4FF00001B4EE413AB8BF0121F1EE90
:1051400010FAC8BF012041EA000960680E99B5EE67
:10515000402A401A48BF404201EE100AB8EEC11A78
:10516000F1EE10FA21EE081A12D081EE021ABFEE0B
:10517000002A31EE021A9FEDA62AB0EEC11AB4EE53
:10518000421AF1EE10FAC8BF09F1020912E000BF9D
:105190009FEDBF2A09F10200B4EE421A9FEDBB2A2F
:1051A000F1EE10FAC8BF8146B4EE421AF1EE10FAE1
:1051B000B8BF8146A0680F99B5EE400A401A48BFB3
:1051C000404201EE100AB8EEC11AF1EE10FA21EEDB
:1051D000081A11D081EE000ABFEE001A30EE010A63
:1051E0009FED8B1AB0EEC00AB4EE410AF1EE10FA50
:1051F000C8BF09F1040911E09FEDA50A09F10400F7
:10520000B4EE401A9FEDA10AF1EE10FAC8BF814634
:10521000B4EE401AF1EE10FAB8BF8146DBF8040094
:105220000F2701780320CDE9005040F28400C2F23C
:1052300000000D2201230297FBF762FF10B1072047
:10524000E1E100BFDAF8000010999DF84C20401A07
:1052500048BF404200EE100A02F01F039DF84D20A7
:105260009DF84E10B8EEC00A20EE080A63B1581E31
:1052700024D010F00304A3F1020527D0012C65D13E
:105280009FEDB81A28466FE0B2EE041AB4EE410A58
:105290009FEDB51A0020F1EE10FA4FF00003B4EEC6
:1052A000410AB8BF0123F1EE10FAC8BF012018432C
:1052B0007AE000BF9FEDAD1A2BE000BFB3EE091AF4
:1052C00061E000BF9FEDA91A12E000BFB3EE091A1A
:1052D0004AE000BF6FF00303022908BF6FF002032A
:1052E00002290FF20C5108BF043191ED001A2B4432
:1052F000BCF1030F0DD39FEDDA2A00BF21EE021A95
:1053000021EE021A21EE021A043B190621EE021ABE
:10531000F4D10EEB02010028B0EE402A13AD00F0EC
:105320009E80421E0AD012F00305A0F1020309D0AC
:10533000012D75D19FED542A1A467FE09FED8B2AEF
:105340008DE000BF9FED892A78E000BF6FF0030079
:10535000022C0FF2B04708BF6FF00200022C08BF0A
:10536000043797ED001A1844032D0CD39FEDD92A6A
:1053700021EE021A21EE021A21EE021A0438030667
:1053800021EE021AF4D180EE010ABFEE001A30EECF
:10539000010A9FED1F1AB0EEC00AB4EE410AF1EE09
:1053A00010FACCBF01200020DAF80430119F02F07F
:1053B0001F05DB1B48BF5B4200EE103AB8EEC00A87
:1053C00020EE080A65B16A1E1CD012F00304A5F194
:1053D000020321D0012C61D19FED621A1A466BE0C5
:1053E0009FED611A821CB4EE410AB2EE041AF1EE8E
:1053F00010FAC8BF1046B4EE410AF1EE10FAB8BF79
:10540000104678E0B3EE091A65E000BF000080376F
:10541000295C0F3E00000000B3EE091A4CE000BF0B
:105420006FF00302022D0FF2C83708BF6FF00202BF
:10543000022D08BF043797ED002A024413AD032B59
:105440000DD39FED873A00BF22EE032A22EE032AF6
:1054500022EE032A043A100622EE032AF4D1002990
:105460003FF408AE481E0BD010F00303A1F1020276
:1054700010D0012B7CD19FED040A104685E000BFBF
:105480009FED3A0AF6E500BFADFFB33E9A99993E0B
:105490003333733F9FED350A77E000BF6FF00302AF
:1054A000022C0FF2603708BF6FF00202022C08BF17
:1054B000043797ED001A2A44032B0CD39FEDD32A0F
:1054C00021EE021A21EE021A21EE021A043A130604
:1054D00021EE021AF4D180EE010ABFEE001A30EE7E
:1054E000010A9FEDC61AB0EEC00AB4EE410AF1EE11
:1054F00010FAC8BF0230DAF80820129BD21A48BF4F
:10550000524200EE102A01F01F03B8EEC00A20EE4E
:10551000080A6BB1591E1DD011F00307A3F1020256
:105520001CD0012F42D19FEDB61A11464BE000BFAF
:105530009FEDB71A011DB4EE410AB2EE041AF1EE66
:1055400010FAC8BF0846B4EE410AF1EE10FAB8BF2F
:10555000084658E0B3EE091A45E000BFB3EE091A59
:1055600031E000BF3333D1410000D2427B14AE3E64
:105570006FF00300022B08BF6FF00200022B9CA308
:1055800008BF043393ED000A0844032AFFF472AD08
:105590009FED993A20EE030A20EE030A20EE030A5B
:1055A0000438010620EE030AF4D163E56FF003012D
:1055B000022F08BF6FF00201022F92A708BF043725
:1055C00097ED001A1944032A0DD39FED902A00BFCE
:1055D00021EE021A21EE021A21EE021A04390A06FD
:1055E00021EE021AF4D180EE010ABFEE001A30EE6D
:1055F000010A9FED821AB0EEC00AB4EE410AF1EE44
:1056000010FAC8BF0430B0FA80F04509B9F1000FB4
:1056100008BF0235DDF810904FF6FF70ABF80E00B2
:10562000FF208BF810004FF0FF30CBF8080001206E
:10563000B8F57A7F8BF80C0008DAB8F1FA0F0DD0C4
:105640000B9CB8F5FA7F2DD108200DE00AD00B9CF9
:10565000B8F5FA6F26D1182006E000BF002002E05E
:105660001D5A843F10200B9C8DF84C00DBE9002074
:1056700013AB017801209279CDE9003040F284002B
:105680000F27C2F2000001230297FBF7F1FE20B9B9
:105690009DF84C00C0088BF808009BF80A00002811
:1056A00000F081800A996FF0010050FA81F04FEA12
:1056B0007000072843D8DFE800F0050F4219424286
:1056C000422300BF00208DF84C009BF80910814256
:1056D0001ED134E054E3853F08208DF84C000120B2
:1056E0009BF80910814213D129E000BF10208DF8EA
:1056F0004C0002209BF80910814209D11FE000BF35
:1057000018208DF84C0003209BF80910814216D018
:10571000DBE9002013AB01780120D279CDE900301C
:1057200040F284000F27C2F2000001230297FBF72A
:105730009FFE20B99DF84C00C0088BF809009BF82B
:105740000A0080B3099808B1012010E0089808B158
:1057500002200CE0079808B1032008E0069808B181
:10576000042004E0059800280CBF062005209BF8C3
:105770000B108DF84C00814215D0DBE9002013ABF3
:10578000017801209278CDE9003040F284000F27A3
:10579000C2F2000001230297FBF76AFE18B99DF8D8
:1057A0004C008BF80B00304600F01CFA204600F04D
:1057B00097FA4846FEF748FE0C9810B1012000F019
:1057C0001DF9284614B0BDEC028B01B0BDE8F08F86
:1057D00002000000040000000800000010000000AB
:1057E000040000000800000010000000200000007D
:1057F0005E72C03E631EBA3E1D5A843F295C0F3E56
:105800003333D1419AE3E441BDD2DA4154E3853FD9
:105810000000D24210B584B040F21404C2F2000479
:10582000A17A002938D002384FEA700107294FF0D9
:10583000FF3044D8DFE801F0040C43144343433401
:1058400000208DF80F00617A814230D00FE000BF58
:1058500008208DF80F000120617A814227D006E0F0
:1058600010208DF80F000220617A81421FD0D4E908
:1058700000200DF10F0301780120D279CDE900302D
:1058800040F284004FF00F0CC2F200000123CDF86B
:1058900008C0FBF7EDFD68B14FF0FF3004B010BD5C
:1058A00018208DF80F000320617A8142DFD100209B
:1058B00004B010BD9DF80F00C0086072002004B055
:1058C00010BD000070B584B040F21405C2F20005AE
:1058D000A97C814202D1002004B070BD0446D5E904
:1058E0000020012301780F201279CDE9013040F228
:1058F00084000DF10F06C2F2000001230096FBF7B1
:10590000FFFB002C44D000285FD19DF80F0001233D
:1059100000F0DF008DF80F00D5E9002001780F209E
:105920001279CDE9013040F28400C2F20000012377
:105930000096FBF79DFD002847D10320FBF730FAC6
:1059400095F8221095F823206FF07D00002908BFFC
:1059500002208DF80F001AB140F030008DF80F00D2
:10596000D5E900204FF00F0C01780120D27DCDE960
:10597000006040F28400C2F200000123CDF808C0AC
:10598000FBF776FD08BBAC74002004B070BD00BF0F
:10599000D8B99DF80F00A97A00F0DF0001F00101ED
:1059A00040EA41108DF80F00D5E90020012301786D
:1059B0000F201279CDE9013040F28400C2F20000DC
:1059C00001230096FBF754FD20B14FF0FF3004B0E7
:1059D00070BD00BF0320FBF7E3F995F8220095F8AE
:1059E0002310024600281CBF01226FF07F00D20165
:1059F00000298DF80F20AFD1B2E70000F0B585B0D7
:105A000040F21405C2F2000595F82410814200F01E
:105A10008980002852D095F82500002800F0868063
:105A200009B9A87AC0B100208DF81100D5E900208D
:105A30000DF1110301780120527CCDE9003040F2D4
:105A400084000F26C2F2000001230296FBF710FD2E
:105A500010B99DF81100687400200024FFF732FF90
:105A6000E88C00F0BFF868688DF8104040F28404BC
:105A70000178012704A8C2F200040F26CDE900072F
:105A80002046232201230296FBF7F2FC02208DF828
:105A90001200D5E9002001230178527C0DF112009B
:105AA000CDE90007204685F824700296FBF7E0FC5C
:105AB000B0BB9DF81200687432E000BF09B9A87A43
:105AC000C0B100208DF81300D5E900200DF11303BB
:105AD00001780120527CCDE9003040F284000F278C
