:020000040800F2
:10000000F80400209D01000809230008C919000810
:10001000852200083D0900080526000800000000B0
:100020000000000000000000000000001123000894
:1000300041090008000000000D23000815230008F6
:10004000B7010008B7010008B7010008B7010008B0
:10005000B7010008B7010008B7010008B7010008A0
:10006000B7010008B7010008B7010008B701000890
:10007000B7010008B7010008B7010008B701000880
:10008000B7010008B7010008B7010008B701000870
:10009000B7010008B7010008B7010008B701000860
:1000A000B7010008B7010008B7010008B701000850
:1000B000B7010008B7010008B7010008B701000840
:1000C000B7010008B7010008B7010008B701000830
:1000D000B7010008B7010008B7010008B701000820
:1000E000B7010008B7010008B7010008B701000810
:1000F000B7010008B7010008B7010008B701000800
:10010000B7010008B7010008B7010008B7010008EF
:10011000B7010008B7010008B7010008B7010008DF
:10012000B7010008B7010008B7010008B7010008CF
:10013000B7010008B7010008B7010008B7010008BF
:10014000B7010008B7010008B7010008B7010008AF
:10015000B7010008B7010008B7010008B70100089F
:10016000B7010008B7010008B7010008B70100088F
:10017000B7010008B7010008B7010008000000003F
:10018000B7010008B7010008DFF80CD000F072FBDF
:100190000048004705330008F8040020064880475F
:1001A00006480047FEE7FEE7FEE7FEE7FEE7FEE75C
:1001B000FEE7FEE7FEE7FEE7C52300088901000829
:1001C0002DE9F05F0546002092469B46884606468C
:1001D000814640241BE0284641464746224600F01F
:1001E0004BFA53465A46C01A914110D3114618464D
:1001F000224600F032FA2D1A67EB01084F462246DC
:100200000120002100F029FA17EB00094E41201EC1
:10021000A4F10104DFDC484631462A464346BDE8E6
:10022000F09F2DE9F0410024061B254671F10006E0
:1002300005DA01240027D0EB070067EB0101161E49
:1002400073F1000605DA0027D2EB0702012567EB00
:100250000303FFF7B5FF86460E4617469C46AC42A1
:1002600004D00025D0EB050E65EB010624B100207B
:10027000D2EB000760EB030C704631463A4663460A
:10028000BDE8F08130B504460020034600E05B1C69
:10029000934203D2E05CCD5C401BF8D030BD2DE929
:1002A000FE4F804681EA0300C00F0C46009021F00B
:1002B000004123F00045B8EB0200A94105D24046B9
:1002C000214690461C460B46024623F00040104350
:1002D00047D0270DC7F30A00C3F30A510290401A12
:1002E000019040286BDAC3F3130040F4801B0098A0
:1002F000924620B10023D2EB030A63EB0B0B01986B
:100300005946C0F14002504600F0A7F906460D4696
:1003100050465946019A00F0BFF910EB08006141C0
:10032000002487EA115284EAE7731A4340D0009A06
:1003300062B3019A012A4FEA075215DC001B61EBF8
:1003400002014FF0004202EA0752CDE90042001CD0
:1003500041F5801132462B4600F0F6F903B0BDE8B6
:10036000F08F40462146F9E7001B61EB0201001CBB
:1003700041F5801300185B412018A2F5001747EBE8
:10038000030140EAD570B6196D4111E06D084FEADE
:10039000360645EAC0754FEA0752001B61EB0201C1
:1003A000001C41F5801149084FEA30000019514105
:1003B00032462B4603B0BDE8F04F00F0B6B90098C6
:1003C000012240000023D0EB020263EBE0730098AF
:1003D00021464FEAE074B8EB000061EB0401E9E765
:1003E00083F000435BE781F0004158E72DE9FE4FC1
:1003F00081EA030404F0004421F0004100944FF02E
:10040000000B23F0004350EA01045ED052EA0304DB
:100410005BD0C3F30A54C1F30A552C44A4F2F3345D
:100420000194A0FB0254C1F3130141F48011C3F302
:10043000130343F4801301FB024400FB034E840AC0
:10044000970A44EA815447EA8357A4FB0768029558
:100450008D0A05FB07854FEA932C04FB0C542705F6
:10046000029D4FEA065847EA1637B5EB08056EEBD2
:10047000070C870E920E47EA811742EA8312A7FB08
:100480000201B6EB0B0164EB00042B0D43EA0C33C5
:100490005E1844EB1C50DA465146E7FB0201C5F3F7
:1004A00013044FEA0B3343EA14534FEA0432019C1E
:1004B00043EA0603A4F10C040294009CCDE900B4C5
:1004C00000F042F903B0BDE8F08F00200146F9E7E3
:1004D0002DE9F04D81EA030404F0004B21F00045C2
:1004E00014464FF0000A23F0004150EA050220D0E4
:1004F00054EA01021DD0C5F30A570246C5F313039F
:10050000C1F31300C1F30A5640F4801543F480137D
:10051000A7EB0608101BD64608F2FD3873EB050062
:1005200002D308F1010801E092185B41B8F1000F15
:1005300003DA00200146BDE8F08D00204FF4801161
:10054000064684460EE0171B73EB050705D3121B06
:1005500063EB050306434CEA010C49084FEA3000FF
:1005600092185B4150EA0107EDD152EA030012D024
:1005700082EA040083EA0501084305D0101BAB4161
:1005800006D20122002306E000224FF0004302E0E1
:100590006FF0010253101AEB06004CEB085110EB00
:1005A0000A0041EB0B01BDE8F04D00F0BEB80EB5FE
:1005B000C10F80EAE0700844CA07002140F23343CB
:1005C0008DE80E000A460B4600F0BEF803B000BDF1
:1005D00000F0004230F000400AD0C10D01F560711A
:1005E000C0F3160042EA0151C208400711437047A8
:1005F00000200146704701F0004330B421F0004173
:1006000050EA010206D00A0DA2F56072C1F313018F
:10061000002A02DC30BC00207047440F44EAC104C9
:10062000C100E01830BC00EBC25000F047B830B554
:100630000B46014600202022012409E021FA02F5A0
:100640009D4205D303FA02F5491B04FA02F528443A
:10065000151EA2F10102F1DC30BD202A04DB203A94
:1006600000FA02F1002070479140C2F1200320FA05
:1006700003F3194390407047202A04DB203A21FA03
:1006800002F00021704721FA02F3D040C2F12002AB
:100690009140084319467047202A06DBCB17203AC1
:1006A00041FA02F043EAE07306E041FA02F3D04077
:1006B000C2F1200291400843194670470029A8BFA3
:1006C0007047401C490008BF20F00100704710B47B
:1006D000B0FA80FC00FA0CF050EA010404BF10BC30
:1006E000704749B1CCF1200421FA04F411FA0CF15D
:1006F00018BF012121430843A3EB0C01CB1D4FEA96
:1007000000614FEA102042BF002010BC704700EB90
:10071000C35010440029A4BF10BC7047401C4900BE
:1007200008BF20F0010010BC704710B5141E73F113
:10073000000408DA401C41F1000192185B411A43A1
:1007400001D120F0010010BD2DE9F04D92469B46ED
:1007500011B1B1FA81F202E0B0FA80F22032904693
:10076000FFF77BFF04460F4640EA0A0041EA0B010F
:1007700053465A46084313D0114653EA010019D094
:10078000C8F140025046FFF777FF05460E46504637
:1007900059464246FFF761FF084305D0012004E0B7
:1007A00020463946BDE8F08D0020054346EAE07654
:1007B0002C4337430A986305E40AA0EB08000022A3
:1007C000FD0A44EA47540A3002D500200146E9E711
:1007D000010510196941DDE9084500196941BDE8C5
:1007E000F04DA2E7C1F30A52C1F3130140F2FF3307
:1007F00041F480119A4202DA00200146704740F22B
:1008000033439A42A2F2334202DC5242FFF734BF32
:10081000FFF723BF30B5041E71F1000404DB4FF075
:100820000044404264EB0101141E73F1000405DB37
:100830001C464FF00043524263EB04038B4208BF57
:10084000824230BD30B5041E71F1000404DB4FF06C
:100850000044404264EB0101141E73F1000405DB07
:100860001C464FF00043524263EB0403994208BF19
:10087000904230BD064C074D06E0E06840F00103B1
:1008800094E8070098471034AC42F6D3FFF780FC99
:10089000786F0008986F00082DE9F04D00231A4684
:1008A0001B1A8A4103DB00200146BDE8F08DC1F32D
:1008B0000A52C1F3130141F480154FF0000BD10728
:1008C00002D100186D41521E0027044640F2FF116C
:1008D000384601EB620A3E468046024600204FF44D
:1008E0008011FFF7C9FEC2197141BB1846EB010028
:1008F000B4EB030C75EB000C04D3E41A65EB0005B4
:1009000017460E46241908F101006D41804634282F
:10091000E3DDF91946EB0600091BA84103D24FF0AD
:10092000FF32134601E0002213461BEB070046EBA3
:100930000A51BDE8F04DFFF7F8BE0000FEE70000E9
:1009400070470000EFF3108072B600BFFEE70000B2
:10095000B0B5044600F0F0F8054640F24000C2F29F
:1009600000000078611C18BF044400BF00F0E4F8E8
:10097000401BA042FAD3B0BD2DE9F04F82B000F188
:100980003E4241F6004502F1FF77C4F2020508221B
:1009900043F6004E4FEAB726A84208BF0722C4F22A
:1009A000010E072E38BF4FEAB72201250026002787
:1009B0004FF00008009208E008F101080437B8F190
:1009C000100F06F1020600F0A7800C6805FA08F97E
:1009D00014EA090FF0D0D1F804B003220BF0030C95
:1009E000ACF10104B240012C6FEA020A10D882680F
:1009F000CC6802EA0A02B440224382604268CBF328
:100A0000001422EA090204FA08F42243426005E0D5
:100A1000BCF1030F02D14FF0030C20E0C2688C68D8
:100A200002EA0A02B4402243BCF1020FC26016D1AE
:100A30006FF0030202EA58020244D2F820C007F025
:100A40001C050F230C69AB402CEA030304FA05F5DF
:100A50002B431362D1F804B001250BF0030C02689C
:100A60000CFA06F302EA0A021A431BF4403F026042
:100A7000A2D0002243F644030192C4F202031A6892
:100A80004FF6084C42F480421A601A68CFF6FF7C99
:100A900002F480420192019A28F00302724452F853
:100AA0000C3007F00C050F24AC40A343009C04FA63
:100AB00005F52B4342F80C30DEF808204B6842EA7B
:100AC000090543F60C4CDC0258BF22EA0905CEF8B2
:100AD0000850C4F2010CDCF800209C0242EA09052F
:100AE00058BF22EA0905CCF80050DEF804209C0328
:100AF00042EA090558BF22EA0905CEF80450DEF89B
:100B00000020DB0342EA090558BF22EA0905CEF8B6
:100B10000050012550E700BF02B0BDE8F08F000093
:100B20000069084018BF012070470000002A08BF74
:100B3000090481617047000040F2F400C2F2000035
:100B40000068704740F2400040F2F401C2F2000039
:100B5000C2F2000100780A68104408607047000083
:100B600080B543F60040C4F20200016841F4007110
:100B70000160016841F480610160016841F48071A5
:100B80000160032000F074F80F2000F005F800F079
:100B900027F8002080BD000070B540F24006C2F288
:100BA000000640F248013278C2F200014FF47A7335
:100BB0000968B3FBF2F20446B1FBF2F1084600F01B
:100BC0002FFB0F2C4FF0010508D838B94FF0FF303C
:100BD00021460022002500F01FF87460284670BDF1
:100BE00082B0002043F640010190C4F202014A683D
:100BF00042F480424A604A6802F480420192019ABB
:100C00000090086840F080500860086800F080504C
:100C10000090009802B0704710B54EF60C5CCEF212
:100C2000000CDCF80030C3F3022E8EF00704042C15
:100C300028BF0424BEF103034FF0FF3E0EFA04F474
:100C400038BF0023A14399400EFA03F39A4311439E
:100C500000F00F0200F160430901043A03F5644318
:100C60006244002848BF02F10C03197010BD000057
:100C70004EF60C51CEF200010A684FF6FF031A40FF
:100C800060F30A2242F0806040F0FD700860704717
:100C90002DE9F041002800F08B8043F60808C4F2EB
:100CA00002080446D8F8F8030D4600F00700884211
:100CB00007D288F8F853D8F8F80300F00700A842E4
:100CC00076D12068810717D5410705D5D8F80010DF
:100CD00041F4E051C8F80010010705D5D8F800101C
:100CE00041F46041C8F80010D8F80010A26821F063
:100CF000F0011143C8F80010C0073FD1D8F8F8033D
:100D000000F00700A84207D988F8F853D8F8F8038C
:100D100000F00700A8424BD12068410707D5D8F85A
:100D20000010E26821F4E0511143C8F800100007F8
:100D300008D5D8F80000216920F4604040EAC100DD
:100D4000C8F8000000F07CF8D8F8001046F2CE2277
:100D5000C1F30311C0F60002515C40F2480220FAD0
:100D600001F140F24400C2F200000068C2F2000249
:100D70001160FFF711FF0020BDE8F0816068811E5F
:100D8000022907D258F8081C89015CBF0120BDE880
:100D9000F08111E0012807D158F8081C89035CBFD5
:100DA0000120BDE8F08107E058F8081C890703D44A
:100DB0000120BDE8F08100BFD8F8001021F0030148
:100DC0000843C8F80000FFF7B7FE064641F288372F
:100DD000D8F80000616800F00C00B0EB810F8DD0F6
:100DE000FFF7AAFE801BB842F2D90320BDE8F081CC
:100DF00040F2480043F60801C2F20000C4F20201CA
:100E00000068096846F2DE22C1F38221C0F60002C2
:100E1000515CC8407047000040F2480043F60801AA
:100E2000C2F20000C4F202010068096846F2DE2244
:100E3000C1F34231C0F60002515CC8407047000067
:100E400010B543F60404C4F20204606800F00C011B
:100E500042F200400829C0F2F40007D0042918BF6C
:100E600010BD41F20020C0F27A0010BD216801F0EF
:100E70003F02216823684902C3F3881106D4A1FB0D
:100E800000010023FFF79CF907E000BF41F20020BA
:100E9000C0F27A004843B0FBF2F021680222C1F3AD
:100EA000014102EB4101B0FBF1F010BD2DE9F04131
:100EB00082B0002868D00446007843F60006C007D8
:100EC000C4F202060BD0B06800F00C00042840F019
:100ED0009F803068800302D56068002854D0207855
:100EE00080071AD5B06810F00C0F09D0B06800F078
:100EF0000C00082840F0A6807068400200F1A28033
:100F00003068800702D5E06801283DD1306821694A
:100F100020F0F80040EAC10030602078000737D4A4
:100F2000207840074CD4A56955B3B06800F00C0098
:100F3000082840F0BB80012D26D07068E16900F4DC
:100F400080028A4220D1216A00F03F028A421BD1EE
:100F500047F6C071626A0140B1EB821F14D1A16AE9
:100F60004FF6FF73C903994300F44032A1F5803175
:100F70008A4209D1E16A00F07060B0EB016F03D1E1
:100F8000002002B0BDE8F081012002B0BDE8F08190
:100F90006069002840F20000C4F2472076D00121A9
:100FA000C0F8801EFFF7C8FD054600BF706F8007C0
:100FB000B6D4FFF7C1FD401B0228F7D9DDE000BF22
:100FC000306C10F080580AD100200190306C40F055
:100FD00080503064306C00F080500190019847F2EE
:100FE0000007C4F200073868C00541D4386840F4EF
:100FF00080703860FFF7A0FD054600BF3868C00567
:1010000036D4FFF799FD401B0228F7D9B5E000BFA1
:10101000B06800F00C00082803D1706840023FF56A
:1010200058AF6068B0F5803F07D0B0F5A02F40F012
:101030008D80306840F480203060306840F480302B
:1010400030608DE0E068002852D00020C4F24720D4
:1010500001210160FFF770FD054600BF3068800781
:101060003FF554AFFFF768FD401B0228F6D984E036
:10107000A068012805D005284ED1306F40F004004B
:101080003067306F40F0010030674FE00021C0F85A
:10109000801EFFF751FD0546706F80077FF540AF5A
:1010A000FFF74AFD401B0228F6D966E00027C4F28C
:1010B000472700203866FFF73FFD022D05460BD17C
:1010C000306880015ED5FFF737FD401B02284FF0E6
:1010D0000300F5D955E700BF306880017FF550AFB8
:1010E000FFF72AFD401B02284FF00300F4D948E720
:1010F0000020C4F2472000210160FFF71DFD0546D6
:10110000306880077FF509AFFFF716FD401B022806
:101110004FF00300F4D934E7316F002821F00101CA
:101120003167316F21F0040131674DD0FFF704FDC5
:10113000054641F2883700BF306F800756D4FFF76D
:10114000FBFC401BB842F7D917E000BF316800280C
:1011500021F480313160316821F4802131604FD039
:10116000FFF7EAFC054600BF306880033FF5B7AEE5
:10117000FFF7E2FC401B6428F6D9032002B0BDE86B
:10118000F08100BF04F11C052FCD084340EA821016
:10119000D9034FF6FF729143A1F5803140EA056013
:1011A0000843706001203866FFF7C6FC044600BFA4
:1011B000306880013FF5E4AEFFF7BEFC001B02285B
:1011C0004FF00300F4D9DCE6FFF7B6FC054641F228
:1011D000883700BF306F800708D5FFF7ADFC401B94
:1011E000B8424FF00300F5D9CBE600BFB8F1000FCD
:1011F0007FF499AE306C20F08050306493E600BFED
:10120000FFF79AFC054600BF306880037FF567AEA4
:10121000FFF792FC401B64284FF00300F4D9B0E6BE
:10122000411E0020B0EB116F1CBF012070474EF231
:101230001002CEF2000251604EF62351CEF20001B0
:10124000F0230B700721906011607047002804BFE5
:101250000120704710B5044690F83D0028B90020E1
:1012600084F83C00204600F01FF8022084F83D007E
:101270002068211D01F0B0F8012084F8460084F8B0
:101280003E0084F83F0084F8400084F8410084F870
:10129000420084F8430084F8440084F8450084F850
:1012A0003D00002010BD000081B0006842F2000146
:1012B000C4F20001884201D001B0704700200090C4
:1012C00043F64000C4F20200016841F480710160FD
:1012D000006800F480700090009801B07047000032
:1012E0002DE9F04390F83C30012B04BF0220BDE80B
:1012F000F0834FEAB202032A00F2FC80DFE802F03A
:10130000023E7EBE036840F200471A6A43F48065DD
:1013100022F001021A621C6A1A46D3F804E052F85D
:1013200018CF8E6824F00204C4F20107BD4244EADB
:10133000060405D1CE6824F00C0426F004063443DC
:101340000E68BD4207D1D1E905572EF4407E45EA2B
:101350000E0545EA070E2CF073073743C3F804E087
:101360009F614F6809695F631C629F6947F00807C6
:101370009F619F6927F004079F61B1E0036840F215
:1013800000481A6A43F4806522F010021A621C6A4F
:101390001A46D3F804C052F818EF8F6824F02004DE
:1013A000C4F20108454544EA071407D1CF686FF03D
:1013B000400624F0C00406EA07163443D1F8009032
:1013C000454506D1D1E905562CF440672E4347EA3E
:1013D000860C2EF4E64747EA0927C3F804C09F614C
:1013E0004F6809699F631C629F6947F400679F61AA
:1013F0009F6927F480679F6171E000BF036840F236
:1014000000481A6A43F4806522F480721A621C6AEA
:101410001A46D3F804C052F81CEF8F6824F4007405
:10142000C4F20108454544EA072408D1CF6840F2D8
:10143000FF463F0224F4406427EA06063443D1F80D
:101440000090454506D1D1E905562CF440572E436E
:1014500047EA061C2EF0730747EA0907C3F804C0E1
:10146000DF614F680969DF631C62DF6947F00807C5
:10147000DF61DF6927F00407DF6131E0036840F2D4
:1014800000451A6A43F4806722F480521A621A46B1
:10149000D3F820C05C6852F81CEFD1F800808E6849
:1014A000C4F20105AF4204D14D6924F4804444EAFA
:1014B00085142CF4005747EA06372EF4E64646EA30
:1014C00008265C60DE614E6809691E641F62DF6980
:1014D00047F40067DF61DF6927F48067DF61090295
:1014E0001368194311600021002280F83C2008464F
:1014F000BDE8F0830121002280F83C200846BDE8C9
:10150000F0830000002804BF0120704710B5044696
:1015100090F83D0028B9002084F83C00204600F0F7
:101520001FF8022084F83D002068211D00F054FFC0
:10153000012084F8460084F83E0084F83F0084F8D7
:10154000400084F8410084F8420084F8430084F8A5
:10155000440084F8450084F83D00002010BD0000E0
:101560007047000041B1082910D0042914BF00F1D0
:10157000410200F13F020BE090F83E20012A1CBF1F
:1015800001207047022280F83E2013E000F1400263
:101590001278012A1CBF012070470222082907D0B7
:1015A000042914BF80F8412080F83F2002E000BFEA
:1015B00080F84020006801F01F010122036A02FA4E
:1015C00001F123EA01020262026A114341F2FF7251
:1015D000C4F20002904201620CDC40F2FF71C4F2DE
:1015E0000001884214DCB0F1804F37D040F2004156
:1015F00016E000BF40F2FF31C4F20101884215DC61
:1016000041F60001C4F20001884227D0002115E014
:1016100040F60001C4F2000188421FD040F60041AC
:10162000C4F20001884219D01FE000BF44F200015B
:10163000C4F20101884211D040F20041C4F201011C
:10164000884212D1416C40F2004340F48062C4F2FF
:10165000010341F400419A42416406D1816801F0DE
:101660000701062904BF00207047016841F001010D
:101670000160002070470000002804BF012070476F
:1016800010B5044690F83D0028B9002084F83C00CD
:10169000204600F021F8242084F83D002068C1682D
:1016A00021F40051C160204600F034FF2068016938
:1016B00021F490410161416921F02A014161C16831
:1016C00041F40051C16000202021206484F83D10C5
:1016D00084F83E1010BD000080B586B0016844F665
:1016E0000040C4F20000814202D006B080BD00BFBD
:1016F000002143F630020191C4F20202136900F5A1
:10170000DA3043F400231361136903F400230193D7
:10171000019B0191136843F00103136012680223D7
:1017200002F001020192019ACDE90231082103225F
:10173000059101A901920492FFF71EF906B080BD40
:101740002DE9F04381B0044690F83D0020280DD1EA
:101750000F4600294FF0010000F0DD801646002AF8
:1017600000F0D98094F83C00012803D1022001B098
:10177000BDE8F083012084F83C0000202064212093
:101780001D4684F83D00FFF7D7F9A684E684A168DA
:101790000646B1F5805F03D12069002800F0108172
:1017A000B8460027002084F83C00E18C206800291E
:1017B00000F0908005F101090DE000BFB8F1000FC5
:1017C00028D018F8011B4160E18C0139E184E18CDB
:1017D000002900F07F8001680906EFD4B9F1000FFD
:1017E0000AD0FDB1FFF7A8F9801BA8421AD82068DB
:1017F00001680906F6D5E1E701680906DED401684B
:1018000009065CBF01685FEA0161D7D40168090677
:10181000F2D5D3E737F8021B4FF000086FF35F21D2
:10182000D1E700BF206850E8030F216820F4D07092
:1018300041E80302BAB3206850E8030F216820F49E
:10184000D07041E8030272B3206850E8030F2168AA
:1018500020F4D07041E803022AB3206850E8030F57
:10186000216820F4D07041E80302002ADAD11AE09E
:10187000206850E8050F216820F0010041E80502CA
:10188000DAB1206850E8050F216820F0010041E836
:10189000050292B1206850E8050F216820F0010090
:1018A00041E805024AB1206850E8050F216820F0A0
:1018B000010041E80502002ADAD1202084F83D0029
:1018C00084F83E00002084F83C00032001B0BDE80D
:1018D000F08300BF0168490619D4FDB1691C0DD120
:1018E0000168490613D4016849065CBF01685FEAD4
:1018F00041610CD401684906F2D508E0FFF71CF9F4
:10190000801BA8420AD8206800684006F6D520202F
:1019100084F83D00002001B0BDE8F083206850E865
:10192000030F216820F4D07041E80302E2B320687D
:1019300050E8030F216820F4D07041E803029AB305
:10194000206850E8030F216820F4D07041E80302BA
:1019500052B3206850E8030F216820F4D07041E8AA
:101960000302002ADAD11FE0206850E8050F216841
:1019700020F0010041E80502002A9ED0206850E8CE
:10198000050F216820F0010041E80502002A3FF41C
:1019900094AF206850E8050F216820F0010041E86D
:1019A0000502002A3FF489AF206850E8050F21683E
:1019B00020F0010041E80502002AD5D17DE700BFF3
:1019C0004FF00008EEE60000FEE7000010B540F220
:1019D0000044C4F2020420464FF400710022FFF7D5
:1019E000A5F820464FF480710122FFF79FF82046AA
:1019F0004FF400710122BDE81040FFF797B80000D6
:101A00002DE9F04F83B040F20045C4F20205019089
:101A100028464FF480710122FFF788F828464FF4DA
:101A20000071FFF77DF8029028464FF48071002284
:101A3000FFF77CF828464FF480710122FFF776F813
:101A400028464FF40071FFF76BF8824628464FF4A2
:101A500080710022FFF76AF828464FF48071012256
:101A6000FFF764F828464FF40071FFF759F88346F2
:101A700028464FF480710022FFF758F828464FF4AB
:101A800080710122FFF752F828464FF40071FFF7EA
:101A900047F8044628464FF480710022FFF746F8C5
:101AA00028464FF480710122FFF740F828464FF492
:101AB0000071FFF735F8064628464FF48071002282
:101AC000FFF734F828464FF480710122FFF72EF813
:101AD00028464FF40071FFF723F8074628464FF4D5
:101AE00080710022FFF722F828464FF4807101220E
:101AF000FFF71CF828464FF40071FFF711F88046F5
:101B000028464FF480710022FFF710F828464FF462
:101B100080710122FFF70AF828464FF40071FEF7A2
:101B2000FFFF814628464FF480710022FEF7FEFF3A
:101B30000198C8B128464FF400710022FEF7F6FF65
:101B400028464FF480710122FEF7F0FF28464FF43B
:101B500080710022FEF7EAFF28464FF4007101224F
:101B6000FEF7E4FF12E000BF28464FF400710122A7
:101B7000FEF7DCFF28464FF480710122FEF7D6FF06
:101B800028464FF480710022FEF7D0FF029800280B
:101B900018BF0120BAF1000F18BF4FF0010A4AEA3E
:101BA00040008000BBF1000F18BF4FF0010B40EA6E
:101BB0004B00002C18BF012420448000002E18BFC9
:101BC000012640EA4600002F18BF01273844800054
:101BD000B8F1000F18BF4FF0010840EA4800B9F112
:101BE000000F18BF4FF001094844C0B203B0BDE870
:101BF000F08F0000B0B540F20044C4F20204054684
:101C0000C20920464FF40071FEF790FF20464FF4C2
:101C100080710122FEF78AFF20464FF48071002276
:101C2000FEF784FFC5F3801220464FF40071FEF7E3
:101C30007DFF20464FF480710122FEF777FF20469A
:101C40004FF480710022FEF771FFC5F34012204669
:101C50004FF40071FEF76AFF20464FF480710122B5
:101C6000FEF764FF20464FF480710022FEF75EFF0E
:101C7000C5F3001220464FF40071FEF757FF2046CF
:101C80004FF480710122FEF751FF20464FF480711E
:101C90000022FEF74BFFC5F3C00220464FF400714F
:101CA000FEF744FF20464FF480710122FEF73EFF0D
:101CB00020464FF480710022FEF738FFC5F3800202
:101CC00020464FF40071FEF731FF20464FF480713B
:101CD0000122FEF72BFF20464FF480710022FEF711
:101CE00025FFC5F3400220464FF40071FEF71EFFAA
:101CF00020464FF480710122FEF718FF20464FF472
:101D000080710022FEF712FF05F0010220464FF419
:101D10000071FEF70BFF20464FF480710122FEF7A1
:101D200005FF20464FF480710022FEF7FFFE20469B
:101D30004FF400710122BDE8B040FEF7F7BE00008D
:101D400010B540F20044C4F2020420464FF4007182
:101D50000122FEF7EBFE20464FF480710122FEF7D0
:101D6000E5FE20464FF400710022FEF7DFFE20461C
:101D70004FF480710022BDE81040FEF7D7BE00008E
:101D800010B540F20044C4F2020420464FF4007142
:101D90000022FEF7CBFE20464FF480710122FEF7B1
:101DA000C5FE20464FF400710122BDE81040FEF749
:101DB000BDBE0000B0B540F20044C4F202042046AB
:101DC0004FF400710122FEF7B1FE20464FF48071FE
:101DD0000122FEF7ABFE20464FF40071FEF7A0FE95
:101DE0000546002820464FF480714FF0000218BFCE
:101DF0000125FEF79BFE2846B0BD000070B582B0FD
:101E000014460D4606460DF1020368203B210622CA
:101E100000F0CAF810B102B070BD00BFBDF80210EA
:101E2000BDF8042009BA090C318011BABDF80620AA
:101E3000090C298011BA090C218002B070BD000084
:101E400070B582B014460D4606460DF102036820B7
:101E50004321062200F0A8F810B102B070BD00BF07
:101E6000BDF80210BDF8042009BA090C318011BA7E
:101E7000BDF80620090C298011BA090C218002B096
:101E800070BD00000000000080B582B00DF10603B7
:101E900068204121022200F087F8BDF80600C0BA90
:101EA000FEF785FB9FED0C0B53EC102BFEF710FBA0
:101EB0009FED0B0B53EC102BFEF7F1F9FEF79BFB9C
:101EC0009FED090A01EE100A21EE000ABDEEC00ADC
:101ED00010EE100A02B080BD000000000040754006
:101EE000A4703D0AD74342400000C84210B5FFF736
:101EF0006DFD6B20802100F08FF86420FEF728FD37
:101F00006B20002100F088F81B20182100F084F8D5
:101F10001C20002100F080F81920132100F07CF82B
:101F20001A20042100F078F83820002100F074F81D
:101F30006A20002100F070F82320002100F06CF8E6
:101F40003720802100F068F8FFF7FAFED020FFF775
:101F500051FEFFF72FFF7520FFF74CFEFFF72AFF1A
:101F6000FFF7EEFED120FFF745FEFFF723FF00202D
:101F7000FFF746FD0446FFF703FF682C1CBF012056
:101F800010BD6B20012100F047F86C2000210024D7
:101F900000F042F81920132100F03EF81A20042125
:101FA00000F03AF8204610BDF0B581B01C46154649
:101FB0000E460746FFF7C4FE7F00F8B2FFF71AFE91
:101FC000FFF7F8FE30B10124FFF7DAFE204601B03A
:101FD000F0BD00BF3046FFF70DFEFFF7EBFEFFF749
:101FE000AFFE47F00100C0B2FFF704FEFFF7E2FECC
:101FF00006E000BF0020FFF703FD04F8010B013DE0
:10200000E8B20128F6D008B10120F4E70024FFF778
:10201000B7FE204601B0F0BDB0B50C460546FFF74F
:102020008FFED020FFF7E6FDFFF7C4FE20B1FFF7DB
:10203000A7FE0120B0BD00BF2846FFF7DBFDFFF77C
:10204000B9FE2046FFF7D6FDFFF7B4FE0446002890
:1020500018BF0124FFF794FE2046B0BDF0B581B053
:102060001C4615460E460746FFF76AFE7800C0B2CA
:10207000FFF7C0FDFFF79EFE30B10124FFF780FEA1
:10208000204601B0F0BD00BF3046FFF7B3FDFFF7BB
:1020900091FE55B12078FFF7ADFDFFF78BFE0028CC
:1020A000EBD1013D04F10104F4D10024FFF768FEF7
:1020B000204601B0F0BD00002DE9F04387B00026B6
:1020C00043F6300006960196C4F20200016840F221
:1020D000004441F0040101600168C4F2020401F00F
:1020E0000401019101990196016804F5806541F0B0
:1020F000200101600168012201F020010191019994
:10210000019601684FF4005841F0800101600168B8
:10211000012701F08001019101990196016841F0C8
:1021200001010160016801F001010191019901962D
:10213000016841F00201016000684FF4005100F0B5
:102140000200019001982846FEF7F0FC20464FF46B
:10215000407101224FF44079FEF7E8FCCDE90466B6
:1021600002AE28463146CDE90287FEF705FC112074
:10217000CDE9030720463146CDF808900597FEF7D4
:10218000FBFB07B0BDE8F083B0B58CB042F20005B0
:1021900040F26800C4F200050021C2F20000A7224C
:1021A00044F61F63CDE90511CDE90311C0E90052E2
:1021B000C0E9021301618161FFF748F8002818BFE8
:1021C000FEF7C0FB40F26800C2F20000FFF79AF988
:1021D000002818BFFEF7B6FB602040F268040090AC
:1021E0000020C2F20004CDE90100049069462046B7
:1021F0000022FFF775F8002818BFFEF7A3FB206840
:10220000A84201D00CB0B0BD002043F630010790C9
:10221000C4F202010A6842F020020A60096801F073
:102220002001079107994FF4007107910221CDE930
:1022300008100A9009200B9005F5FA3007A9FEF75F
:102240009BFB0CB0B0BD000080B540F2B00044F67E
:102250000041C2F20000C4F2000100234FF00C0C58
:102260004FF4E13280E80E00C0E90333C0E905C352
:10227000C361FFF701FA002808BF80BDBDE88040B8
:10228000FEF760BBFEE7000010B5044681B10829E7
:102290001AD0042924D120684FF4FA6181634FF4E5
:1022A0007A60FEF755FB206800F1380123E000BF9B
:1022B00020684FF4FA6141634FF47A60FEF748FBFF
:1022C000206800F1340116E020684FF4FA61C16320
:1022D0004FF47A60FEF73CFB206800F13C010AE015
:1022E00020684FF4FA6101644FF47A60FEF730FB26
:1022F000206800F140014FF47A724FF47A600A606E
:10230000BDE81040FEF724BBFEE700007047000068
:1023100070470000FEF716BCB0B592B0002443F63B
:102320004000CDE90A44CDE908440594CDE90344D1
:10233000CDE901440094C4F202000168022541F095
:1023400080510160006800F080500090009847F2D2
:1023500000000094C4F20000016841F48041016073
:102360000068482100F48040009000980120069009
:102370004FF4803007904FF480000D9004200E90B1
:10238000119006A80C95CDE90F15FEF78FFD28B129
:10239000EFF3108072B600BFFEE700BF0F20CDE95B
:1023A00001054FF48050CDE9040001A802210394F7
:1023B000FEF76EFC20B1EFF3108072B6FEE700BFAF
:1023C00012B0B0BD4EF68850CEF20000016841F464
:1023D000700101607047000010B540F6FF3E0368D1
:1023E000C4F2000E40F2004C7045C4F2010C27DC30
:1023F000B0F1804F31D040F20042C4F2000290426E
:102400002BD040F60002C4F20002904225D041F6E3
:10241000FF72C4F20002904229DC70453CDCB0F14E
:10242000804F5FD040F20042C4F20002904259D087
:1024300040F60002C4F20002904253D056E000BFC2
:1024400040F60042C4F20002904206D0604504D03B
:102450000022C4F201029042D9D14A6823F07003ED
:10246000134341F6FF72C4F200029042D5DD43F6F9
:10247000FF72C4F20102904222DC42F20002C4F276
:10248000000290422ED00022C4F20102904229D0D4
:10249000604527D02AE000BF40F60042C4F20002A7
:1024A00090421FD041F60002C4F20002904219D0BF
:1024B00041F60042C4F20002904213D016E000BF81
:1024C00044F20002C4F2010290420BD044F6000232
:1024D000C4F20102904205D044F20042C4F201026B
:1024E000904203D1CA6823F44073134323F080025F
:1024F0004B69D1F800E08C681A430260C46240F472
:102500008062C0F828E0624504BF096901630121C7
:10251000416110BD10B504460068D4E902C22369C8
:10252000016921F4405111430161626943EA0C01E0
:10253000E3691143C268194349F20C639A4311439A
:10254000C1604169A26921F4407141F20043114325
:1025500040F48062C4F201039A42416102D1FEF765
:102560005BFC01E0FEF744FCE16963681922B1F508
:10257000004FA0FB020123D15A00DB0FFDF720FE24
:1025800048F21F51C5F2EB11A0FB01235A094FF687
:102590009C73C0F6FF7303F1805302FB03003223E8
:1025A00003EBC000A0FB01014FF4F87000EA11102A
:1025B00000EB0210C1F3421108442168886010BD8D
:1025C0009A009B0FFDF7FCFD48F21F51C5F2EB117D
:1025D000A0FB01235A094FF69C73C0F6FF7302FB60
:1025E0000300322303EB0010A0FB0101F02000EAFE
:1025F000511000EB0210C1F34311084421688860B8
:1026000010BD0000FEE700002DE9F04186B0044651
:102610004CF60220C0F6E3100DF10205CDF80200E1
:10262000682004212A4602F06BFBA3206FF03F01D3
:102630008DF8020014F0400608BF6FF05C016FF0E7
:1026400037026FF03D0308BF6FF05C0208BF6FF008
:102650005C038DF803106FF03B018DF804208DF8BA
:10266000053014F4C07708BF6FF05C016FF03302DF
:102670006FF0390308BF6FF05C0208BF6FF05C03B6
:102680008DF806104AF2A3318DF80720ADF8091035
:102690008DF80B0040F6A7200A212A468DF8083055
:1026A00002F02EFB202014F0030808BF6FF0270073
:1026B0008DF8020040F6B62001212A4602F020FBE8
:1026C000A0060BD4C720059048F6B000CCF2C3504A
:1026D00004904AF6B820CAF6AA200AE05D200590C8
:1026E00049F6B400C3F20D5004904AF6B820C8F67B
:1026F000B350039003AA4FF49760092102F000FB46
:102700002FB36FF04D016FF0740214F4807008BFA6
:102710006FF04F0108BF6FF07F026FF049036FF059
:10272000640508BF6FF04B03002808BF6FF06F050A
:102730008DF802108DF803200DF1020240F6A22060
:1027400004218DF804308DF8055002F0D9FAE00725
:1027500008D1D8208DF802000DF102024FF40B6071
:10276000012150E0F8208DF802000DF102024FF433
:102770000B60012102F0C4FA0720FA2100F004FBEB
:102780003F208DF80C0003AA4FF4A470012102F041
:10279000B7FA00208DF80C0003AA40F24F10012177
:1027A00002F0AEFA4FF4A050ADF80C0003AA4FF4BB
:1027B000EF70022102F0A4FA4FF4C840ADF80C000B
:1027C00003AA4FF4ED70022102F09AFA48F6006075
:1027D000C9F2F900039003AA4FF4AE70042102F08D
:1027E0008FFA4FF40060ADF80C0003AA4FF4AD70FF
:1027F000022102F085FA4FF40070ADF80C0003AA34
:102800004FF4AC70022102F07BFAA0076FF02600B3
:1028100058BF6FF027008DF802000DF1020240F260
:102820003D70012102F06CFA600752BF4FF08B300F
:102830004CF2C020CCF2C460039003AA40F698206A
:10284000042102F05DFA01F0BDFAE00652BF4FF03C
:10285000A33042F62000C3F63000039003AA40F6EE
:102860009E20042102F04CFA01F0ACFA40F250052F
:1028700044F00800C2F20005A88001F0A3FA002E7F
:1028800018BF0626002F18BF063614F0140F18BF05
:1028900046F01006B8F1000F18BF043600202E7065
:1028A00006B0BDE8F081000046F2E621C0F6000166
:1028B00040F6F6304FF48062C82301F071B8000092
:1028C0002DE9F04F89B01446DDE912A20F46002130
:1028D00040F25009AAF80010C2F2000999F800105D
:1028E0000DF1040B8046084659461E4601F00AFACF
:1028F00020B14FF0FF3009B0BDE8F08FB9F804C047
:102900001CF0140F50D09DF80520B6469DF8041019
:10291000BDF8066012049DF8095042EA016132BA1E
:102920009DF8083041EA1242BDF80A6022602A048C
:1029300042EA036233BA42EA134363609DF80D3002
:102940009DF80C60BDF80E501B0443EA06632EBAD6
:1029500043EA1646A6609DF811609DF8105011FBE1
:1029600031F1360412FB321146EA056613FB3311CE
:10297000BDF8120016FB36116FF0885211444FF665
:10298000FE7200BACFF6FF5246EA10409142E06074
:1029900072D801F017FA0020AAF800004FF0FF30BB
:1029A00009B0BDE8F08F00BF00215FEA4C6026D57A
:1029B00041F001021BF801001BF8022041F0030363
:1029C00042EA002041F002021BF802201BF803300B
:1029D000388043EA022041F0040241F005031BF86D
:1029E00002201BF80330788043EA0220B880BAF84E
:1029F000000041F0060140F00800AAF800001CF4B5
:102A0000C07F18D03BF801000BEB010200BA5388DD
:102A1000000CA8F8000018BA9288000CA8F8020070
:102A200010BA000CA8F80400BAF80000063140F013
:102A30007000AAF800005FEA8C7016D00BEB01055D
:102A40006878EC78C10709D0D9F8082032B104F0D1
:102A50000700411CC4F3C20090476878000704D502
:102A6000D9F80C1009B1A0098847304600F0CEFC17
:102A7000002009B0BDE8F08FBAF80000102140F442
:102A800080707646AAF800005FEA4C6090D4B6E702
:102A900010B584B004460DF1020000F07BFE40F258
:102AA0006000C2F200000088BDF802C000F003021E
:102AB000430754F822204FF00C0348BF524203EA68
:102AC00050038106E358C0F3811148BF5B4254F8BC
:102AD0002110C00548BF49424FEACC3080FB02C4F8
:102AE00080FB03E280FB01014FEA9C73800F43EA05
:102AF000840C4FEA9E7340EA810EA00D8DF804000D
:102B0000A00B8DF80500A0098DF80600900D8DF83A
:102B10000800900B8DF8090090098DF80A00880DC7
:102B20008DF80C00880B8DF80D00880943EA8203AC
:102B30008DF80E0001AA4FF425700C218DF807C006
:102B40008DF80B308DF80FE002F0DAF804B010BD0C
:102B500010B586B004464AF6BB70CDF6DF7005901E
:102B60004FF2AA10CDF6DF7004904FF2FE20CCF2A7
:102B7000AB40C82C039017D8E0B2C821B1FBF0F0ED
:102B8000002101388DF804108DF8050001AA40F2EB
:102B90001620022102F0B4F830B903AA40F6C12091
:102BA0000C2102F0ADF818B14FF0FF3006B010BDA7
:102BB00040F26400C2F200000480002006B010BDA4
:102BC000F0B581B040F26001C2F200010E880C2322
:102BD00006F003014EF2093450F8211003EA5603BF
:102BE000C0F2CA24720748BF4942C758C6F38113CE
:102BF00081FB041250F82350F0054FEA91704FEA20
:102C0000925148BF6D428DF80010910B40EA82004E
:102C10008DF8011091098DF802108DF803006A46B5
:102C20004FF47470042102F06BF8E0B9B00648BFAD
:102C30007F42A7FB0401FA1702FB0411800F8A0DE3
:102C400040EA81008DF800208A0B89098DF8012067
:102C50008DF802108DF803006A464FF47570042158
:102C600002F04EF820B14FF0FF3001B0F0BD00BFD0
:102C700085FB0401800F40EA8100010E8DF80010F1
:102C8000010C8DF80110010A8DF802108DF8030077
:102C90006A464FF47670042102F032F801B0F0BDBC
:102CA000B0B582B0054646F2CB21C0F60001C5F3AF
:102CB000C10300F00300CC5C0A5C8DF8054046F2CD
:102CC000C8248DF80420C5F38112C0F60004895C85
:102CD000205C8DF806108DF80000E05CA15C8DF89A
:102CE00001008DF8021001AA40F22640032102F0F3
:102CF00007F850BB6A4640F22A40032102F000F870
:102D000018BB45F23660C0F27600019044F22660AE
:102D1000C0F26600690700901CD4A80622D4E8051A
:102D200005D577208DF8060067208DF8020001AAEE
:102D30004FF48860032101F0E3FF30B96A4640F2A6
:102D40003140032101F0DCFFB0B14FF0FF3002B0A1
:102D5000B0BD00BF37208DF8040027208DF800009B
:102D6000A806DCD557208DF8050047208DF8010016
:102D7000E805D6D4DBE700BF40F26000C2F20000F5
:102D80000580002002B0B0BDB0B582B00446B1F5F8
:102D9000C86F4FF0FF3045D80D4614F0070141D001
:102DA0000DF1030000F0D8FC9DF8030002384FEA53
:102DB0007000072867D8C1B28B2222FA01F1C90737
:102DC00061D000EE105A9FED321AB8EE400A80EE44
:102DD000010A30A101EB800191ED001A35A101EB50
:102DE000800090ED002A20EE011A20EE020ABDEECE
:102DF000C00A10EE100ABDEEC10A10EE101A0A0A3F
:102E00008DF804208DF80510010A01AA951C8DF893
:102E10000610E1078DF8070006D1A00714D460075B
:102E200022D4002002B0B0BD01AA4FF4EA70022102
:102E300001F066FF38BB4FF4927002212A4601F080
:102E40005FFF00BBE9E700BF01AA4FF4EC7002216D
:102E500001F056FFB8B94FF4947002212A4601F0F0
:102E60004FFF80B9DBE700BF01AA4FF4EE700221EB
:102E700001F046FF38B94FF4967002212A4601F05E
:102E80003FFF0028CDD04FF0FF3002B0B0BD00BFF3
:102E900000004843000080460000004600008046D5
:102EA000000080450000804600008046000080460B
:102EB00000000045000040460000C04500004046BC
:102EC00000004045000040460000404600004046EB
:102ED0000000C04480B582B0019040F2B000C2F260
:102EE000000001A901224FF0FF33FEF729FC0198F1
:102EF00002B080BD2DE9F04F85B040F208070546CD
:102F00000120C2F200070C46ADF80800D7E9031013
:102F100016460078897C02AB0222FFF79FF8002852
:102F200040F0C280C820FDF713FD00208DF8080096
:102F3000D7E9031002AB0078C97B0122FFF78EF8B6
:102F4000002840F0B180D7E9031002AB007849793E
:102F50000122FFF783F8002840F0A680D7E903108C
:102F600002AB0078897C0122FFF778F8002840F056
:102F70009B80D7E9031002AB0078C97D0122FFF7DF
:102F80006DF8002840F09080D7E9031002AB00787C
:102F900009790122FFF762F8002840F085800C20B3
:102FA0008DF80800D7E9031002AB007809790122F7
:102FB000FFF754F8002877D10F20FDF7C9FC786B94
:102FC000F968407A3A698DF808001078897802AB80
:102FD0000122FFF743F8002866D1786BF968007A80
:102FE0003A698DF808001078497802AB0122FFF7A2
:102FF00035F8002858D1786BD7E90312807A002E73
:1030000018BF40F0E0008DF808001078897902AB15
:103010000122FFF723F8002846D12EB1786BC07A41
:1030200060F01F0001E000BF18208DF80800D7E90C
:10303000031002AB0078C9790122FFF70FF898BBA3
:1030400016B1C820FDF784FC40208DF80800D7E9B0
:10305000031002AB007809790122FEF7FFFF18BBCD
:1030600078208DF80800D7E9031002AB0078497981
:103070000122FEF7F3FFB8B93220FDF769FC00200A
:103080008DF80800D7E9031002AB007849790122D6
:10309000FEF7E4FF40B9D7E9031002AB0078897A64
:1030A0000222FEF781FF28B14FF0FF37384605B006
:1030B000BDE8F08FBDF808004AF6AB2100BA000C5D
:1030C0004843C0F3C7420021002AC5E90011A960A6
:1030D000C4E900110192A16044D0C00C00260DF19A
:1030E00008095FFA80F8D7E903100C220078C97A42
:1030F0004B46FEF759FF0028D6D1BDF80800BDF8B1
:103100000C20BDF80A1090FA80FC92FA82FED4E9F5
:103110000030A26809BA00EB214002EB2E4103EB1C
:103120002C43A160BDF81010C4E90030BDF8122096
:10313000BDF80E0091FA81FEA96892FA82FCD5E9E9
:103140000032013600BA01EB2C4AF1B203EB204009
:1031500002EB2E4B4145C5E9000BC5F808A0C2D3D0
:1031600004E000BFD5E9000BD5F808A0C117090499
:1031700041EA10410004832200230027FDF751F8A3
:10318000DDF8048000234246FDF74BF828604FEA43
:10319000EB70000440EA1B414FEA0B4083220023FE
:1031A000FDF73FF842460023FDF73BF868604FEA21
:1031B000EA70000440EA1A414FEA0A4083220023E1
:1031C000FDF72FF842460023FDF72BF8A860D4E95D
:1031D0000006A568C117490141EAD0614001424695
:1031E0000023FDF71EF82060F017400140EAD66189
:1031F000700142460023FDF714F86060E8174001B3
:1032000040EAD561680142460023FDF70AF84FF411
:1032100080310028C4BF0021CFF6FF710844A060B0
:10322000384605B0BDE8F08F90F9001000290DDD9B
:10323000002190F90320002A10DD002290F90630C9
:10324000002B13DD002011430843704718D490F978
:10325000011000291EDD0121EBE700BF12D490F917
:103260000420002A1EDD0822E8E700BF0CD490F9F4
:103270000730002B1EDD402011430843704700BF7C
:103280000421D6E72022D9E74FF480701143084388
:10329000704700BF18D490F9021000291EDD0221EA
:1032A000C7E700BF12D490F90520002A1CDD1022C8
:1032B000C4E700BF0CD490F9080000281ADD802074
:1032C00011430843704700BF0521B2E72822B5E744
:1032D0004FF4A07011430843704700BF4FF0060140
:1032E00008BF0721A5E700BF4FF0300208BF382212
:1032F000A4E700BF4FF4C07008BF4FF4E070114363
:10330000084370478CB0FDF72BFCFFF705F8FEF77C
:10331000D3FEFEF799FFFEF737FF40F26804C2F2D2
:10332000000420460021FEF71DF920460021FEF78B
:10333000ABFFFEF7DBFD00F091F940F60000C4F2B0
:1033400002004FF400510022FDF7F0FB9FED248AAC
:1033500008AC0DF11E0507AE0DF11A070DF11808A6
:103360000FF280090BA80AA909AA00F0A9F80DF12B
:10337000220021462A46FEF741FD304639464246A4
:10338000FEF75EFDFEF780FD00EE100A0A98B8EE2B
:10339000C09AFDF71DF982460B988B46FDF718F988
:1033A00041EC1A0B0998FDF713F989EE080A41EC74
:1033B000190B10EE100AFDF70BF941EC100B484603
:1033C00052465B468DED00AB8DED029B8DED040BFF
:1033D00001F03EFD4FF47A70FDF7BAFAC2E700BF84
:1033E0000000C842583A252E3166C2B02020593A12
:1033F000252E3166C2B020205A3A252E3166C2B041
:103400002020252E3166C2B0430D0A00704700000F
:10341000F0B581B040F20805C2F2000595F8301011
:1034200021B10024204601B0F0BD00BFA97D69B3E1
:1034300000F0FE0739402E7FCC1B95F8200018BF06
:103440004FF0FF34002F297708BF002824D0687F71
:1034500078B901208DF80200D5E903100DF10203BF
:103460000078C97B0122FEF7F9FD10B99DF8020032
:103470006877002FD6D000F0A5FC00281CBF2E775F
:103480004FF0FF34204601B0F0BD00BF4FF0FF34D5
:10349000204601B0F0BD00BF00208DF80300D5E943
:1034A00003100DF103030078C97B0122FEF7D6FD5E
:1034B0000028B7D19DF803006877204601B0F0BD21
:1034C0002DE9F0412DED0E8B8CB004460DF11E0060
:1034D00090460D460DF11D0700900DF1260008A93C
:1034E00003AA0BAB0197FFF7EBF928B101200CB051
:1034F000BDEC0E8BBDE8F081BDF81E00C00505D403
:1035000002200CB0BDEC0E8BBDE8F0819DED030AEE
:103510009DED041A9FED504A9DED052AB8EEC00AB4
:103520009DED063A20EE049AB8EEC10A20EE04CAD8
:10353000B8EEC20A20EE04AAB8EEC30A20EE04BA1E
:10354000B8EE000A2CEE00DA39EE098A28EE0A0AF3
:103550002DEE0B1A31EE000A10EE100AFDF738F8C6
:1035600041EC100B01F09CFC51EC100B9FED380B63
:1035700056EC107B3A463346FCF738FFFDF73BF834
:103580003AEE0AEA28EE0C0A2EEE0B1A31EE000A89
:10359000206010EE100AFDF71BF82AEE0E0A2DEE41
:1035A0000C1A31EE400AB7EE001A30EE010A41EC77
:1035B000180B10EE100AFDF70BF841EC110BB0EEF2
:1035C000480AF0EE680A01F087FF51EC100B3A460A
:1035D0003346FCF70BFFFDF70EF829EE0B0A2CEE35
:1035E0000A1A31EE000A30EE000A286010EE100AC6
:1035F000FCF7EEFF2CEE0C0A29EE091A31EE000A58
:103600002AEE0A1A30EE410A2BEE0B1A30EE410A6E
:1036100041EC180B10EE100AFCF7DAFF41EC110B2D
:10362000B0EE480AF0EE680A01F056FF51EC100BBC
:103630003A463346FCF7DAFEFCF7DDFFC8F8000037
:1036400000200CB0BDEC0E8BBDE8F08100BF00BFC8
:103650006666666666A64C400000803070B582B033
:10366000FEF7B4F900F0B8F810B10A2002B070BD4E
:10367000782001F0CFFA000602D0012002B070BD20
:1036800040F20804C2F2000494F8300040B1642013
:1036900001F01CFA000621D0032002B070BD00BF6B
:1036A000A07D98B3617F257F00F07806267779B9F1
:1036B00001208DF80700D4E903100DF1070300780D
:1036C000C97B0122FEF7CAFC10B99DF8070060779C
:1036D00000F078FBC0B1257718E000BFFFF7E4F8F1
:1036E000000603D0042002B070BD00BF40F2080005
:1036F000C2F20000FFF798FDFFF7D2FA000609D0EA
:10370000052002B070BD00BF782EC0D0022002B0EC
:1037100070BD00BF40F27310FEF776FF000603D0C5
:10372000062002B070BD00BF6420FFF711FA00064A
:1037300002D0072002B070BD01F014FB10B10820C8
:1037400002B070BD012001F003F9C0B2002818BF1B
:10375000092002B070BD000040F20801C2F2000171
:103760004A7D032A84BF4FF0FF30704740F2024386
:10377000D200C1F20803D3400370C97F002904BFFF
:103780000020704740F60401C2F21001D1400170E0
:103790000020704740F20802C2F20002517D032966
:1037A00084BF4FF0FF30704707A3D27F33F811304A
:1037B000002A038004BF0020704705A232F81110D0
:1037C00001800020704700BF00409C1F00100008CF
:1037D0000020CE0F0008000410B582B040F20804AB
:1037E0008020C2F200048DF80100D4E903100DF12D
:1037F00001030078897C0122FEF730FCC8B96420FF
:10380000FDF7A6F800208DF80100D4E903100DF1B2
:1038100001030078897C0122FEF720FC48B9D4E935
:1038200003100DF101030078897D0622FEF7BCFB31
:1038300020B14FF0FF34204602B010BD9DF80620A5
:103840009DF802009DF80410042303EA820261F34C
:10385000410200F00100111806D001292DD00229E3
:1038600020D100202AE000BFD4E903100DF10103AC
:103870000078C9780122FEF797FB0028D9D19DF87E
:10388000010000F00F00042814D00028E9D146F60A
:103890000370C0F6000002F053FC4FF0FF342046E6
:1038A00002B010BD2CA001F0D3FA4FF0FF34204637
:1038B00002B010BD32A002F043FC0120E0774FF6C9
:1038C000FF706083FF202077A0774FF0FF306061AA
:1038D0000020C4E90800A062A085C4F82F0084F885
:1038E000330018208DF80700D4E903100122007876
:1038F0008979227684F82E200DF107030122FEF744
:10390000ADFB002895D19DF80700C0082075022066
:1039100000F058FF00288CD12A2001F089F80028F7
:103920007FF487AF322001F0D1F800287FF481AF17
:103930000020FFF76DFD00287FF47BAF002000F032
:103940008FFF00287FF475AF0020002401F062F99A
:10395000204602B010BD00BF556E737570706F7257
:1039600074656420736F6674776172652070726F1E
:1039700064756374207265762025642E0A00000049
:1039800048616C662073656E7369746976697479D1
:10399000207061727420666F756E642E00000000E6
:1039A0002DE9F04F8BB0064600294FF0FF3000F0B4
:1039B000928040F20809C2F20009884699F8311055
:1039C000002940F08880002ECDE9013268D04FF008
:1039D000000ACDF80C801FFA8AF00590A6EB000BC8
:1039E00099F81600BBF1100FA8BF4FF0100B00287C
:1039F00064D0D9F810001FFA8BF4418954FA8AF781
:103A00008F429AFA8AF14FEA1141ADF82A1055D83F
:103A1000D9F80C100078097E02220DF12A03FEF776
:103A20001DFB00284AD1D9E9031004940078497D90
:103A300018FA8AF45FFA8BF8424623464D46FEF7A1
:103A40000DFBD8BBA87DC8B32869059942892B46D0
:103A5000090A97428DF82A108DF82BA02ED8D96824
:103A60000078097E02220DF12A03FEF7F7FA28BB3F
:103A7000D9E903100DF11A050078497D42462B461D
:103A8000FEF792FAD0B9049A20462946FCF7FAFBD1
:103A900020BBDA441FFA8AF0DDF80C80B0429AD3DA
:103AA00002980DF12A0340BAADF82A00D9E90310B3
:103AB00002220078897EFEF7D1FA28B14FF0FF305C
:103AC0000BB0BDE8F08F00BF012089F831000198EC
:103AD000A9F8320000200BB0BDE8F08F6FF00100B4
:103AE0000BB0BDE8F08F000070B584B0282800F25C
:103AF000E08040F2080504460028C2F2000543D0E9
:103B000095F82F0001281FD0A87F95F82E1032229B
:103B1000002808BF30228DF80A2039B16FF04D011E
:103B2000002808BF6FF04F018DF80A10D5E9031087
:103B30000DF10A030078097D01220126FEF78EFAB5
:103B4000002808BF85F82F602020012C8DF8070081
:103B500052D1A87D00218DF8081090B1E87D062192
:103B600006288DF80B100CD0D5E903100DF10B03CE
:103B7000007889780122FEF771FA10B99DF80B00E0
:103B8000E875072089E000BF95F82F0000B3A87FF3
:103B900095F82E100246002818BF012252008DF819
:103BA000092039B16FF07D01002808BF6FF07F0157
:103BB0008DF80910D5E903100DF109030078097D8E
:103BC0000122FEF74BFA002804BF002085F82F00E1
:103BD0004FF4E060ADF80700D5E903100DF10703DD
:103BE0000078897C0222FEF739FA002861D1002092
:103BF00085F8200004B070BD052C19D8A87D0121DE
:103C00008DF8081088B1E87D062106288DF80C1083
:103C10000BD0D5E9031003AB007889780122FEF7B9
:103C20001DFA10B99DF80C00E875472035E000BF7B
:103C3000142C19D8A87D02218DF8081090B1E87DC8
:103C4000052105288DF80D100CD0D5E903100DF1D4
:103C50000D03007889780122FEF700FA10B99DF86B
:103C60000D00E875872018E0A87D03218DF8081065
:103C700090B1E87D042104288DF80E100CD0D5E910
:103C800003100DF10E03007889780122FEF7E6F9A2
:103C900010B99DF80E00E875C7208DF80800D5E929
:103CA00003100DF107030078897C0222FEF7D6F994
:103CB00020B14FF0FF3004B070BD00BF95F8301058
:103CC0000820A875002000294FF00101287685F80A
:103CD000201001D004B070BD697F287779B9012028
:103CE0008DF80F00D5E903100DF10F030078C97BA3
:103CF0000122FEF7B3F910B99DF80F006877002094
:103D000004B070BD2DE9F04182B040F20807C2F264
:103D100000070E4697F83010054600294FF0FF3097
:103D200044D0B97D002941D0D7E90310144600786A
:103D3000897A0DF106030222FEF736F920B14FF021
:103D4000FF3002B0BDE8F081BDF8061008BAB5EB4F
:103D5000104F07D9002020704FF0FF3002B0BDE8AF
:103D6000F08100BF386991FA91F84288B8EB520FA0
:103D70000ED9F9680078497C0DF106030122FEF79F
:103D800013F90028DBD19DF80600C00612D438696B
:103D9000F9680078C97AEAB23346FEF705F90028D7
:103DA000CDD1B8FBF5F001382070002002B0BDE89D
:103DB000F08100BF00F006F86FF0010002B0BDE82E
:103DC000F081000010B582B040F20804C2F2000495
:103DD000A07D00B300208DF80700D4E903100DF199
:103DE00007030078C97B0122FEF738F998B9D4E9B6
:103DF00003100DF10703007849790122FEF72EF92F
:103E000048B9D4E903100DF10703007809790122BC
:103E1000FEF724F920B14FF0FF3002B010BD00BF13
:103E200094F83000002845D00C208DF80700D4E924
:103E300003100DF10703007809790122FEF70EF94E
:103E40000028E8D13220FCF783FDA07D0DF10703A7
:103E5000C0076FF01F0008BF6FF03F008DF807002C
:103E6000D4E90310012200780979FEF7F7F8002859
:103E7000D1D1607F0DF10703002818BF0120400059
:103E80008DF80700D4E9031001220078C97BFEF702
:103E9000E5F80028BFD100208DF80700D4E9031011
:103EA0000DF10703007849790122FEF7D7F80028C1
:103EB000B1D145E004208DF80700D4E903100DF1DD
:103EC0000703007809790122FEF7C8F80028A2D17B
:103ED000A07DA17FC0074FF0600008BF40200029EF
:103EE00018BF40208DF80700D4E903100DF1070337
:103EF000007809790122FEF7B1F800288BD1322031
:103F0000FCF726FD607F0DF10703002818BF012094
:103F10008DF80700D4E9031001220078C97BFEF771
:103F20009DF800287FF477AFD4E9031004F11C0357
:103F3000007849790122FEF791F800287FF46BAFF1
:103F4000002002B010BD00002DE9F04F81B02DED32
:103F5000028B90B040F20806C2F2000696F830B02C
:103F60000C46BBF1000F824602D0002000F0F0FCAE
:103F7000307D03280CD84FF0FA08DFE800F0110379
:103F80000F2F00BF4FF4FA78707D03280BD92AE079
:103F90004FF00008707D032805D924E04FF47A78AB
:103FA000707D03281FD80FF2E072F37F02EB8002CE
:103FB0000FF2C471002B08BF01EB8002106807905C
:103FC000F07D062814D900200690002005900020DE
:103FD000049000200390002025E000BF4FF4FA6811
:103FE000707D0328DFD900200790F07D0628EAD8ED
:103FF00000F07F00411EB1FA81F1490906910621C6
:10400000C14001F0010105910E21C14001F0010103
:1040100004911E21C14001F0010103913E2121FACA
:1040200000F000F001000290708BB77D089096F8C8
:104030001C90504621460022FEF75CFF40B15046DE
:10404000214600220025FEF755FF002840F0E282BD
:104050000CA809A90122FEF74DFF38B10CA809A947
:104060000122FEF747FF08B10025D3E230690FAB0C
:1040700000780D210422FDF797FF38B320680999D5
:104080009FEDE28A401A48BF404203EE100AB8EEA4
:10409000C33AB5EE401AF1EE10FA23EE083ACDF825
:1040A000049041D083EE011ABFEE003A31EE031ABC
:1040B0009FEDD73AB0EEC11AB4EE431AF1EE10FA02
:1040C000CCBF4FF001094FF0000942E09DF83C00E1
:1040D0009DF83F30BC469DF83D101C279DF83E20C2
:1040E00007EAD000C3F301159FEDE20A2D1807EA95
:1040F000D100C3F38101084407EAD20E03F00302A2
:10410000B0EE401A00F0FD806B1E00F0CD8013F081
:104110000301A5F1020700F0CF80012940F0D4800F
:104120009FEDD91A3B46DDE09FEDD81A0020B4EE92
:10413000413A9FEDD71AF1EE10FA4FF00001B4EEBC
:10414000413AB8BF0121F1EE10FAC8BF012041EA9F
:10415000000960680A99B5EE402A401A48BF4042FB
:1041600001EE100AB8EEC11AF1EE10FA21EE081AAB
:1041700012D081EE021ABFEE002A31EE021A9FED34
:10418000A42AB0EEC11AB4EE421AF1EE10FAC8BF7A
:1041900009F1020912E000BF9FEDBD2A09F10200FA
:1041A000B4EE421A9FEDB92AF1EE10FAC8BF81466B
:1041B000B4EE421AF1EE10FAB8BF8146A0680B992E
:1041C000B5EE400A401A48BF404201EE100AB8EE70
:1041D000C11AF1EE10FA21EE081A11D081EE000A90
:1041E000BFEE001A30EE010A9FED891AB0EEC00A48
:1041F000B4EE410AF1EE10FAC8BF09F1040911E06A
:104200009FEDA30A09F10400B4EE401A9FED9F0A46
:10421000F1EE10FAC8BF8146B4EE401AF1EE10FA82
:10422000B8BF814630690FAB00780D210322FDF73E
:10423000BBFE08B10720E4E1DAF800000C999DF814
:104240003C20401A48BF404200EE100A02F01F0313
:104250009DF83D209DF83E10B8EEC00A20EE080AF9
:1042600063B1581E24D010F00304A3F1020527D037
:10427000012C63D19FEDBA1A28466FE0B2EE041A02
:10428000B4EE410A9FEDB71A0020F1EE10FA4FF09C
:104290000003B4EE410AB8BF0123F1EE10FAC8BF23
:1042A00001203C4618437AE09FEDAF1A29E000BF99
:1042B000B3EE091A61E000BF9FEDAB1A12E000BF38
:1042C000B3EE091A4AE000BF6FF00303022908BFEA
:1042D0006FF0020302290FF2C84108BF043191EDCB
:1042E000001A2B44032F0CD39FEDD52A21EE021A7E
:1042F00021EE021A21EE021A043B190621EE021ADF
:10430000F4D10EEB02010028B0EE402A674600F01F
:10431000A080421E0AD012F00305A0F1020309D0CA
:10432000012D77D19FED582A1A4682E09FED8E2A03
:104330008FE000BF9FED8C2A7BE000BF6FF0030091
:10434000022C08BF6FF00200022C3C460FF26447BB
:1043500008BF043797ED001A27461844032D0CD3E5
:104360009FEDB82A21EE021A21EE021A21EE021A5E
:104370000438030621EE021AF4D180EE010ABFEEE2
:10438000001A3C4630EE010A9FED211AB0EEC00A39
:10439000B4EE410AF1EE10FACCBF01200020DAF8A9
:1043A00004300D9F02F01F05DB1B48BF5B4200EE8F
:1043B000103AB8EEC00A20EE080A274665B16A1E18
:1043C0001CD012F00304A5F102031BD0012C61D113
:1043D0009FED631A1A466CE09FED621A821CB4EEE0
:1043E000410AB2EE041AF1EE10FAC8BF1046B4EE5C
:1043F000410AF1EE10FAB8BF10467AE0B3EE091A9E
:1044000067E000BFB3EE091A53E000BF0000803739
:10441000295C0F3E6FF00302022D0FF2843708BFB4
:104420006FF00202022D08BF043797ED002A67469D
:104430000244032B0DD39FED823A00BF22EE032AE4
:1044400022EE032A22EE032A043A100622EE032A61
:10445000F4D100293FF412AE481E0DD010F0030332
:10446000A1F102020CD0012B40F080809FEDCB0A1D
:10447000104688E0000000009FEDC70AFEE500BF7F
:104480009FEDC50A7FE000BFADFFB33E9A99993E0C
:104490003333733F6FF00302022C08BF6FF0020248
:1044A000022C3C46C3A708BF043797ED001A2746E5
:1044B0002A44032B0DD39FEDC12A00BF21EE021A1F
:1044C00021EE021A21EE021A043A130621EE021A14
:1044D000F4D180EE010ABFEE001A30EE010A9FED22
:1044E000B31AB0EEC00AB4EE410AF1EE10FAC8BF3A
:1044F0000230DAF808200E9BD21A48BF524200EE72
:10450000102A01F01F03B8EEC00A20EE080A6BB1B2
:10451000591E1DD03D4611F00307A3F102021BD026
:10452000012F41D19FEDA21A11464AE09FEDA41A36
:10453000011DB4EE410AB2EE041AF1EE10FAC8BF42
:104540000846B4EE410AF1EE10FAB8BF084658E04A
:10455000B3EE091A45E000BFB3EE091A31E000BF1F
:104560003333D1410000D2427B14AE3E6FF00300E2
:10457000022B08BF6FF00200022B89A308BF04338F
:1045800093ED000A0844032AFFF478AD9FED863AC4
:1045900020EE030A20EE030A20EE030A0438010687
:1045A00020EE030AF4D169E56FF00301022F08BF82
:1045B0006FF00201022F7FA708BF043797ED001AA2
:1045C00019442F46032A0CD39FED7C2A21EE021AB0
:1045D00021EE021A21EE021A04390A0621EE021A0D
:1045E000F4D180EE010ABFEE001A30EE010A9FED11
:1045F0006F1AB0EEC00AB4EE410AF1EE10FAC8BF6D
:104600000430B0FA80F04509B9F1000F08BF023557
:10461000DDF804904FF6FF707083FF2030774FF085
:10462000FF3070610120B8F57A7F30760CDAB8F18E
:10463000FA0F11D0089CB8F5FA7F23D108200FE0BB
:104640001D5A843F54E3853F08D0089CB8F5FA6FA3
:1046500018D1182004E000BF002000E01020089CC2
:104660008DF83C00D6E903100FAB00788979012260
:10467000FDF7F4FC18B99DF83C00C0083075B07D1A
:10468000002863D007996FF0010050FA81F04FEADB
:104690007000072832D8DFE800F0050D3115313100
:1046A000311D00BF00208DF83C00717D814218D182
:1046B00024E000BF08208DF83C000120717D81427C
:1046C0000FD11BE010208DF83C000220717D81424B
:1046D00007D113E018208DF83C000320717D814242
:1046E0000CD0D6E903100FAB0078C9790122FDF791
:1046F000B5FC18B99DF83C00C0087075B07D28B3B2
:10470000069808B1012010E0059808B102200CE0DD
:10471000049808B1032008E0039808B1042004E0DD
:10472000029800280CBF06200520F17D8DF83C0082
:1047300081420BD0D6E903100FAB007889780122B3
:10474000FDF78CFC10B99DF83C00F075204600F098
:10475000BDF9384600F05EFA4846FEF759FEBBF157
:10476000000F02D0012000F0F3F8284610B0BDEC95
:10477000028B01B0BDE8F08F0200000004000000D1
:104780000800000010000000040000000800000005
:1047900010000000200000007B14AE3EADFFB33ED1
:1047A0005E72C03E631EBA3E1D5A843F295C0F3EB6
:1047B0003333D1419AE3E441BDD2DA4154E3853F3A
:1047C0000000D24210B582B040F20804C2F20004E8
:1047D000A17D00292DD002384FEA700107294FF042
:1047E000FF303AD8DFE801F0040C39143939392A9E
:1047F00000208DF80700617D814226D00FE000BFC8
:1048000008208DF807000120617D81421DD006E05F
:1048100010208DF807000220617D814215D0D4E977
:1048200003100DF107030078C9790122FDF716FC8A
:1048300070B14FF0FF3002B010BD00BF18208DF8EE
:1048400007000320617D8142E9D1002002B010BD44
:104850009DF80700C0086075002002B010BD000080
:10486000B0B582B040F20805C2F20005A97F8142CE
:1048700002D1002002B0B0BD0446D5E903100DF10D
:104880000703007809790122FDF78EFB94B3002815
:1048900046D19DF807000DF1070300F0DF008DF809
:1048A0000700D5E90310012200780979FDF7D6FB4E
:1048B000B0BB0320FCF74CF895F82E1095F82F208C
:1048C0006FF07D00002908BF02208DF807001AB1A3
:1048D00040F030008DF80700D5E903100DF1070313
:1048E0000078097D0122FDF7B9FBC8B9AC7700203B
:1048F00002B0B0BDA0B99DF80700A97D00F0DF00AF
:1049000001F0010140EA41108DF80700D5E90310DC
:104910000DF10703007809790122FDF79FFB18B11B
:104920004FF0FF3002B0B0BD0320FCF711F895F84E
:104930002E0095F82F10024600281CBF01226FF0B0
:104940007F00D20100298DF80720C1D1C4E7000003
:10495000B0B582B040F20804C2F2000494F83010FE
:1049600081425DD0D0B394F8310000285CD009B901
:10497000A07D78B100208DF80500D4E903100DF179
:1049800005030078C97B0122FDF768FB10B99DF88B
:104990000500607700200025FFF762FF608E00F0C1
:1049A00095F820698DF80450007801AB232101228D
:1049B0000125FDF753FB02208DF80600D4E9031012
:1049C0000DF106030078C97B012284F83050FDF711
:1049D00045FB18BB9DF8060060771FE009B9A07D74
:1049E00078B100208DF80700D4E903100DF107031A
:1049F0000078C97B0122FDF731FB10B99DF8070053
:104A00006077207F21698DF80400087801AB2321AD
:104A10000122FDF723FB002084F83000FFF7D2F9D4
:104A2000002002B0B0BD00BF4FF0FF3002B0B0BDFB
:104A300010B582B040F20804C2F20004A17DD1B3E7
:104A4000BC2807D30120E17D8DF8070081423AD0D0
:104A500027E000BF622807D30220E17D8DF8070020
:104A6000814230D01DE000BF2A2807D30320E17D1A
:104A70008DF80700814226D013E000BF142807D329
:104A80000420E17D8DF8070081421CD009E000BFC1
:104A90000A2834BF06200520E17D8DF807008142F9
:104AA00011D0D4E903100DF10703007889780122B1
:104AB000FDF7D4FA20B14FF0FF3002B010BD00BFB7
:104AC0009DF80700E075002002B010BD70B582B0FF
:104AD00040F20805C2F20005A97D044600294FF006
:104AE000FF3000F0948095F83010002940F08F805E
:104AF00095F8200000283ED0601E80B2272805D8F7
:104B0000E0B2FEF7F1FF002002B070BD95F82F0073
:104B100000B3A87F95F82E100246002818BF012286
:104B200052008DF8062039B16FF07D01002808BFD2
:104B30006FF07F018DF80610D5E903100DF1060323
:104B40000078097D0122FDF789FA002804BF0020C2
:104B500085F82F004FF4E060ADF80400D5E90310AC
:104B600001AB0078897C0222FDF778FA002804BFA7
:104B7000002085F820004FF47A76B4F57A7F28BFBC
:104B80003446042C98BF0424B6FBF4F00DF1030363
:104B900001388DF80300D5E9031001220078497827
:104BA000FDF75CFA20B14FF0FF3002B070BD00BFDE
:104BB0009DF80300AA7D411CB6FBF1F169832AB37D
:104BC000012801D801200FE0042801D802200BE0C1
:104BD0000A2801D8032007E0182801D8042003E0A0
:104BE00031288CBF06200520E97D8DF80700814221
:104BF0000CD0D5E903100DF1070300788978012264
:104C0000FDF72CFA10B99DF80700E875002002B0F6
:104C100070BD0000B0B582B0044610F0700F01D036
:104C2000012003E0002C0CBF4020002040F20805CA
:104C3000C2F200058DF80600D5E903100DF1060358
:104C40000078897C0122FDF709FAF8B99DF8060081
:104C5000A10600F0BF024FF0040020EA141058BF74
:104C60000230C4F30011084480F00100210758BF4E
:104C700038308DF80600D5E903102A760078C97C13
:104C80000DF106030122FDF7E9F938B10020A875FE
:104C90004FF0FF34204602B0B0BD00BF14F0F70F54
:104CA00023D095F82F0000B3A87F95F82E10024668
:104CB000002818BF012252008DF8072039B16FF08B
:104CC0007D01002808BF6FF07F018DF80710D5E93E
:104CD00003100DF107030078097D0122FDF7BEF9ED
:104CE000002804BF002085F82F00AC750024322076
:104CF00085F82040FBF72CFE204602B0B0BD000036
:104D000070B582B00D4601464FF0FF3042B340F21D
:104D10000806C2F200061446B27D0AB330694ABAE8
:104D2000438955FA81F19942ADF8062008D8F16817
:104D30000078097E0DF106030222FDF78FF918B104
:104D40004FF0FF3002B070BDD6E90310EAB2007830
:104D5000497D2346FDF782F9002818BF4FF0FF3048
:104D600002B070BD10B586B003A86946FFF7ECF835
:104D700003280FD140F20804C2F20004207D01385C
:104D8000C0B202280AD827A101EB800090ED000AEA
:104D900006E000BF012006B010BD00BF9FED200A55
:104DA0009DED031A9DED042AB8EEC11A20EE011AFA
:104DB000BDEEC11A8DED031AB8EEC21A9DED053A8B
:104DC00020EE011ABDEEC11A8DED041AB8EEC31A19
:104DD00020EE010ABDEEC00A03A88DED050AFDF71D
:104DE000EFFE607D03280BD815A2E37F02EB800263
:104DF0000FA1002B08BF01EB8002106801E000BF8B
:104E000000209DE80E004143009102FB00F1584351
:104E1000029068460191FDF73BFE002006B010BDF0
:104E200000000343000083423333034233338341A2
:104E3000004000009C1F000000100000000800005F
:104E400000200000CE0F0000000800000004000059
:104E50000FB4054B10B503A9044A029800F0C4FD35
:104E600010BC5DF814FB0000D52E000800000020E7
:104E700003B401984100009850EAC12018BF0420F3
:104E80004A0D18BF40F0010040F2FF72B2EB515FD3
:104E900008BF40F00200012808BF052002B070479B
:104EA00070B5C1482DED020B2DED0E8B82B0119D1A
:104EB00025F000449FEDBEDB9FEDBFEB84423EDB5F
:104EC000A4F140511098A1F17F6108430FD0BC4874
:104ED000844202DC28D1109830B39DED100B02B053
:104EE000BDEC0E8B02B0BDE8704000F071BC9DEDD2
:104EF000100B53EC1D2B51EC100BFBF777FA9DEDCB
:104F0000100B41EC180B53EC1E2B51EC100BFBF764
:104F10006DFA53EC182BFBF7C2F941EC100B02B001
:104F2000BDEC0E8B02B070BD012000F095FC02B00C
:104F3000BDEC0E8B02B0BDE8704000F05DBCA14836
:104F40009FEDA18B844256DA9DED100BB4F1795F91
:104F50000ADA51EC100BFFF78BFF042808BF00F0B2
:104F60005BFC9DED100BDAE753EC102B51EC100BB2
:104F7000FBF73CFA41EC190B95480621B0EE490AC3
:104F8000F0EE690A784400F0A7FB53EC192B51ECC2
:104F9000100BFBF72BFA41EC1A0B8E48B0EE490AC6
:104FA000F0EE690A0421784400F096FB53EC192BCB
:104FB00051EC100BFBF71AFA53EC182BFBF76FF9B7
:104FC00041EC100B51EC1A0B53EC102BFBF780FA51
:104FD000CDE900019DED000B53EC102B9DED100B66
:104FE00051EC100BFBF702FA9DED101B53EC112B4B
:104FF000FBF755F9D2E09DED100B51EC100B01F0D1
:1050000092F853EC182BFBF7EEF99FED730BCDE9FB
:10501000000153EC102B9DED000B51EC100BFBF736
:10502000E5F941EC190B6E480621B0EE490AF0EEA5
:10503000690A784400F050FB53EC192B51EC100B2B
:10504000FBF7D4F941EC1B0B6648B0EE490AF0EED1
:10505000690A0421784400F03FFB53EC192B51EC12
:10506000100BFBF7C3F953EC182BFBF718F941ECC5
:105070001C0B51EC190B01F075F841EC180B5A4858
:105080009FED5BABA04222DC53EC1C2B51EC1B0BC5
:10509000FBF71EFACDE900019DED000B51EC180B5A
:1050A00053EC102BFBF7A2F953EC182BFBF7F7F896
:1050B00053EC1A2BFBF79AF953EC1D2BFBF790F9E5
:1050C00053EC1E2BFBF78FF941EC100B5FE08DEDDD
:1050D000008B002000909DED000B51EC180B53EC61
:1050E000102BFBF7DCF89DED000B41EC1E0B53EC95
:1050F000102B51EC100BFBF779F953EC192BFBF744
:1051000072F953EC1E2BFBF7E3F941EC190B53EC4E
:105110001C2B51EC1B0BFBF7DBF941EC1B0B53EC8D
:105120001A2B51EC190BFBF761F953EC1D2BFBF714
:105130005AF941EC190B53EC1A2B51EC180BFBF7F5
:1051400055F953EC1B2BFBF751F953EC192BFBF7DB
:1051500047F99DED000B41EC180B53EC1A2B51EC69
:10516000100BFBF743F99FED249B53EC192BFBF736
:105170003AF941EC100B51EC180B53EC102BFBF7E8
:105180002FF953EC192BFBF72EF941EC100B002DE6
:105190003FF7C5AE51EC100B81F0004141EC100B14
:1051A000BDE60000000000000000F03F000000002D
:1051B000075C143326A6913C182D4454FB21F93F7B
:1051C0000000F07F0000E03F000000000000F03F22
:1051D000501200005E120000000000000000E03FDE
:1051E000A2110000B01100003333EF3F00000000B7
:1051F0000000000000000040182D4454FB21E93F4E
:1052000070B59B482DED020B2DED068B079D25F00B
:105210000044A04218DC9748844202DC0AD1069878
:1052200040B19DED060BBDEC068B02B0BDE87040B1
:1052300000F0CEBA002DCCBF9FED8F0B9FED900BF1
:10524000BDEC068B02B070BD8F48A04215DD8F48C3
:10525000A042D8BF4FF0FF3458DD9DED060B51EC56
:10526000100BFFF705FE042808BF00F0D5FA9DEDEE
:10527000060BBDEC068B02B070BD9DED060B51EC2C
:10528000100B00F050FFCDE9060181489FED828BA5
:10529000A0423CDD8248A0421FDD00249FED82AB8E
:1052A0009DED060B53EC1A2B51EC100BFAF7F7FFA0
:1052B0009DED060B41EC190B53EC1A2B51EC100B26
:1052C000FBF794F853EC182BFBF78AF853EC192BE7
:1052D000FBF7FEF8CDE9060149E09DED060B012440
:1052E00053EC182B51EC100BFAF7D9FF9DED060B80
:1052F00041EC190B53EC182B51EC100BFBF770F829
:1053000053EC192BFBF7E4F8CDE906012FE06848D0
:10531000A0421FDD02249FED689B9DED060B53EC20
:10532000192B51EC100BFBF761F853EC182BFAF723
:10533000B6FF9DED060B41EC180B53EC192B51EC0D
:10534000100BFBF74DF853EC182BFBF7C1F8CDE928
:1053500006010CE09DED060B032453EC102B9FED92
:10536000580B51EC100BFBF7B3F8CDE906019DED9E
:10537000060B53EC102B51EC100BFBF737F841ECFC
:10538000180B53EC182BFBF731F841EC190B4E4876
:105390000621B0EE490AF0EE690A784400F09CF963
:1053A00053EC182B51EC100BFBF720F841EC180BC9
:1053B0004648B0EE490AF0EE690A0521784400F04B
:1053C0008BF953EC192B51EC100BFBF70FF841EC58
:1053D000100B51EC180B53EC102B002C0EDAFAF7D3
:1053E0005EFF9DED061B53EC112BFAF7FFFF9DEDC1
:1053F000061B53EC112BFAF7F6FF35E0FAF74FFFD7
:105400009DED061B53EC112BFAF7F0FF41EC100B4E
:105410002F48784400EBC40090ED001B51EC100BBA
:1054200053EC112BFAF7DCFF9DED061B53EC112B0F
:10543000FAF7D6FF41EC100B2648784400EBC40085
:1054400090ED001B51EC100B53EC112BFAF7CBFF36
:1054500041EC100B002DA2BFBDEC068B02B070BD5D
:1054600051EC100B81F0004141EC100B01E7000002
:10547000000010440000F07F182D4454FB21F93F38
:10548000182D4454FB21F9BF0000DC3F0000203EF2
:105490000000F33F00000000000000000000F03FAB
:1054A0000000E63F00000000000000000000004097
:1054B0000080034000000000000000000000F83FF2
:1054C000000000000000F0BFF20E0000A80E000077
:1054D000320E0000EA0D000070B56F4E2DED040B8A
:1054E0002DED048B82B0DDF824C0DDE907235C429A
:1054F0002CF000411C4341EAD474069D22F0004088
:10550000B44205D86C422C4340EAD474B4420BD95F
:105510009DED081B9DED060B02B0BDEC048B04B0A5
:10552000BDE8704000F05EB9ACF14054A4F17F6476
:105530001C430BD0022404EAAC7444EAD274054341
:105540009FED578B9FED582B07D015E09DED060B77
:1055500051EC100B00F0DFFD42E0002C11BF012CDC
:105560009DED060B02B0BDEC048B04BF04B070BD12
:10557000022C38D0032C3BD00B439FED4D1B9FEDED
:105580004E0B0AD0B14218D1B04209D121F080416E
:1055900020F08040099107900FE0002A15DA10E012
:1055A000474B7B44002C08BF93ED000B0DD0012C22
:1055B00010D0022C17D0032C1AD0B0421DD1002AD3
:1055C00003DAB0EE410AF0EE610A02B0BDEC048BE2
:1055D00004B070BD93ED000B51EC100B81F0004155
:1055E00041EC100BF1E7B0EE480AF0EE680AECE788
:1055F000B0EE420AF0EE620AE7E7401A00159FEDAE
:10560000329B3C28C8BF8DED000B17DCBCF1000FAE
:10561000BCBF10F13C0F8DED009B0FDB9DED080B27
:1056200053EC102B9DED060B51EC100BFAF750FFCD
:1056300000F079FD00F06FFDCDE90001B4B1012C5F
:1056400010D0022C9FED220B53EC102B9DED000B84
:1056500051EC100B19D0FAF7C3FE53EC182BFAF7E4
:10566000BFFEBDE7019880F0004001909DED000B6A
:1056700053EC192B51EC100BFBF7CCF804BF0220B4
:1056800000F0EAF89DED000B9FE7FAF7A9FE53EC56
:10569000182BFAF7A8FEA3E70000F07F0000000037
:1056A000182D4454FB210940182D4454FB2109C0F6
:1056B000182D4454FB21F9BF182D4454FB21F93F08
:1056C0001A0D0000000000000000000000000000B3
:1056D000075C143326A6A13C70B504462DED028B61
:1056E0004D1E00EBC500B0EE408AF0EE608A90EDF2
:1056F000000B35F0060017D053EC182B51EC100BB3
:10570000FAF774FE41EC100B6D1E04EBC50090ED32
:10571000001B51EC100B53EC112BFAF7C0FD41ECC0
:10572000100B35F00600E7D1022D36D0042D1CD029
:10573000062D1CBFBDEC028B70BD53EC182B51EC39
:10574000100BFAF753FE94ED0A1B53EC112BFAF7EA
:10575000A6FD53EC182BFAF749FE94ED081B53EC09
:10576000112BFAF79CFD41EC100B53EC182B51EC6C
:10577000100BFAF73BFE94ED061B53EC112BFAF7D6
:105780008EFD53EC182BFAF731FE94ED040B53EC1D
:10579000102BFAF784FD41EC100B53EC182B51EC55
:1057A000100BFAF723FE94ED021B53EC112BFAF7C2
:1057B00076FD53EC182BFAF719FE94ED001B53EC11
:1057C000112BFAF76CFDBDEC028B41EC100B70BD98
:1057D00010B553EC102B51EC100BFAF760FD41ECB7
:1057E000100B10BD10B553EC112B51EC100BFAF748
:1057F00056FD41EC100B10BD9FED050B10B553ECA1
:10580000102B51EC100BFAF763FE41EC100B10BD9E
:1058100000000000000000009FED050B10B553ECE8
:10582000102B51EC100BFAF7E1FD41EC100B10BD01
:10583000000000000000001002E008C8121F08C1AC
:10584000002AFAD170477047002001E001C1121F01
:10585000002AFBD170470000014908607047000032
:10586000040000202DE9FF5F82B00021DDE9043053
:10587000020DDDF840B0034318D044F61050A2F2F8
:10588000FF3242431514119801281FD0A5EB0B00DD
:10589000401C5FEA000A4FF000064E4FDFF83891D7
:1058A000B046504615D5CAF1000413E01198012402
:1058B0004AA3012801D16FEA0B010298119AC0E9AD
:1058C0000031C0E9024206B0BDE8F09FCBF1000014
:1058D000DFE704460021404A491842EB0450CDE975
:1058E000001012E0E00707D032463B4640464946EA
:1058F000FAF77CFD8046894632463B4610461946FB
:10590000FAF774FD06460F466410002CEAD1DDE973
:105910000401DDE90023BAF1000F06DAFAF766FDAB
:1059200042464B46FAF762FD05E0FAF7D1FD4246E2
:105930004B46FAF7CDFD04460E460022284BFAF7F7
:1059400081FF03D84FF0FF30014607E00022254BCE
:1059500020463146FAF7A3FCFAF744FF102409E089
:10596000002C0ADB0A220023FAF72AFC039B3032C0
:105970001A55641E50EA0102F2D1641C039AC4F164
:1059800011031444119A012A03D0012208430DD1B6
:105990000AE0084304D000204FF0110B119072E789
:1059A000A3EB0B056D1E0DE05B4504DD4FF000021F
:1059B00005F1010504E003DA4FF00002A5F101054D
:1059C000002AECD002981199C0E90231C0E90045E3
:1059D00079E70000000014400000F03F30000000B4
:1059E0000000F0430000E03F2DE9FF4F95B09B46DB
:1059F0008946064600250FE2252877D10024274650
:105A0000F84A0121059400E0044316F8013F203BC9
:105A100001FA03F01042F7D130782A2811D06FF044
:105A20002F033078A0F13002092A16D8059A44F0E5
:105A3000020402EB820203EB42021044761C059042
:105A4000EFE759F8042B0592002A03DA504244F498
:105A50000054059044F00204761C30782E2816D1AC
:105A600016F8010F44F004042A280DD06FF02F021D
:105A70003078A0F13003092B09D807EB870302EB3C
:105A80004303C718761CF3E759F8047B761C30787B
:105A90006C280FD006DC4C2817D068280DD06A2857
:105AA00014D104E0742810D07A280FD10DE044F40A
:105AB00000140AE044F4801401E044F440147278C5
:105AC000824202D104F58014761C761C3078662858
:105AD0000BD013DC582877D009DC002875D0452876
