:020000040800F2
:10000000100700209D0100085D200008291A000843
:10001000291E0008B5020008552300080000000052
:100020000000000000000000000000007120000837
:10003000B9020008000000006D20000875200008CB
:10004000B7010008B7010008B7010008B7010008B0
:10005000B7010008B7010008B7010008B7010008A0
:10006000B7010008B7010008B7010008B701000890
:10007000B7010008B7010008B7010008B701000880
:10008000B7010008B7010008B7010008B701000870
:10009000B7010008B7010008B7010008B701000860
:1000A000B7010008B7010008B7010008B701000850
:1000B000B7010008B7010008B7010008B701000840
:1000C000B7010008B7010008B7010008B701000830
:1000D000B7010008B7010008B7010008B701000820
:1000E000B7010008B7010008B7010008B701000810
:1000F000B7010008B7010008B7010008B701000800
:10010000B7010008B7010008B7010008B7010008EF
:10011000B7010008B701000835210008B701000841
:10012000B7010008B7010008B7010008B7010008CF
:10013000B7010008B7010008B7010008B7010008BF
:10014000B7010008B7010008B7010008B7010008AF
:10015000B7010008B7010008B7010008B70100089F
:10016000B7010008B7010008B7010008B70100088F
:10017000B7010008B7010008B7010008000000003F
:10018000B7010008B7010008DFF80CD000F07AF8DA
:100190000048004759230008100700200648804700
:1001A00006480047FEE7FEE7FEE7FEE7FEE7FEE75C
:1001B000FEE7FEE7FEE7FEE72121000889010008CF
:1001C0002DE9F05F0546002092469B46884606468C
:1001D000814640241BE0284641464746224600F01F
:1001E00041F853465A46C01A914110D31146184659
:1001F000224600F028F82D1A67EB01084F462246E8
:100200000120002100F01FF817EB00094E41201ECD
:10021000A4F10104DFDC484631462A464346BDE8E6
:10022000F09FD2B201E000F8012B491EFBD27047CB
:100230000022F6E710B513460A4604461946FFF7B2
:10024000F0FF204610BD202A04DB203A00FA02F11C
:10025000002070479140C2F1200320FA03F31943B4
:1002600090407047202A04DB203A21FA02F0002156
:10027000704721FA02F3D040C2F1200291400843B6
:10028000194670471CB50948009009480190054679
:10029000009C06E0E06840F0010394E807009847FE
:1002A0001034AC42F6D3FFF773FF0000B42400080B
:1002B000D4240008FEE700007047000072B600BFBB
:1002C000FEE70000B0B5044600F0E6F8054640F24F
:1002D0000800C2F200000078611C18BF044400BF8F
:1002E00000F0DAF8401BA042FAD3B0BD2DE9F04F80
:1002F00083B000F1200200F13E4741F60045009234
:1003000007F1FF77C4F2020508224FEAB726A84298
:1003100008BF072200254FF000084FF00009072E04
:1003200038BF4FEAB72201920AE000BF09F1010984
:1003300008F10208B9F1100F05F1040500F0A280E0
:100340000F68012202FA09FE17EA0E0AEED0D1F870
:1003500004C003220CF003077E1E02FA08F4012EEB
:100360006FEA040B12D88468CE6804EA0B0406FA1C
:1003700008F634438460446824EA0E06CCF3001483
:1003800004FA09F42643466004E000BF032F01D1BC
:1003900003271EE0C6688C6806EA0B0604FA08F418
:1003A0002643022FC66014D16FF00302009E02EABA
:1003B000590756F807C005F01C040F220B69A2402C
:1003C0002CEA0202A3401A43F251D1F804C00CF007
:1003D0000307026807FA08F302EA0B021A431CF447
:1003E000403F0260A2D0002243F644030292C4F2CE
:1003F00002031A6843F6004442F480421A601A6805
:10040000C4F2010402F480420292029A29F003022B
:100410004FF6084C2244CFF6FF7C52F80C3005F022
:100420000C070F26BE40B343019E06FA07F73B4375
:1004300042F80C30A2684B6842EA0A0743F60C4CBB
:10044000DE0258BF22EA0A07A760C4F2010CDCF8FA
:1004500000209E0242EA0A0758BF22EA0A07CCF8A7
:10046000007062689E0342EA0A0758BF22EA0A0740
:1004700067602268DB0342EA0A0758BF22EA0A07DC
:10048000276053E703B0BDE8F08F0000002A08BFE3
:10049000090481617047000040F20C30C2F2000094
:1004A00000687047002804BF01207047F0B581B094
:1004B000044690F83D0028B9002084F83C0020460E
:1004C00000F0A0F8242084F83D002068016821F0A5
:1004D00001010160016841F400410160016821F4FB
:1004E0000041016000F002FB636848F2A16CC0F2B9
:1004F000010C40F60011C0F23D0163453CBF48F2DB
:100500008041C0F21E01884202D2012001B0F0BD3C
:100510004DF68361C4F21B31A0FB01122168970CD8
:10052000D1F804E04FF496762EF03F0545EA924567
:100530004D60774348F638160D6AC0F24106A7FBB6
:10054000067625F03F07634538BF960C721C3A4388
:100550000A62CA6948F2A0664CF6FF77C0F201064B
:10056000B34222EA07020AD801385B00B0FBF3F07D
:1005700001306FF31F30042898BF042019E0A768EA
:10058000013857B119277B43B0FBF3F001306FF30B
:100590001F3068B100F5804007E003EB4303B0FB78
:1005A000F3F001306FF31F3010B100F5004000E0B0
:1005B00001201043C8610868D4E9072320F0C00077
:1005C000104318430860886848F2FF3204F10C07B2
:1005D00090438CCF18431043A6698860C86820F008
:1005E000FF0038433043C860086840F001000860ED
:1005F00000202021206484F83D10206384F83E0010
:1006000001B0F0BD2DE9F04786B0006845F6004125
:10061000C4F2000100268842CDE90466CDE90266F5
:1006200001965DD045F60001C4F2000188422FD04A
:1006300045F20041C4F20001884240F09680002556
:1006400043F630040095C4F20204206801A940F08A
:1006500002002060206800F0020000900098C02096
:1006600001901220CDE9020503200490042005909A
:100670000020C4F2020000F58060FFF737FE00950D
:10068000206940F400102061206900F400106AE045
:10069000002443F630050094C4F2020528681221B4
:1006A00040F020002860286800F0200000900098AA
:1006B000032001900490042005900020C4F2020061
:1006C000CDE9021400F5A05001A9FFF70FFE009438
:1006D000286940F480002861286900F4800042E025
:1006E00043F630070096C4F202073868002440F051
:1006F000040038603868C4F2020400F0040000907E
:1007000000980096386801AD40F001003860386804
:100710004FF0120800F00100009000984FF40070B4
:1007200001904FF003094FF0040A04F500602946D8
:10073000CDE90286CDF81090CDF814A0FFF7D6FDD4
:100740004FF48070CDE9010803A880E840062046F8
:100750002946FFF7CBFD0096386940F40000386168
:10076000386900F400000090009806B0BDE8F087FA
:1007700040F2080040F20C31C2F20000C2F2000167
:1007800000780A68104408607047000080B543F69E
:100790000040C4F20200016841F400710160016888
:1007A00041F480610160016841F4807101600320BF
:1007B00000F0BCF80F2000F005F800F05DF8002014
:1007C00080BD000070B586B0002543F6400101955C
:1007D000C4F202010A68044642F010020A60096885
:1007E00001A801F0100101910199694600F05EF93C
:1007F000049E002E18BF012600F078F94DF68361A3
:10080000B040C4F21B31A0FB01014FF0FF3000EB00
:10081000914140F2302041F20002C2F20000C4F2E5
:10082000000240F2E733C0E90021C0E9025305614C
:10083000856100F075FB08B106B070BD40F2302054
:10084000C2F2000000F0E2FB0028F5D1362000F0F3
:100850002FF80F2C0CD836202146002200F03AF851
:1008600040F20C010020C2F200010C6006B070BD25
:10087000012006B070BD000082B0002043F64001A8
:100880000190C4F202014A6842F480424A604A6818
:1008900002F480420192019A0090086840F0805072
:1008A0000860086800F080500090009802B070471F
:1008B000002848BF704700F01F01012202FA01F131
:1008C0001C2202EAD0004EF20012CEF20002815049
:1008D0007047000010B54EF60C5CCEF2000CDCF850
:1008E0000030C3F3022E8EF00704042C28BF04242A
:1008F000BEF103034FF0FF3E0EFA04F438BF0023AD
:10090000A14399400EFA03F39A43114300F00F02FA
:1009100000F160430901043A03F56443624400288E
:1009200048BF02F10C03197010BD00004EF60C51C7
:10093000CEF200010A684FF6FF031A4060F30A2264
:1009400042F0806040F0FD7008607047002804BFEE
:10095000012070472DE9F04143F60808C4F202086F
:100960000446D8F8F8030D4600F00700884207D285
:1009700088F8F853D8F8F80300F00700A84276D1B9
:100980002068810717D5410705D5D8F8001041F434
:10099000E051C8F80010010705D5D8F8001041F45F
:1009A0006041C8F80010D8F80010A26821F0F001EA
:1009B0001143C8F80010C0073FD1D8F8F80300F081
:1009C0000700A84207D988F8F853D8F8F80300F0D0
:1009D0000700A8424BD12068410707D5D8F800107E
:1009E000E26821F4E0511143C8F80010000708D56F
:1009F000D8F80000216920F4604040EAC100C8F83E
:100A0000000000F09BF8D8F8001042F29C42C1F3BD
:100A10000311C0F60002515C40F2040220FA01F119
:100A200040F20C00C2F200000068C2F20002116045
:100A3000FFF7C8FE0020BDE8F0816068811E022932
:100A400007D258F8081C89015CBF0120BDE8F0817D
:100A500010E0012807D158F8081C89035CBF012069
:100A6000BDE8F08106E058F8081C890702D401208F
:100A7000BDE8F081D8F8001021F003010843C8F860
:100A80000000FFF709FD064641F28837D8F800005C
:100A9000616800F00C00B0EB810F8ED0FFF7FCFC1A
:100AA000801BB842F2D90320BDE8F0810F2202601A
:100AB00043F60802C4F20202136803F00303436022
:100AC000136803F0F0038360136803F4E053C3601A
:100AD000D2F800C04FF4E05303EADC030361D2F81C
:100AE000F80300F0070008607047000040F20400BF
:100AF00043F60801C2F20000C4F20201006809686E
:100B000042F2AC42C1F38221C0F60002515CC840FF
:100B10007047000040F2040043F60801C2F20000F2
:100B2000C4F202010068096842F2AC42C1F34231EA
:100B3000C0F60002515CC8407047000010B543F693
:100B40000404C4F20204606800F00C0142F20040A8
:100B50000829C0F2F40007D0042918BF10BD41F2E3
:100B60000020C0F27A0010BD216801F03F02216828
:100B700023684902C3F3881105D4A1FB00010023B7
:100B8000FFF71EFB06E041F20020C0F27A00484366
:100B9000B0FBF2F021680222C1F3014102EB4101F6
:100BA000B0FBF1F010BD0000002804BF0120704729
:100BB0002DE9F04182B00446007843F60006C007F4
:100BC000C4F202060BD0B06800F00C00042876D105
:100BD0003068800303D56068002800F04F812078DA
:100BE000800719D5B06810F00C0F07D0B06800F07E
:100BF0000C0008287DD1706840027AD430688007E4
:100C000003D5E068012840F039813068216920F07F
:100C1000F80040EAC10030602078000713D4207843
:100C2000400726D4A569002D00F02481B06800F0AB
:100C30000C00082840F09680012D40F0F88001203B
:100C400002B0BDE8F0816069002877D00020C4F2CE
:100C500047200121C0F8801EFFF71EFC054600BF9B
:100C6000706F8007DBD4FFF717FC401B0228F7D911
:100C7000D9E0306C5FEAC0080AD400200190306CE3
:100C800040F080503064306C00F08050019001984A
:100C900047F20007C4F200073868C00540D438683E
:100CA00040F480703860FFF7F7FB05463868C005F0
:100CB00036D4FFF7F1FB401B0228F7D9B3E0B06848
:100CC00000F00C00082803D1706840023FF580AFA7
:100CD00061683068B1F5803F07D0B1F5A02F40F0D2
:100CE0008C8040F480203060306840F48030306088
:100CF0008CE0E068002840F20000C4F2472054D0A5
:100D000001210160FFF7C8FB054600BF306880077E
:100D10003FF57BAFFFF7C0FB401B0228F6D982E00E
:100D2000A168306F012905D005294FD140F004009A
:100D30003067306F40F00100306750E00020C4F2AF
:100D400047200021C0F8801EFFF7A6FB054600BF24
:100D5000706F80077FF563AFFFF79EFB401B022893
:100D6000F6D960E00027C4F2472700203866FFF775
:100D700093FB022D05460DD13068800140F1828041
:100D8000FFF78AFB401B02284FF00300F4D902B0A2
:100D9000BDE8F081306880016CD5FFF77DFB401B1A
:100DA00002284FF00300F5D9F1E700210160FFF7B9
:100DB00073FB0546306880077FF52EAFFFF76CFBAD
:100DC000401B02284FF00300F4D9E0E720F00100B7
:100DD0003067306F002920F00400306773D0FFF7D0
:100DE0005BFB054641F28837306F80077BD4FFF705
:100DF00053FB401BB842F7D915E020F48030306037
:100E00003068002920F48020306075D0FFF744FB63
:100E1000054600BF306880033FF5E1AEFFF73CFBBD
:100E2000401B6428F6D9032002B0BDE8F081706849
:100E3000E16900F480028A4220D1216A00F03F0279
:100E40008A421BD147F6C071626A0140B1EB821F32
:100E500014D1A16A4FF6FF73C903994300F44032DD
:100E6000A1F580318A4209D1E16A00F07060B0EBEF
:100E7000016F03D1002002B0BDE8F081012002B073
:100E8000BDE8F08104F11C052FCD084340EA821033
:100E9000D9034FF6FF729143A1F5803140EA056016
:100EA0000843706001203866FFF7F6FA044600BF79
:100EB00030688001DED4FFF7EFFA001B02284FF004
:100EC0000300F5D963E7FFF7E7FA054641F28837F3
:100ED000306F800707D5FFF7DFFA401BB8424FF0AD
:100EE0000300F5D953E7B8F1000F3FF59BAE306C26
:100EF00020F08050306495E6FFF7CEFA054600BF3B
:100F0000306880037FF56BAEFFF7C6FA401B64289C
:100F10004FF00300F4D93AE7704700007047000033
:100F2000002804BF0120704710B5044690F83D002A
:100F300028B9002084F83C00204600F01FF8022069
:100F400084F83D002068211D01F0FAF8012084F8A2
:100F5000460084F83E0084F83F0084F8400084F89E
:100F6000410084F8420084F8430084F8440084F887
:100F7000450084F83D00002010BD000083B00068EB
:100F800041F60041C4F2000188422DD042F2000136
:100F9000C4F20001884216D044F60001C4F20101F7
:100FA00088421FD10020029043F64000C4F20200A4
:100FB000416841F480214160406800F48020029043
:100FC000029803B070470020009043F64000C4F23E
:100FD0000200016841F480710160006800F48070D3
:100FE0000090009803B070470020019043F6400045
:100FF000C4F20200016841F080010160006800F065
:1010000080000190019803B07047000090F83D10F7
:1010100001291CBF01207047022180F83D100068A3
:1010200041F2FF72C168C4F20002904241F0010136
:10103000C1600DDC40F2FF71C4F20001884215DC92
:10104000B0F1804F29D040F20041C4F2000122E00B
:1010500040F2FF31C4F20101884212DC41F6000186
:10106000C4F20001884218D0002112E040F60001CD
:10107000C4F20001884210D040F60041C4F20001E1
:1010800009E044F20001C4F20101884205D040F2B7
:101090000041C4F20101884206D1816801F00701D4
:1010A000062904BF00207047016841F0010101607A
:1010B000002070477047000070B504460068C5689E
:1010C0000669B10716D515F0020113D06FF00201C1
:1010D0000161012121778069800703D02046FFF755
:1010E000E9FF05E0204600F015F9204600F066FA19
:1010F00000202077700718D515F0040015D020685F
:101100006FF00401016102212177806910F4407FB2
:1011100003D02046FFF7CEFF05E0204600F0FAF8A6
:10112000204600F04BFA00202077300717D515F045
:10113000080014D020686FF00801016104212177B4
:10114000C069800703D02046FFF7B4FF05E02046C2
:1011500000F0E0F8204600F031FA00202077F00699
:1011600018D515F0100015D020686FF0100101613E
:1011700008212177C06910F4407F03D02046FFF793
:1011800099FF05E0204600F0C5F8204600F016FA69
:1011900000202077F00718BF15F0010002D13006BB
:1011A00009D412E020686FF001010161204600F0CF
:1011B00089FA300609D515F0800006D020686FF056
:1011C000800101612046FFF7A7FE700609D515F0E2
:1011D000400006D020686FF040010161204600F019
:1011E0007BFAB00658BF70BD15F0200008D021680A
:1011F0006FF0200220460A61BDE87040FFF78EBE06
:1012000070BD000080B586B0006841F6FF71C4F281
:10121000000188424FF000010591CDE90311CDE9AD
:1012200001111DDC41F60001C4F20001884235D0F5
:1012300041F60041C4F20001884269D100200090CB
:1012400043F63000C4F20200016841F02001016061
:10125000006800F02000009000984FF4807048E093
:1012600042F20001C4F20001884231D044F600018C
:10127000C4F2010188424BD10020009043F63000B7
:10128000C4F20200016841F02001016000680321FE
:1012900000F020000090009880202BE000200090BB
:1012A00043F63000C4F20200016841F0020101601F
:1012B0000068092100F00200009000984FF480407F
:1012C000019041F20040C4F20200A0F5805016E007
:1012D0000020009043F63000C4F20200016841F0A3
:1012E00020010160006800F02000009000984FF499
:1012F00000700921019041F20040C4F20200022274
:1013000002920022059101A9CDE90322FEF7EEFF2A
:1013100006B080BD7047000090F83C30012B04BF40
:10132000022070474FEAB202032A00F2FD802DE945
:10133000F043DFE802F002AF3D7D036840F2004673
:101340001C6A1A6A24F0020422F001021A621A4688
:10135000D3F804C052F818EF8F6843F48065C4F2E4
:101360000106B54244EA070405D1CF6824F00C0415
:1013700027F004073C430F68B54206D1D1E9055870
:101380002CF440762E4346EA080C2EF073063743C1
:10139000C3F804C09F614F6809695F631C629F695D
:1013A00047F008079F619F6927F004079F61B0E03D
:1013B000036840F200481C6A1A6A24F4007422F49C
:1013C00080721A621A46D3F804C052F81CEF8F6874
:1013D00043F48065C4F20108454544EA072408D176
:1013E000CF6840F2FF463F0224F4406427EA060635
:1013F0003443D1F80090454506D1D1E905562CF487
:1014000040572E4347EA061C2EF0730747EA0907A8
:10141000C3F804C0DF614F680969DF631C62DF69DC
:1014200047F00807DF61DF6927F00407DF6170E03C
:10143000036840F20045D3F820C01A6A43F480677D
:1014400022F480521A621A465C6852F81C8FD1F856
:1014500000E08E68C4F20105AF4204D14D6924F466
:10146000804444EA85142CF4005747EA063728F4F0
:10147000E64646EA0E265C60DE614E6809691E6437
:101480001F62DF6947F40067DF61DF6927F4806767
:10149000DF613DE0036840F200481C6A1A6A24F0EC
:1014A000200422F010021A621A46D3F804C052F83F
:1014B00018EF8F6843F48065C4F20108454544EA9B
:1014C000071407D1CF686FF0400624F0C00406EA85
:1014D00007163443D1F80090454506D1D1E90556A9
:1014E0002CF440672E4347EA860C2EF4E64747EA81
:1014F0000927C3F804C09F614F6809699F631C6294
:101500009F6947F400679F619F6927F480679F6127
:1015100009021368194311600021BDE8F04300225D
:1015200080F83C20084670470121F8E7002804BFF6
:101530000120704710B5044690F83D0028B90020FE
:1015400084F83C00204600F01FF8022084F83D009B
:101550002068211D00F0F4FD012084F8460084F885
:101560003E0084F83F0084F8400084F8410084F88D
:10157000420084F8430084F8440084F8450084F86D
:101580003D00002010BD0000006841F60001C4F2DB
:101590000001884218BF704781B00020009043F6D8
:1015A0004000C4F20200016841F04001016000689F
:1015B00000F040000090009801B0704770470000B4
:1015C000A1B1042904D0082914BF4122402200E01F
:1015D0003F22825C012A11D10222082910D004295D
:1015E00014BF80F8412080F83F200BE090F83E20A7
:1015F000012A03D1022280F83E2003E00120704737
:1016000080F84020006801F01F010122036A02FAFD
:1016100001F123EA01020262026A114341F2FF7200
:10162000C4F20002904201620BDC40F2FF71C4F28E
:101630000001884213DCB0F1804F35D040F2004108
:1016400015E040F2FF31C4F20101884214DC41F69A
:101650000001C4F20001884226D0002114E040F6C7
:101660000001C4F2000188421ED040F60041C4F2DD
:101670000001884218D01EE044F20001C4F20101CA
:10168000884211D040F20041C4F20101884212D1D7
:10169000416C40F2004340F48062C4F2010341F423
:1016A00000419A42416406D1816801F00701062990
:1016B00004BF00207047016841F001010160002073
:1016C00070470000006841F20001C4F20001884246
:1016D00018BF7047FFF74CB870470000002804BFE0
:1016E0000120704710B5044690F8410028B9002049
:1016F00084F84000204600F021F8242084F84100BE
:101700002068C16821F40051C160204600F0B2FD9C
:101710002068016921F490410161416921F02A01A9
:101720004161C16841F40051C16000202021606422
:1017300084F8411084F84210606310BDF0B587B0A2
:10174000006845F20001C4F2000100248842CDE99E
:101750000544CDE90344029428D044F60041C4F284
:101760000001884262D1002043F630010190C4F2AA
:1017700002010A6942F400220A610A6902F40022A5
:101780000192019A01900A6842F001020A60096818
:10179000022201F00101019101990321CDE9032009
:1017A000002002910591C4F202003AE043F63000B5
:1017B0000194C4F202000169002741F48011016123
:1017C0000169C4F2020701F48011019101990194A9
:1017D0000168022541F0040101600168032601F05F
:1017E0000401019101990194016841F0080101602F
:1017F000006802A900F00800019001984FF48050A1
:1018000002900820069007F50060CDE90354059684
:10181000FEF76CFD0420CDE9020507F54060CDE937
:1018200004460821069102A9FEF760FD07B0F0BD4D
:101830002DE9F04381B0044690F84200202809D1F8
:10184000894600294FF0010018BF002A06D101B0D7
:10185000BDE8F083022001B0BDE8F0830020222122
:101860001D46606484F8421020631646FEF714FE9D
:10187000A685E685A1680746B1F5805F02D120699B
:10188000002842D0C8464FF00009E08DD8B36E1C46
:10189000206800BF0168890616D4002EFAD0FEF732
:1018A000FBFD0146002D4FF0030000F0B680C91B80
:1018B000A94200F2B2802068C168490744BF0168AC
:1018C0005FEA0171E6D523E0B8F1000F0AD0A16804
:1018D000B1F5805F0ED009B9216959B1406800F0B7
:1018E0007F0008E040684FF000086FF35F2029F8A0
:1018F000020B02E0406808F8010BE08D0138E0853A
:10190000E08D0028C4D1002087E04FF00008BCE73C
:10191000002100910168009140680090009800BF8C
:10192000206850E8030F216820F4907041E803021A
:10193000BAB3206850E8030F216820F4907041E8A2
:10194000030272B3206850E8030F216820F49070FE
:1019500041E803022AB3206850E8030F216820F40D
:10196000907041E80302002ADAD11AE0206850E8BA
:10197000050F216820F0010041E80502DAB1206876
:1019800050E8050F216820F0010041E8050292B1FE
:10199000206850E8050F216820F0010041E80502A9
:1019A0004AB1206850E8050F216820F0010041E8A5
:1019B0000502002ADAD1206B012824D1206850E8E2
:1019C000030F216820F0100041E80302DAB120681B
:1019D00050E8030F216820F0100041E8030292B1A3
:1019E000206850E8030F216820F0100041E803024E
:1019F0004AB1206850E8030F216820F0100041E848
:101A00000302002ADAD1202084F8420000200821B5
:101A10002063616484F840000320202184F8421090
:101A200001B0BDE8F0830000FEE70000F0B587B02C
:101A3000002543F630000695CDE90455CDE9025561
:101A40000195C4F20200016840F6000441F004016F
:101A500001600168C4F2020401F0040101910199DE
:101A600001950168012241F02001016001684FF4F5
:101A7000005601F0200101910199019501680127AB
:101A800041F080010160016801F08001019101993C
:101A90000195016841F001010160016801F0010157
:101AA000019101990195016841F00201016001680D
:101AB00001F00201019101990195016841F00801CD
:101AC000016000684FF4005100F008000190019897
:101AD0002046FEF7DBFC02A92046CDE90267CDE9EE
:101AE0000455FEF703FC07B0F0BD000080B540F2DE
:101AF000140045F20041C2F20000C4F2000141F6B8
:101B0000802200234FF4804CC0F2060280E80E00D1
:101B1000C0E9033CC0E90533C0E90733FEF7C2FC66
:101B2000002808BF80BDBDE88040FEF7C7BB0000AD
:101B300080B540F2680045F60001C2F20000C4F230
:101B4000000141F6802200234FF4804CC0F20602CF
:101B500080E80E00C0E9033CC0E90533C0E9073363
:101B6000FEF7A0FC002808BF80BDBDE88040FEF75E
:101B7000A5BB000080B540F2BC0045F60041C2F2B2
:101B80000000C4F2000141F6802200234FF4804C93
:101B9000C0F2060280E80E00C0E9033CC0E905334C
:101BA000C0E90733FEF77EFC002808BF80BDBDE812
:101BB0008040FEF783BB000080B588B040F2101073
:101BC00044F600020021C2F20000C4F20102A72381
:101BD00044F61F6CCDE90611CDE90411C0E90023DC
:101BE000C0E9021C01618161FFF79AF9002818BF62
:101BF000FEF764FB40F21010C2F20000FFF796FC03
:101C0000002818BFFEF75AFB602001900020CDE9A4
:101C10000200059040F21010C2F2000001A900225B
:101C2000FFF77AFB002818BFFEF748FB40F21010C0
:101C3000C2F20000FFF7E6FA08B080BD10B588B028
:101C400040F2581041F600010024C2F20000C4F234
:101C5000000144F61F63CDE90644CDE90444532254
:101C600080E81600C0E903348461FFF75FFC0028B8
:101C700018BFFEF723FB6020CDE9010440F25810A5
:101C8000C2F2000001A9002203940594FFF744FB6F
:101C9000002818BFFEF712FB40F25810C2F20000F5
:101CA000FFF7B0FA08B010BD80B588B040F2A010C0
:101CB00041F600420021C2F20000C4F200025323A8
:101CC00044F61F6CCDE90611CDE90411C0E90023EB
:101CD000C0E9021C01618161FFF722F9002818BFE9
:101CE000FEF7ECFA40F2A010C2F20000FFF71EFC73
:101CF000002818BFFEF7E2FA602001900020CDE92D
:101D00000200059040F2A010C2F2000001A90022DA
:101D1000FFF702FB002818BFFEF7D0FA40F2A01030
:101D2000C2F20000FFF76EFA08B080BD80B588B03F
:101D300040F2E81042F200020021C2F20000C4F2B8
:101D40000002532344F61F6CCDE90611CDE90411BE
:101D5000C0E90023C0E9021C01618161FFF7E0F8DE
:101D6000002818BFFEF7AAFA40F2E810C2F20000FD
:101D7000FFF7DCFB002818BFFEF7A0FA60200190F7
:101D80000020CDE90200059040F2E810C2F2000008
:101D900001A90022FFF7C0FA002818BFFEF78EFA4B
:101DA00040F2E810C2F20000FFF72CFA08B080BD44
:101DB00080B540F2782044F60041C2F20000C4F23F
:101DC000000100234FF00C0C4FF4E13280E80E00CC
:101DD000C0E90333C0E905C3C361FFF77FFC0028F6
:101DE00008BF80BDBDE88040FEF768BA80B540F20C
:101DF000C02045F20001C2F20000C4F2000100233D
:101E00004FF00C0C4FF4E13280E80E00C0E90333D0
:101E1000C0E905C3C361FFF761FC002808BF80BDAE
:101E2000BDE88040FEF74ABAFEE70000B0F57A7FD1
:101E300019D940F21011C2F200010538096882B2C6
:101E40004A6340F25811C2F2000109684A6340F245
:101E5000A011C2F2000109684A6340F2E811C2F21F
:101E6000000109684A6380B270470000F0B581B094
:101E700040F21014C2F2000420684FF4FA6140F2FC
:101E800058154163C2F20005286840F2A01641636C
:101E9000C2F20006306840F2E8174163C2F2000760
:101EA000386841634FF4FA60FEF70CFA20684FF48B
:101EB0007A71416328684163306841633A684FF43E
:101EC000FA60516301B0BDE8F040FEF7FBB90000D5
:101ED000A0F2E93140F2E632914288BF704740F209
:101EE0001011C2F200010968486340F25811C2F2B1
:101EF00000010968486340F2A011C2F200010968BC
:101F00000A30486340F2E811C2F2000109684863F0
:101F100070470000A0F2E93140F2E632914288BFFA
:101F2000704740F21011C2F20001096800F10A0284
:101F30004A6340F25811C2F200010968486340F256
:101F4000A011C2F2000109684A6340F2E811C2F22E
:101F50000001096848637047A0F2E93140F2E632B7
:101F6000914288BF704740F21011C2F20001096827
:101F700000F10A024A6340F25811C2F200010968F6
:101F80004A6340F2A011C2F200010968486340F2BE
:101F9000E811C2F20001096848637047A0F2E93114
:101FA00040F2E632914288BF704740F21011C2F20F
:101FB0000001096800F10A02486340F25811C2F2B8
:101FC000000109684A6340F2A011C2F200010968E9
:101FD000486340F2E810C2F20000006842637047B4
:101FE00001097C2919D840F21011C2F20001053014
:101FF000096882B24A6340F25811C2F200010968CE
:102000004A6340F2A011C2F2000109684A6340F23B
:10201000E811C2F2000109684A6380B2704700000B
:1020200040F21010C2F2000000684FF47A71416370
:1020300040F25810C2F200000068416340F2A01064
:10204000C2F200000068416340F2E810C2F20000F2
:10205000026840F24C40516370470000FEE7000008
:1020600080B52821FEF7E4F880BD0000704700002D
:10207000704700007047000070B592B006AC204673
:102080003021FEF7D5F8002543F640000595CDE94F
:102090000355CDE901550095C4F2020001680226FE
:1020A00041F080510160006800F08050009000987D
:1020B00047F200000095C4F20000016841F480413D
:1020C00001600068A82100F4804000900098012081
:1020D00006904FF4803007904FF480000D9004205C
:1020E0000E90119020460C96CDE90F16FEF75CFD80
:1020F00008B172B6FEE70F20CDE901064FF4A050FB
:1021000004904FF48050059001A805210395FEF737
:102110001DFC10B172B600BFFEE712B070BD00002A
:102120004EF68850CEF20000016841F47001016063
:102130007047000040F23020C2F20000FEF7BCBF42
:1021400010B540F6FF3E0368C4F2000E40F2004CAA
:102150007045C4F2010C0FDCB0F1804F19D040F291
:102160000042C4F20002904213D040F60002C4F2D2
:10217000000290420DD010E040F60042C4F200028E
:10218000904206D0604504D00022C4F20102904281
:1021900003D14A6823F07003134341F6FF72C4F27F
:1021A000000290420FDC704521DCB0F1804F41D03D
:1021B00040F20042C4F2000290423BD040F60002DE
:1021C000C4F2000234E043F6FF72C4F2010290420E
:1021D0001EDC42F20002C4F2000290422AD0002229
:1021E000C4F20102904225D0604523D026E040F69B
:1021F0000042C4F2000290421CD041F60002C4F238
:102200000002904216D041F60042C4F200020FE0F4
:1022100044F20002C4F2010290420BD044F60002E4
:10222000C4F20102904205D044F20042C4F201021D
:10223000904203D1CA6823F44073134323F0800211
:102240004B69D1F800E08C681A430260C46240F424
:102250008062C0F828E0624504BF0969016301217A
:1022600041610169C90708BF10BD016921F0010181
:10227000016110BDB0B50446006804F108030ECB3F
:102280000569194325F440552A4302616269E369EF
:102290001143C268194349F20C639A431143C16068
:1022A0004169A26921F4407141F20043114340F4B5
:1022B0008062C4F201039A42416102D1FEF72AFC16
:1022C00001E0FEF713FCE1694FF69C756368192283
:1022D000C0F6FF75B1F5004FA0FB02011CD15A00FA
:1022E000DB0FFDF76DFF48F21F51C5F2EB11A0FBAC
:1022F00001235A0905F1805302FB0300322303EB4B
:10230000C000A0FB01014FF4F87000EA111000EBCF
:102310000210C1F3421118E09A009B0FFDF750FF25
:1023200048F21F51C5F2EB11A0FB01235A0902FB31
:102330000500322303EB0010A0FB0101F02000EAAE
:10234000511000EB0210C1F343110844216888606A
:10235000B0BD0000FEE70000FEF718FAFFF78CFEA4
:10236000FFF764FBFFF724FDFFF7E0FCFFF7BEFB80
:10237000FFF7DEFBFFF7FEFBFFF71EFCFFF75EFC3F
:10238000FFF792FCFFF732FD40F21010C2F200009E
:1023900000210026FFF714F940F25810C2F20000A5
:1023A0000021FFF70DF940F2A010C2F20000002159
:1023B000FFF706F940F2E810C2F200000021FFF733
:1023C000FFF840F20830C2F200000068FFF748FE54
:1023D000FFF74CFD40F60000C4F202004FF400513C
:1023E0000022FEF753F840F2C02440F2100540F2FC
:1023F0000007C2F20004C2F20005C2F2000701E0C9
:102400002E701DE02046294601224FF47A73FFF713
:102410000FFA28786138192812D8DFE800F0151172
:102420001119111111111111111111111111211184
:10243000261111112B0D111D3888FFF7AFFDDFE7B5
:102440000A20FDF73FFFDDE73888FFF741FDD7E7BA
:102450003888FFF781FDD3E73888FFF75BFDCFE7CA
:102460003888FFF7DDFD3880CAE73888FFF7DEFCE3
:102470003880C5E73888FFF7B3FD3880C0E702E051
:1024800008C8121F08C1002AFAD1704770470020FF
:1024900001E001C1121F002AFBD1704700000000BB
:1024A0000000000001020304060708090000000004
:1024B00001020304D82400080000002010000000DE
:1024C0007E240008E8240008100000200007000017
:1024D0008E240008000000004C0400000024F400DA
:0824E0000100000010000000E3
:040000050800018965
:00000001FF
