:020000040800F2
:10000000104700209D01000859350008C927000845
:1000100099340008D10C00080139000800000000E4
:10002000000000000000000000000000D1350008C2
:10003000D50C00080000000061350008F535000807
:10004000B7010008B7010008B7010008B7010008B0
:10005000B7010008B7010008B7010008B7010008A0
:10006000B7010008B7010008B7010008B701000890
:10007000B7010008B7010008B7010008B701000880
:10008000B7010008B7010008B7010008B701000870
:10009000B7010008B7010008B7010008B701000860
:1000A000B7010008B7010008B7010008B701000850
:1000B000B7010008B7010008B7010008B701000840
:1000C000B7010008B7010008B7010008B701000830
:1000D000B7010008B7010008B7010008B701000820
:1000E000B7010008B7010008B7010008B701000810
:1000F000B7010008B7010008B7010008B701000800
:10010000B7010008B7010008B7010008B7010008EF
:10011000B7010008B7010008E1360008B701000880
:10012000B7010008B7010008B7010008B7010008CF
:10013000B7010008B7010008B7010008B7010008BF
:10014000B7010008B7010008B7010008B7010008AF
:10015000B7010008B7010008B7010008B70100089F
:10016000B7010008B7010008B7010008B70100088F
:10017000B7010008B7010008B7010008000000003F
:10018000B7010008B7010008DFF80CD000F084FBCD
:1001900000480047094600081047002006488047ED
:1001A00006480047FEE7FEE7FEE7FEE7FEE7FEE75C
:1001B000FEE7FEE7FEE7FEE7CD360008890100080E
:1001C0002DE9F05F0546002092469B46884606468C
:1001D000814640241BE0284641464746224600F01F
:1001E0005DFA53465A46C01A914110D3114618463B
:1001F000224600F044FA2D1A67EB01084F462246CA
:100200000120002100F03BFA17EB00094E41201EAF
:10021000A4F10104DFDC484631462A464346BDE8E6
:10022000F09F2DE9F0410024061B254671F10006E0
:1002300005DA01240027D0EB070067EB0101161E49
:1002400073F1000605DA0027D2EB0702012567EB00
:100250000303FFF7B5FF86460E4617469C46AC42A1
:1002600004D00025D0EB050E65EB010624B100207B
:10027000D2EB000760EB030C704631463A4663460A
:10028000BDE8F081D2B201E000F8012B491EFBD29B
:1002900070470022F6E710B513460A460446194691
:1002A000FFF7F0FF204610BD30B50446002003469E
:1002B00000E05B1C934203D2E05CCD5C401BF8D0B5
:1002C00030BD2DE9FE4F804681EA0300C00F0C4689
:1002D000009021F0004123F00045B8EB0200A94155
:1002E00005D24046214690461C460B46024623F066
:1002F0000040104347D0270DC7F30A00C3F30A514B
:100300000290401A019040286BDAC3F3130040F4C6
:10031000801B0098924620B10023D2EB030A63EBC6
:100320000B0B01985946C0F14002504600F0A7F966
:1003300006460D4650465946019A00F0BFF910EBAB
:1003400008006141002487EA115284EAE7731A43E6
:1003500040D0009A62B3019A012A4FEA075215DC95
:10036000001B61EB02014FF0004202EA0752CDE9A7
:100370000042001C41F5801132462B4600F0F6F990
:1003800003B0BDE8F08F40462146F9E7001B61EB62
:100390000201001C41F5801300185B412018A2F5F2
:1003A000001747EB030140EAD570B6196D4111E023
:1003B0006D084FEA360645EAC0754FEA0752001B42
:1003C00061EB0201001C41F5801149084FEA300041
:1003D0000019514132462B4603B0BDE8F04F00F002
:1003E000B6B90098012240000023D0EB020263EB73
:1003F000E073009821464FEAE074B8EB000061EB2F
:100400000401E9E783F000435BE781F0004158E72E
:100410002DE9FE4F81EA030404F0004421F000417D
:1004200000944FF0000B23F0004350EA01045ED02B
:1004300052EA03045BD0C3F30A54C1F30A552C44B7
:10044000A4F2F3340194A0FB0254C1F3130141F46C
:100450008011C3F3130343F4801301FB024400FB38
:10046000034E840A970A44EA815447EA8357A4FB5F
:10047000076802958D0A05FB07854FEA932C04FB5C
:100480000C542705029D4FEA065847EA1637B5EB8C
:1004900008056EEB070C870E920E47EA811742EAB9
:1004A0008312A7FB0201B6EB0B0164EB00042B0DDA
:1004B00043EA0C335E1844EB1C50DA465146E7FB26
:1004C0000201C5F313044FEA0B3343EA14534FEA16
:1004D0000432019C43EA0603A4F10C040294009C3C
:1004E000CDE900B400F042F903B0BDE8F08F002080
:1004F0000146F9E72DE9F04D81EA030404F0004BD1
:1005000021F0004514464FF0000A23F0004150EA64
:10051000050220D054EA01021DD0C5F30A57024655
:10052000C5F31303C1F31300C1F30A5640F4801559
:1005300043F48013A7EB0608101BD64608F2FD38DB
:1005400073EB050002D308F1010801E092185B414A
:10055000B8F1000F03DA00200146BDE8F08D00205D
:100560004FF48011064684460EE0171B73EB050717
:1005700005D3121B63EB050306434CEA010C490843
:100580004FEA300092185B4150EA0107EDD152EA80
:10059000030012D082EA040083EA0501084305D073
:1005A000101BAB4106D20122002306E000224FF0CF
:1005B000004302E06FF0010253101AEB06004CEB0F
:1005C000085110EB0A0041EB0B01BDE8F04D00F0C3
:1005D000BEB8F0B4CA17CB0F50405140C61841F115
:1005E00000054FEAC372314628004FF0960303D04E
:1005F000B623F0BC00F07DB830460021F9E70EB517
:10060000C10F80EAE0700844CA07002140F233437A
:100610008DE80E000A460B4600F0A8F803B000BDB6
:1006200000F0004230F000400AD0C10D01F56071C9
:10063000C0F3160042EA0151C20840071143704757
:1006400000200146704701F0004330B421F0004122
:1006500050EA010206D00A0DA2F56072C1F313013F
:10066000002A02DC30BC00207047440F44EAC10479
:10067000C100E01830BC00EBC25000F031B8202AB5
:1006800004DB203A00FA02F1002070479140C2F1E9
:10069000200320FA03F3194390407047202A04DB1B
:1006A000203A21FA02F00021704721FA02F3D040EB
:1006B000C2F120029140084319467047202A06DB08
:1006C000CB17203A41FA02F043EAE07306E041FA20
:1006D00002F3D040C2F1200291400843194670470E
:1006E0000029A8BF7047401C490008BF20F0010046
:1006F000704710B4B0FA80FC00FA0CF050EA010424
:1007000004BF10BC704749B1CCF1200421FA04F4B5
:1007100011FA0CF118BF012121430843A3EB0C018E
:10072000CB1D4FEA00614FEA102042BF002010BCF1
:10073000704700EBC35010440029A4BF10BC7047A1
:10074000401C490008BF20F0010010BC704710B5E4
:10075000141E73F1000408DA401C41F100019218E4
:100760005B411A4301D120F0010010BD2DE9F04D8D
:1007700092469B4611B1B1FA81F202E0B0FA80F2E2
:1007800020329046FFF77BFF04460F4640EA0A00FE
:1007900041EA0B0153465A46084313D0114653EA27
:1007A000010019D0C8F140025046FFF777FF054617
:1007B0000E46504659464246FFF761FF084305D0B2
:1007C000012004E020463946BDE8F08D00200543B5
:1007D00046EAE0762C4337430A986305E40AA0EB27
:1007E00008000022FD0A44EA47540A3002D50020DE
:1007F0000146E9E7010510196941DDE908450019DD
:100800006941BDE8F04DA2E770B521F00043034314
:100810000CD0C1F30A550024D5EB040564EB0403A6
:10082000D617AD1AB34102DB0020014670BD201877
:1008300041EB025170BD000030B5041E71F100049F
:1008400004DB4FF00044404264EB0101141E73F1DD
:10085000000405DB1C464FF00043524263EB0403E7
:100860008B4208BF824230BD30B5041E71F10004D6
:1008700004DB4FF00044404264EB0101141E73F1AD
:10088000000405DB1C464FF00043524263EB0403B7
:10089000994208BF904230BD1CB5094800900948F4
:1008A00001900546009C06E0E06840F0010394E8F2
:1008B000070098471034AC42F6D3FFF769FC0000FC
:1008C000709A0008909A00082DE9F04D00231A460E
:1008D0001B1A8A4103DB00200146BDE8F08DC1F3FD
:1008E0000A52C1F3130141F480154FF0000BD107F8
:1008F00002D100186D41521E0027044640F2FF113C
:10090000384601EB620A3E468046024600204FF41C
:100910008011FFF7C3FEC2197141BB1846EB0100FD
:10092000B4EB030C75EB000C04D3E41A65EB000583
:1009300017460E46241908F101006D4180463428FF
:10094000E3DDF91946EB0600091BA84103D24FF07D
:10095000FF32134601E0002213461BEB070046EB73
:100960000A51BDE8F04DFFF7F2BE00002DE9F0435B
:1009700081B040F25408C2F20008D8F81800B8F864
:100980000010C210C1EB2010B8F904504043B8F970
:100990000230000BA2EB410268435A43801300EB84
:1009A000E22202EB8207B8F90A60A2F5FA33803737
:1009B00083FB031E3F12A1FB065000EE107A9FED51
:1009C0004F1AF717B8EEC00A01FB070080EE010AC4
:1009D000B8F908C00EFB06002D0A8CFB034C45EA53
:1009E0000065B8F8066015EB0435A5FB06574FEA1D
:1009F0000C3545EA145545EB202000F5004000FB7E
:100A00000675C8F820206A1052EAE57088ED0B0AD6
:100A10006FD0B8F91070B8F90E00A1FB07C9FC1728
:100A200001FB049183FB0003B8F90C60D8F81C406B
:100A30000EFB07115B04C4F5801743EAD03301EBCA
:100A4000C6011CEB4040594107F00043D0EBC77092
:100A500040F6354C43EA5703A0FB0C0463EB01015D
:100A600001FB0C41B8F91290EB17FFF7DAFB420BD0
:100A700042EAC142A2FB02374C13B8F9165002FBFE
:100A80000477A3FB05C602FB0472EF1703FB0763A1
:100A9000B8F9147002FB0532A0FB0764FB1700FBDA
:100AA00003434FEA5C6401FB0733551644EAC21264
:100AB000F70C47EA433780186941C01941EBE3411D
:100AC000000A0A1240EA01604FEAE971090141EAAD
:100AD000197110EB09105141FFF77BFD9FED090AD9
:100AE00001EE100A21EE000A88ED0A0A01B0BDE805
:100AF000F0839FED030A01B0BDE8F0830000C84217
:100B0000000000000000803B80B540F2540CC2F2AF
:100B1000000CDCF81810BCF80020CB10C2EB21113F
:100B2000BCF904E04943BCF90200090BA3EB420302
:100B300001FB0EF15843891301EBE02000EB80012B
:100B40008031091200EE101A9FED051AB8EEC00AA6
:100B500080EE010ACCF820008CED0B0A80BD00BFAE
:100B60000000C8420000000070B540F25406C2F216
:100B70000006B06AFFF754FD9FED190B53EC102BE4
:100B8000FFF7B8FC41EC100B9FED171B06F098FE29
:100B900053EC102B9FED160B51EC100BFFF732FCB2
:100BA0009FED150B53EC102BFFF732FC0446F06A57
:100BB0000D46FFF735FD9FED120B53EC102BFFF7A1
:100BC00080FB02460B4620462946FFF793FCFFF7C1
:100BD0003AFD00EE100A306370BD00BF00BF00BFD9
:100BE0000000000000AA8F40EBE2361AC05BC83F4D
:100BF000000000000000F03F3D0AD7A358A5E540E3
:100C0000666666666612714080B584B055208DF8C0
:100C10000F0001200DF10F01CDE9001040F204108A
:100C20004FF6FF7CC2F20000EC21F4220123CDF844
:100C300008C000F079FB04B080BD000080B586B02C
:100C400006200DF11201CDE9001040F204104FF61C
:100C5000FF7CC2F20000EC21F7220123CDF808C08E
:100C600000F0DEF99DF813109DF8120009019DF8BF
:100C7000142041EA00309DF816109DF8153040EA26
:100C8000121009019DF8172041EA033140F2540384
:100C9000C2F2000341EA1211C3E9061006B080BD9A
:100CA00040F28804C2F20004FFF7AEFFFFF7C6FF70
:100CB000FFF72AFF84ED000AFFF758FE84ED010AD2
:100CC000FFF752FFC82084ED020A05F05DF9EBE75B
:100CD000FEE700007047000072B600BFFEE70000AC
:100CE000B0B5044600F0E6F8054640F23800C2F21E
:100CF00000000078611C18BF044400BF00F0DAF85F
:100D0000401BA042FAD3B0BD2DE9F04F83B000F1F3
:100D1000200200F13E4741F60045009207F1FF77BF
:100D2000C4F2020508224FEAB726A84208BF0722EC
:100D300000254FF000084FF00009072E38BF4FEA9A
:100D4000B72201920AE000BF09F1010908F1020887
:100D5000B9F1100F05F1040500F0A2800F6801221F
:100D600002FA09FE17EA0E0AEED0D1F804C00322F7
:100D70000CF003077E1E02FA08F4012E6FEA040B42
:100D800012D88468CE6804EA0B0406FA08F63443E5
:100D90008460446824EA0E06CCF3001404FA09F4D3
:100DA0002643466004E000BF032F01D103271EE065
:100DB000C6688C6806EA0B0604FA08F42643022F7C
:100DC000C66014D16FF00302009E02EA590756F87C
:100DD00007C005F01C040F220B69A2402CEA020296
:100DE000A3401A43F251D1F804C00CF00307026883
:100DF00007FA08F302EA0B021A431CF4403F0260B0
:100E0000A2D0002243F644030292C4F202031A68FD
:100E100043F6004442F480421A601A68C4F20104A6
:100E200002F480420292029A29F003024FF6084C23
:100E30002244CFF6FF7C52F80C3005F00C070F2649
:100E4000BE40B343019E06FA07F73B4342F80C301D
:100E5000A2684B6842EA0A0743F60C4CDE0258BF10
:100E600022EA0A07A760C4F2010CDCF800209E0207
:100E700042EA0A0758BF22EA0A07CCF80070626803
:100E80009E0342EA0A0758BF22EA0A0767602268FF
:100E9000DB0342EA0A0758BF22EA0A07276053E742
:100EA00003B0BDE8F08F0000002A08BF090481618B
:100EB0007047000044F20800C2F20000006870476A
:100EC000002804BF01207047F0B581B0044690F8B7
:100ED0003D0028B9002084F83C00204600F0F8FAD4
:100EE000242084F83D002068016821F001010160A0
:100EF000016841F400410160016821F40041016092
:100F000000F060FD636848F2A16CC0F2010C40F68D
:100F10000011C0F23D0163453CBF48F28041C0F280
:100F20001E01884202D2012001B0F0BD4DF683615E
:100F3000C4F21B31A0FB01122168970CD1F804E028
:100F40004FF496762EF03F0545EA92454D60774383
:100F500048F638160D6AC0F24106A7FB067625F062
:100F60003F07634538BF960C721C3A430A62CA6950
:100F700048F2A0664CF6FF77C0F20106B34222EABF
:100F800007020AD801385B00B0FBF3F001306FF3C1
:100F90001F30042898BF042019E0A768013857B112
:100FA00019277B43B0FBF3F001306FF31F3068B1BA
:100FB00000F5804007E003EB4303B0FBF3F00130A2
:100FC0006FF31F3010B100F5004000E00120104326
:100FD000C8610868D4E9072320F0C0001043184313
:100FE0000860886848F2FF3204F10C0790438CCF08
:100FF00018431043A6698860C86820F0FF00384392
:101000003043C860086840F00100086000202021DB
:10101000206484F83D10206384F83E0001B0F0BDE8
:101020002DE9F04784B0984617460E460446FFF770
:1010300041FF94F83D10202922D10546206800BFC9
:101040008169890717D5FFF735FF411B20681A29E9
:10105000F6D381698907F3D500202021206384F825
:101060003D1084F83E00206C04F13C0940F0200063
:101070002064022051E1A14619F83C1F012903D147
:10108000022004B0BDE8F087012289F8002003683F
:10109000DDE90D1A0C9ADB0703D1036843F0010365
:1010A0000360036823F400630360222084F83D009A
:1010B000402084F83E000020206462626185608DDB
:1010C000314620850020CFF6FF70E06220463A4688
:1010D0004346CDE900A501F079FB18B1012004B029
:1010E000BDE8F087208D00B3022812D001282FD14F
:1010F00021680A6822F480620A60002203924A6929
:1011000003928A690392039A0A6842F400720A60A1
:1011100026E021680A6822F480620A600A6842F4C4
:1011200000620A600022039215E00020039020680C
:1011300041690391816903910399016841F4007148
:101140000160202084F83D00002084F83E00E4E0A7
:101150000021039121684A690392896903910399E7
:101160000AF10106216883B2084650F8142F032BB8
:101170001FD8022B00F08180012B56D050072FD5AD
:10118000086820F4806008600869616A0870606A15
:10119000216801306062208D01382085608D013822
:1011A00060852DE04869400640F1AB80084650F864
:1011B000142F520648D40168C90600F19680FFF743
:1011C00079FE2168BAF1000FECD0401B5045EDD9F3
:1011D000E8E74869400740F1948048694007CFD468
:1011E000002EFAD0FFF766FE2168BAF1000FF0D0AA
:1011F000401B5045F1D9ECE74869400740F1818038
:10120000486940073BD4002EFAD0FFF753FE21680F
:10121000BAF1000FF0D0401B5045F1D9ECE7486916
:1012200040066ED5084650F8142F52064DD401687A
:10123000C9065AD4FFF73EFE2168BAF1000FEED07E
:10124000401B5045EED9EAE70869616A0870606A98
:101250002268411C208D616201382085638D013B2D
:10126000638553695B073CD580B2032803D11068BE
:1012700020F480601060106929E0500719D50868D3
:1012800040F4007008600869616A0870606A22684A
:10129000411C6162218D01392185618D0139618592
:1012A0001169417014E0486940072AD54869400730
:1012B000E5D4002EFAD0FFF7FDFD2168BAF1000F4A
:1012C000F1D0401B5045F1D9EDE70869616A08701B
:1012D000606A218D01306062481E2085618D013970
:1012E000618501047FF43EAF2BE76FF010010160D0
:1012F00000202021206384F83D1084F83E00206CFB
:1013000009E000202021206384F83D1084F83E008D
:10131000206C40F0200020640120002189F800109A
:1013200004B0BDE8F08700002DE9F04383B0994692
:1013300016460F460446FFF7BDFD94F83D102029E0
:1013400020D10546206800BF8169890716D5FFF7BF
:10135000B1FD411B20681A29F6D381698907F3D5AD
:1013600000202021206384F83D1084F83E00216C89
:1013700041F02001216484F83C0003E094F83C1023
:10138000012903D1022003B0BDE8F083012284F8D3
:101390003C200368DDE90B180A9ADB0703D10368D8
:1013A00043F001030360036823F40063036021201A
:1013B00084F83D00402084F83E00002020646262F2
:1013C0006185608D394620850020CFF6FF70E06290
:1013D000204632464B46CDE9008501F01FFB18B18F
:1013E000012003B0BDE8F083208DB0B3216808F17F
:1013F000010602E04869000653D5084650F8142F4C
:1014000012060ED44A69520536D4002EF5D0FFF7E5
:1014100051FD2168B8F1000FECD0401B4045ECD9DC
:10142000E8E7626A104610F8013B0B61238D6062A9
:10143000581E2085678D013F67854F697F070AD554
:10144000070408D050780861901C6062981E2085BF
:10145000628D013A62850004CFD1204641462A467A
:1014600001F0C2FB68B1206C0428B9D12068016882
:1014700041F400710160B3E76FF480620260042000
:1014800010E02068016841F400710160202084F8B8
:101490003D00002084F83E0084F83C0003B0BDE825
:1014A000F083202000222023226384F83D3084F83A
:1014B0003E20236C1843206484F83C20206C0428D0
:1014C0007FF48EAF086840F40070086088E7000081
:1014D0002DE9F04786B0006845F60041C4F20001EE
:1014E00000268842CDE90466CDE9026601965DD00A
:1014F00045F60001C4F2000188422FD045F20041B8
:10150000C4F20001884240F09680002543F6300482
:101510000095C4F20204206801A940F00200206096
:10152000206800F0020000900098C0200190122076
:10153000CDE9020503200490042005900020C4F2A8
:10154000020000F58060FFF7DFFB0095206940F4A2
:1015500000102061206900F400106AE0002443F6C6
:1015600030050094C4F202052868122140F02000E2
:101570002860286800F02000009000980320019067
:101580000490042005900020C4F20200CDE902146A
:1015900000F5A05001A9FFF7B7FB0094286940F4BB
:1015A00080002861286900F4800042E043F630079B
:1015B0000096C4F202073868002440F00400386046
:1015C0003868C4F2020400F004000090009800960D
:1015D000386801AD40F00100386038684FF01208FB
:1015E00000F00100009000984FF4007001904FF05F
:1015F00003094FF0040A04F500602946CDE902868C
:10160000CDF81090CDF814A0FFF77EFB4FF480705A
:10161000CDE9010803A880E8400620462946FFF7E7
:1016200073FB0096386940F400003861386900F4B3
:1016300000000090009806B0BDE8F08740F2380046
:1016400044F20801C2F20000C2F2000100780A6808
:10165000104408607047000080B543F60040C4F2B3
:101660000200016841F400710160016841F4806189
:101670000160016841F480710160032000F0C2F84C
:101680000F2000F005F800F05DF8002080BD00009C
:1016900070B586B0002543F640010195C4F2020101
:1016A0000A68044642F010020A60096801A801F0C5
:1016B000100101910199694600F064F9049E002E21
:1016C00018BF012600F07EF94DF68361B040C4F2E8
:1016D0001B31A0FB01014FF0FF3000EB914140F2C4
:1016E000CC2041F20002C2F20000C4F2000240F23B
:1016F000E733C0E90021C0E902530561856100F0CC
:101700007BFB08B106B070BD40F2CC20C2F20000F5
:1017100000F0E8FB0028F5D1362000F035F80F2C5A
:101720000CD836202146002200F040F840F23C015F
:101730000020C2F200010C6006B070BD012006B0AE
:1017400070BD000082B0002043F640010190C4F259
:1017500002014A6842F480424A604A6802F48042C8
:101760000192019A00900868002240F080500860C1
:1017700008680F2100F08050009000986FF0010081
:1017800002B000F013B80000002848BF704700F016
:101790001F01012202FA01F11C2202EAD0004EF2DE
:1017A0000012CEF2000281507047000010B54EF6D4
:1017B0000C5CCEF2000CDCF80030C3F3022E8EF08D
:1017C0000704042C28BF0424BEF103034FF0FF3E9E
:1017D0000EFA04F438BF0023A14399400EFA03F334
:1017E0009A43114300F00F0200F160430901043AEB
:1017F00003F564436244002848BF02F10C031970EA
:1018000010BD00004EF60C51CEF200010A684FF6F2
:10181000FF031A4060F30A2242F0806040F0FD703E
:1018200008607047002804BF012070472DE9F0418F
:1018300043F60808C4F202080446D8F8F8030D4637
:1018400000F00700884207D288F8F853D8F8F80368
:1018500000F00700A84276D12068810717D541071C
:1018600005D5D8F8001041F4E051C8F80010010780
:1018700005D5D8F8001041F46041C8F80010D8F838
:101880000010A26821F0F0011143C8F80010C00751
:101890003FD1D8F8F80300F00700A84207D988F82C
:1018A000F853D8F8F80300F00700A8424BD120689D
:1018B000410707D5D8F80010E26821F4E051114340
:1018C000C8F80010000708D5D8F80000216920F4F6
:1018D000604040EAC100C8F8000000F09BF8D8F86A
:1018E000001048F69E52C1F30311C0F60002515C8D
:1018F00040F2080220FA01F140F23C00C2F200007E
:101900000068C2F200021160FFF7C2FE0020BDE8CD
:10191000F0816068811E022907D258F8081C8901ED
:101920005CBF0120BDE8F08110E0012807D158F824
:10193000081C89035CBF0120BDE8F08106E058F86F
:10194000081C890702D40120BDE8F081D8F80010F6
:1019500021F003010843C8F80000FFF7ABFA064680
:1019600041F28837D8F80000616800F00C00B0EB55
:10197000810F8ED0FFF79EFA801BB842F2D9032068
:10198000BDE8F0810F22026043F60802C4F20202B1
:10199000136803F003034360136803F0F0038360EC
:1019A000136803F4E053C360D2F800C04FF4E0536F
:1019B00003EADC030361D2F8F80300F007000860D3
:1019C0007047000040F2080043F60801C2F2000030
:1019D000C4F202010068096848F6AE52C1F38221E0
:1019E000C0F60002515CC8407047000040F2080099
:1019F00043F60801C2F20000C4F20201006809685F
:101A000048F6AE52C1F34231C0F60002515CC84004
:101A10007047000010B543F60404C4F20204606885
:101A200000F00C0142F200400829C0F2F40007D097
:101A3000042918BF10BD41F20020C0F27A0010BD89
:101A4000216801F03F02216823684902C3F388112D
:101A500005D4A1FB00010023FEF7B2FB06E041F232
:101A60000020C0F27A004843B0FBF2F02168022265
:101A7000C1F3014102EB4101B0FBF1F010BD0000E8
:101A8000002804BF012070472DE9F04182B00446D0
:101A9000007843F60006C007C4F202060BD0B06817
:101AA00000F00C00042876D13068800303D560680C
:101AB000002800F04F812078800719D5B06810F019
:101AC0000C0F07D0B06800F00C0008287DD17068BA
:101AD00040027AD43068800703D5E068012840F0DE
:101AE00039813068216920F0F80040EAC100306097
:101AF0002078000713D42078400726D4A569002D4C
:101B000000F02481B06800F00C00082840F09680B6
:101B1000012D40F0F880012002B0BDE8F08160693D
:101B2000002877D00020C4F247200121C0F8801E91
:101B3000FFF7C0F9054600BF706F8007DBD4FFF7E1
:101B4000B9F9401B0228F7D9D9E0306C5FEAC00828
:101B50000AD400200190306C40F080503064306C2A
:101B600000F080500190019847F20007C4F200078E
:101B70003868C00540D4386840F480703860FFF79A
:101B800099F905463868C00536D4FFF793F9401B2C
:101B90000228F7D9B3E0B06800F00C00082803D1A0
:101BA000706840023FF580AF61683068B1F5803FF2
:101BB00007D0B1F5A02F40F08C8040F48020306039
:101BC000306840F4803030608CE0E068002840F2FB
:101BD0000000C4F2472054D001210160FFF76AF9E8
:101BE000054600BF306880073FF57BAFFFF762F91D
:101BF000401B0228F6D982E0A168306F012905D088
:101C000005294FD140F004003067306F40F00100EB
:101C1000306750E00020C4F247200021C0F8801E49
:101C2000FFF748F9054600BF706F80077FF563AF87
:101C3000FFF740F9401B0228F6D960E00027C4F204
:101C4000472700203866FFF735F9022D05460DD1EC
:101C50003068800140F18280FFF72CF9401B022898
:101C60004FF00300F4D902B0BDE8F0813068800184
:101C70006CD5FFF71FF9401B02284FF00300F5D980
:101C8000F1E700210160FFF715F90546306880078C
:101C90007FF52EAFFFF70EF9401B02284FF003002F
:101CA000F4D9E0E720F001003067306F002920F020
:101CB0000400306773D0FFF7FDF8054641F288371E
:101CC000306F80077BD4FFF7F5F8401BB842F7D997
:101CD00015E020F4803030603068002920F4802046
:101CE000306075D0FFF7E6F8054600BF3068800326
:101CF0003FF5E1AEFFF7DEF8401B6428F6D903207C
:101D000002B0BDE8F0817068E16900F480028A42A7
:101D100020D1216A00F03F028A421BD147F6C071F0
:101D2000626A0140B1EB821F14D1A16A4FF6FF73C2
:101D3000C903994300F44032A1F580318A4209D1A8
:101D4000E16A00F07060B0EB016F03D1002002B0D7
:101D5000BDE8F081012002B0BDE8F08104F11C056E
:101D60002FCD084340EA8210D9034FF6FF7291430A
:101D7000A1F5803140EA05600843706001203866B3
:101D8000FFF798F8044600BF30688001DED4FFF703
:101D900091F8001B02284FF00300F5D963E7FFF725
:101DA00089F8054641F28837306F800707D5FFF77D
:101DB00081F8401BB8424FF00300F5D953E7B8F162
:101DC000000F3FF59BAE306C20F08050306495E6FC
:101DD000FFF770F8054600BF306880037FF56BAEF3
:101DE000FFF768F8401B64284FF00300F4D93AE786
:101DF0007047000070470000002804BF01207047B2
:101E000010B5044690F83D0028B9002084F83C0045
:101E1000204600F01FF8022084F83D002068211DB4
:101E200001F064FC012084F8460084F83E0084F848
:101E30003F0084F8400084F8410084F8420084F8B0
:101E4000430084F8440084F8450084F83D000020F5
:101E500010BD000083B0006841F60041C4F20001EB
:101E600088422DD042F20001C4F20001884216D00F
:101E700044F60001C4F2010188421FD10020029003
:101E800043F64000C4F20200416841F48021416001
:101E9000406800F480200290029803B07047002050
:101EA000009043F64000C4F20200016841F48071E2
:101EB0000160006800F480700090009803B07047E3
:101EC0000020019043F64000C4F20200016841F096
:101ED00080010160006800F080000190019803B06B
:101EE0007047000090F83D1001291CBF0120704789
:101EF000022180F83D10006841F2FF72C168C4F20F
:101F00000002904241F00101C1600DDC40F2FF711E
:101F1000C4F20001884215DCB0F1804F29D040F2B4
:101F20000041C4F2000122E040F2FF31C4F201019D
:101F3000884212DC41F60001C4F20001884218D048
:101F4000002112E040F60001C4F20001884210D0E6
:101F500040F60041C4F2000109E044F20001C4F27D
:101F60000101884205D040F20041C4F201018842DB
:101F700006D1816801F00701062904BF00207047DF
:101F8000016841F0010101600020704770470000C6
:101F900070B504460068C5680669B10716D515F026
:101FA000020113D06FF002010161012121778069E4
:101FB000800703D02046FFF7E9FF05E0204600F048
:101FC00015F9204600F066FA00202077700718D532
:101FD00015F0040015D020686FF0040101610221A2
:101FE0002177806910F4407F03D02046FFF7CEFFB1
:101FF00005E0204600F0FAF8204600F04BFA0020F9
:102000002077300717D515F0080014D020686FF03E
:102010000801016104212177C069800703D02046AF
:10202000FFF7B4FF05E0204600F0E0F8204600F09E
:1020300031FA00202077F00618D515F0100015D0E1
:1020400020686FF01001016108212177C06910F448
:10205000407F03D02046FFF799FF05E0204600F0BF
:10206000C5F8204600F016FA00202077F00718BFC8
:1020700015F0010002D1300609D412E020686FF09B
:1020800001010161204600F089FA300609D515F0FA
:10209000800006D020686FF0800101612046FFF7C4
:1020A000A7FE700609D515F0400006D020686FF035
:1020B00040010161204600F07BFAB00658BF70BDB8
:1020C00015F0200008D021686FF0200220460A6138
:1020D000BDE87040FFF78EBE70BD000080B586B0D1
:1020E000006841F6FF71C4F2000188424FF0000120
:1020F0000591CDE90311CDE901111DDC41F6000187
:10210000C4F20001884235D041F60041C4F200011A
:10211000884269D10020009043F63000C4F20200EA
:10212000016841F020010160006800F0200000908B
:1021300000984FF4807048E042F20001C4F20001C0
:10214000884231D044F60001C4F2010188424BD1EB
:102150000020009043F63000C4F20200016841F014
:10216000200101600068032100F020000090009829
:1021700080202BE00020009043F63000C4F20200E3
:10218000016841F0020101600068092100F00200CD
:10219000009000984FF48040019041F20040C4F25A
:1021A0000200A0F5805016E00020009043F63000B9
:1021B000C4F20200016841F020010160006800F0F3
:1021C0002000009000984FF400700921019041F226
:1021D0000040C4F20200022202920022059101A9ED
:1021E000CDE90322FEF790FD06B080BD70470000E8
:1021F00090F83C30012B04BF022070474FEAB20236
:10220000032A00F2FD802DE9F043DFE802F002AF7F
:102210003D7D036840F200461C6A1A6A24F00204FD
:1022200022F001021A621A46D3F804C052F818EFDD
:102230008F6843F48065C4F20106B54244EA07049E
:1022400005D1CF6824F00C0427F004073C430F6845
:10225000B54206D1D1E905582CF440762E4346EA22
:10226000080C2EF073063743C3F804C09F614F6813
:1022700009695F631C629F6947F008079F619F6956
:1022800027F004079F61B0E0036840F200481C6A31
:102290001A6A24F4007422F480721A621A46D3F87F
:1022A00004C052F81CEF8F6843F48065C4F2010843
:1022B000454544EA072408D1CF6840F2FF463F0273
:1022C00024F4406427EA06063443D1F800904545DB
:1022D00006D1D1E905562CF440572E4347EA061C97
:1022E0002EF0730747EA0907C3F804C0DF614F689F
:1022F0000969DF631C62DF6947F00807DF61DF6996
:1023000027F00407DF6170E0036840F20045D3F86E
:1023100020C01A6A43F4806722F480521A621A4677
:102320005C6852F81C8FD1F800E08E68C4F2010599
:10233000AF4204D14D6924F4804444EA85142CF45E
:10234000005747EA063728F4E64646EA0E265C6060
:10235000DE614E6809691E641F62DF6947F4006729
:10236000DF61DF6927F48067DF613DE0036840F2E9
:1023700000481C6A1A6A24F0200422F010021A6233
:102380001A46D3F804C052F818EF8F6843F48065FA
:10239000C4F20108454544EA071407D1CF686FF03D
:1023A000400624F0C00406EA07163443D1F8009032
:1023B000454506D1D1E905562CF440672E4347EA3E
:1023C000860C2EF4E64747EA0927C3F804C09F614C
:1023D0004F6809699F631C629F6947F400679F61AA
:1023E0009F6927F480679F61090213681943116090
:1023F0000021BDE8F043002280F83C2008467047E9
:102400000121F8E7002804BF0120704710B50446F9
:1024100090F83D0028B9002084F83C00204600F0E8
:102420001FF8022084F83D002068211D01F05EF9AC
:10243000012084F8460084F83E0084F83F0084F8C8
:10244000400084F8410084F8420084F8430084F896
:10245000440084F8450084F83D00002010BD0000D1
:10246000006841F60001C4F20001884218BF7047BD
:1024700081B00020009043F64000C4F202000168E1
:1024800041F040010160006800F0400000900098B9
:1024900001B0704770470000A1B1042904D0082999
:1024A00014BF4122402200E03F22825C012A11D168
:1024B0000222082910D0042914BF80F8412080F896
:1024C0003F200BE090F83E20012A03D1022280F841
:1024D0003E2003E00120704780F84020006801F0B2
:1024E0001F010122036A02FA01F123EA01020262DA
:1024F000026A114341F2FF72C4F20002904201628B
:102500000BDC40F2FF71C4F20001884213DCB0F131
:10251000804F35D040F2004115E040F2FF31C4F267
:102520000101884214DC41F60001C4F20001884236
:1025300026D0002114E040F60001C4F200018842D8
:102540001ED040F60041C4F20001884218D01EE0BF
:1025500044F20001C4F20101884211D040F200416E
:10256000C4F20101884212D1416C40F2004340F4B0
:102570008062C4F2010341F400419A42416406D1F1
:10258000816801F00701062904BF00207047016837
:1025900041F001010160002070470000006841F235
:1025A0000001C4F20001884218BF7047FFF746B827
:1025B00070470000002804BF0120704710B5044692
:1025C00090F8410028B9002084F84000204600F02F
:1025D00021F8242084F841002068C16821F40051CA
:1025E000C160204601F01CF92068016921F4904186
:1025F0000161416921F02A014161C16841F4005142
:10260000C16000202021606484F8411084F84210E9
:10261000606310BD80B586B044F600410068C4F226
:102620000001002288420592CDE903220292019224
:1026300001D006B080BD43F630000092C4F2020023
:10264000036943F400230361036903F40023009347
:10265000009B0092036843F00103036000680223BB
:1026600000F00100009000980320019004900820E1
:10267000059001F5DA3001A9CDE90232FEF744FBFD
:1026800006B080BD2DE9F04381B0044690F84100CA
:10269000202809D1894600294FF0010018BF002ADF
:1026A00006D101B0BDE8F083022001B0BDE8F0839F
:1026B0000020606421201D4684F841001646FEF784
:1026C000F9FBA684E684A1680646B1F5805F02D1D5
:1026D0002069002848D0C8464FF00009E18C2068E6
:1026E00021B36F1C0AE0B8F1000F18D018F8011BD5
:1026F0004160E18C0139E184E18CB9B101680906DE
:10270000F1D4002FFAD0FEF7D5FB01464FF00300BD
:1027100025B3891BA94221D82068C168EEE739F8A2
:10272000021B4FF000086FF35F21E1E701684906E3
:1027300013D46F1C03E000BF016849060DD4002FBD
:10274000FAD0FEF7B7FB01464FF0030035B1891B05
:10275000A94203D82068C168EEE70020202184F850
:10276000411001B0BDE8F0834FF00008B6E700006B
:1027700040F2940440F2AC1840F2F41540F23C26CA
:1027800040F28427C2F20004C2F20008C2F200053F
:10279000C2F20006C2F2000722884046002100F083
:1027A000CBFE22882846002100F0C6FE2288304653
:1027B000002100F0C1FE22883846002100F0BCFE56
:1027C000012003F0E1FBE7E7FEE700002DE9F04F11
:1027D00083B007680446DDF834B00C9E386899462B
:1027E00040F4806038603868904640F4807038600B
:1027F00078698A46C00714D1751C06E07869C0075D
:1028000000F0C0807869C0070BD1002DFAD0FEF728
:1028100051FB2768002EF1D0A0EB0B00B042F1D99C
:10282000ECE70AF0FE0AC7F810A0384650F8141F6B
:1028300089071AD4751C08E07869800740F1DD80AB
:10284000384650F8141F89070FD47969490500F1FB
:102850009080002DF4D0FEF72DFB2768002EEBD0E2
:10286000A0EB0B00B042EBD9E6E70020029038461F
:1028700050F8141F029141680291029901680906FB
:102880001AD4751C09E000BF7869000640F1A080E9
:10289000384650F8141F09060ED47969490552D4F8
:1028A000002DF5D0FEF706FB2768002EECD0A0EB3C
:1028B0000B00B042ECD9E7E7B9F1010F21D04FEAA4
:1028C00018203861384650F8141F090619D4751CB1
:1028D00008E000BF786900067AD5384650F8141F22
:1028E00009060ED4796949052DD4002DF5D0FEF7DF
:1028F000E1FA2768002EEDD0A0EB0B00B042ECD936
:10290000E8E75FFA88F03861384650F8141F090686
:102910001ED4751C08E000BF7869000658D53846FB
:1029200050F8141F090613D4796949050BD4002DFA
:10293000F5D0FEF7BFFA2768002EEDD0A0EB0B0014
:10294000B042ECD9E8E76FF480610160042040E018
:1029500038684FF0011140F4807038602046002242
:102960003346CDF800B000F07BF910B32068006862
:1029700016E0396841F4007139606FF480610160DC
:1029800004203BE000202021206384F83D1084F8DF
:102990003E00216C41F02001216484F83C0038683D
:1029A000C00544BF4FF400702064032003B0BDE8AD
:1029B000F08F25684AF001070221C0F2010120468C
:1029C00032465B462F6103B0BDE8F04F00F0A6B978
:1029D000202000212022216384F83D2084F83E102D
:1029E000226C1043206484F83C10206C042811D120
:1029F000386840F4007038600CE02020002120226C
:102A0000216384F83D2084F83E10226C104320643A
:102A100084F83C10012003B0BDE8F08F2DE9F047A9
:102A200082B09946036804461868DDF82CA040F48B
:102A30008070186058690A9E9046C0070F4614D1EE
:102A4000751C06E05869C00700F090805869C007FF
:102A50000BD1002DFAD0FEF72DFA2368002EF1D00D
:102A6000A0EB0A00B042F1D9ECE707F0FE001861D4
:102A7000184650F8141F89071AD4771C09E000BFC4
:102A80005869800740F18980184650F8141F89075B
:102A90000ED4596949055BD4002FF5D0FEF70AFA28
:102AA0002368002EECD0A0EB0A00B042ECD9E7E797
:102AB00000200190184650F8141F019141680191BF
:102AC00001990168090618D4771C07E058690006C7
:102AD00071D5184650F8141F09060ED459694905D6
:102AE0003FD4002FF5D0FEF7E5F92368002EEDD096
:102AF000A0EB0A00B042ECD9E8E7B9F1010F20D011
:102B00004FEA18201861184650F8141F090618D407
:102B1000771C07E0586900064DD5184650F8141F79
:102B200009060ED4596949051BD4002FF5D0FEF7CC
:102B3000C1F92368002EEDD0A0EB0A00B042ECD919
:102B4000E8E75FFA88F01861002002B0BDE8F0877E
:102B5000196841F4007119606FF48061016004200C
:102B60001CE06FF480610160042025E0002020213A
:102B7000206384F83D1084F83E00216C41F0200170
:102B8000216484F83C001868C00544BF4FF400700D
:102B90002064032002B0BDE8F0872020002120221D
:102BA000216384F83D2084F83E10226C1043206499
:102BB00084F83C1013E0202000212022216384F8B7
:102BC0003D2084F83E10226C1043206484F83C10B1
:102BD000206C042803D1186840F4007018600120AC
:102BE00002B0BDE8F0870000F0B581B0036804468C
:102BF000184650F8147F15467A0719D40E464F1C14
:102C000008E000BF586940071AD5184650F8141F4D
:102C100049070DD4596949050DD4002FF5D0FEF7A9
:102C200049F92368002EEDD0401BB042EDD9E9E709
:102C3000002001B0F0BD6FF480610160042000E06D
:102C4000202000212022216384F83D2084F83E10BA
:102C5000226C1043206484F83C10012001B0F0BDC8
:102C60002DE9F04F81B083461646DBF8002001F4D1
:102C70007F001827B0F5803F08BF1427D2598DB2C6
:102C800002EA0501491BB1FA81F14909B1424FF04D
:102C900018092AD1DDF828A098465C1CB0F5803FC1
:102CA00008BF4FF0140914E0DBF8000050F80900E9
:102CB0002840401BB0FA80F04009B04219D0DBF840
:102CC0000000C0592840401BB0FA80F04009B042D3
:102CD0000BD1002CF3D0FEF7EDF8B8F1000FE3D0E4
:102CE000A0EB0A004045EAD9DEE7002001B0BDE8CC
:102CF000F08F00202021CBF830008BF83D108BF8AE
:102D00003E00DBF8401041F02001CBF840108BF87A
:102D10003C00012001B0BDE8F08F00002DE9F0413A
:102D2000984603680446184650F8146F8FB206EAB6
:102D30000701B94202D10020BDE8F0811646551CBA
:102D40000AE000BF58693840B8421DD1184650F813
:102D5000141F3940B942EED0596949050BD4002DF2
:102D6000F4D0FEF7A7F82368002EEBD0A0EB080004
:102D7000B042EBD9E6E7196841F4007119606FF4CD
:102D800080610160042000E02020002120222163D6
:102D900084F83D2084F83E10226C1043206401200A
:102DA00084F83C10BDE8F0812DE9F0412DED0E8B4B
:102DB0008CB090460D4604460DF10D070DF10E0640
:102DC0000DF12A0009A905AA04ABCDE9006700F0BE
:102DD000F9FE10B14FF0FF30A0E0BDF80E00C005C5
:102DE00040F19B8005A890ED000A90ED011A9FED3F
:102DF000504A90ED022AB8EEC00A90ED033A20EE58
:102E0000049AB8EEC10A20EE04CAB8EEC20A20EE57
:102E100004AAB8EEC30A20EE04BAB8EE000A2CEEFB
:102E200000DA39EE098A28EE0A0A2DEE0B1A31EE85
:102E3000000A10EE100AFDF7F3FB41EC100B04F052
:102E400023F951EC100B9FED380B56EC107B3A46F2
:102E50003346FDF7DDFAFDF7F6FB3AEE0AEA28EE17
:102E60000C0A2EEE0B1A31EE000A206010EE100A4A
:102E7000FDF7D6FB2AEE0E0A2DEE0C1A31EE400AB3
:102E8000B7EE001A30EE010A41EC180B10EE100AF2
:102E9000FDF7C6FB41EC110BB0EE480AF0EE680AF4
:102EA00004F00EFC51EC100B3A463346FDF7B0FA35
:102EB000FDF7C9FB2CEE0A0A29EE0B1A31EE000AC7
:102EC00030EE000A286010EE100AFDF7A9FB2CEE88
:102ED0000C0A29EE091A31EE000A2AEE0A1A30EE1F
:102EE000410A2BEE0B1A30EE410A41EC180B10EEA2
:102EF000100AFDF795FB41EC110BB0EE480AF0EE1D
:102F0000680A04F0DDFB51EC100B3A463346FDF73E
:102F10007FFAFDF798FBC8F8000000200CB0BDEC6C
:102F20000E8BBDE8F08100BF6666666666A64C4003
:102F30000000803080B582B001A801F049FC18B1D2
:102F40004FF0FF3002B080BD782002F049FF18B189
:102F50006FF0010002B080BD782001F09FFB18B136
:102F60006FF0020002B080BD642002F0BBFE18B119
:102F70006FF0030002B080BD00F018FE18B16FF0D2
:102F8000040002B080BD01F03DFB00F0FFFF18B16E
:102F90006FF0050002B080BD40F2731000F0B2FC8B
:102FA00018B16FF0060002B080BD642000F046FF4B
:102FB00018B16FF0070002B080BD03F0D3FA18B16A
:102FC0006FF0080002B080BD012002F0C1FD0028B2
:102FD00018BF6FF0090002B080BD0000FFF7AAFF24
:102FE00004464FF47A7002F0CFFF002CF6D140F285
:102FF0004804C2F20004251D04F1080620462946B3
:103000003246FFF7D1FEC82002F0BEFFF6E700000F
:1030100080B596B0204810AF0F901FA000F1040EAD
:103020009EE80E50806987E80E5015900FA8002189
:1030300002F0B8FF40F29801C2F200011D4A086098
:103040001CA000F1040E08929EE80E50806909AFA2
:1030500087E80E500E9008A8002102F0A3FF40F26E
:103060005C31C2F200011A4A086019A000F1040E96
:1030700001929EE80E50806902AF87E80E500790DB
:1030800001A8002102F08EFF40F26031C2F200017F
:10309000086016B080BD00BFF0990008DD2F000861
:1030A00000000000000000008000000000000000A0
:1030B00000000000DE990008A10C000800000000DC
:1030C0000000000080000000000000000000000080
:1030D000E7990008712700080000000000000000C8
:1030E000800000000000000000000000F0B587B084
:1030F000002543F630000695CDE90455CDE902558B
:103100000195C4F20200016840F6000441F0040198
:1031100001600168C4F2020401F004010191019907
:1031200001950168012241F02001016001684FF41E
:10313000005601F0200101910199019501680127D4
:1031400041F080010160016801F080010191019965
:103150000195016841F001010160016801F0010180
:10316000019101990195016841F002010160006837
:103170004FF4005100F00200019001982046FDF745
:1031800093FE02A92046CDE90267CDE90455FDF77B
:10319000BBFD07B0F0BD000080B540F2B00045F2C5
:1031A0000041C2F20000C4F2000141F68022002377
:1031B0004FF4804CC0F2060280E80E00C0E9033CE8
:1031C000C0E90533C0E90733FDF77AFE002808BFE0
:1031D00080BDBDE88040FDF77FBD000080B540F2B6
:1031E000041045F60001C2F20000C4F2000141F6ED
:1031F000802200234FF4804CC0F2060280E80E00CB
:10320000C0E9033CC0E90533C0E90733FDF758FEC8
:10321000002808BF80BDBDE88040FDF75DBD00000F
:1032200080B540F2581045F60041C2F20000C4F2E9
:10323000000141F6802200234FF4804CC0F20602C8
:1032400080E80E00C0E9033CC0E90533C0E907335C
:10325000FDF736FE002808BF80BDBDE88040FDF7C1
:103260003BBD000080B588B040F2AC1044F60002CF
:103270000021C2F20000C4F20102A72344F61F6C31
:10328000CDE90611CDE90411C0E90023C0E9021C13
:1032900001618161FEF7B0FD002818BFFDF71CFD3C
:1032A00040F2AC10C2F20000FFF7ACF8002818BFE3
:1032B000FDF712FD602001900020CDE9020005908D
:1032C00040F2AC10C2F2000001A90022FEF790FF0C
:1032D000002818BFFDF700FD40F2AC10C2F200005C
:1032E000FEF7FCFE08B080BD10B588B040F2F410C7
:1032F00041F600010024C2F20000C4F2000144F6CD
:103300001F63CDE90644CDE90444532280E816004A
:10331000C0E903348461FFF775F8002818BFFDF792
:10332000DBFC6020CDE9010440F2F410C2F20000A1
:1033300001A9002203940594FEF75AFF002818BF44
:10334000FDF7CAFC40F2F410C2F20000FEF7C6FE20
:1033500008B010BD80B588B040F23C2041F6004274
:103360000021C2F20000C4F20002532344F61F6C95
:10337000CDE90611CDE90411C0E90023C0E9021C22
:1033800001618161FEF738FD002818BFFDF7A4FC3C
:1033900040F23C20C2F20000FFF734F8002818BFCA
:1033A000FDF79AFC602001900020CDE90200059015
:1033B00040F23C20C2F2000001A90022FEF718FFF3
:1033C000002818BFFDF788FC40F23C20C2F2000044
:1033D000FEF784FE08B080BD80B588B040F284203E
:1033E00042F200020021C2F20000C4F200025323A4
:1033F00044F61F6CCDE90611CDE90411C0E90023A4
:10340000C0E9021C01618161FEF7F6FC002818BFCB
:10341000FDF762FC40F28420C2F20000FEF7F2FFEA
:10342000002818BFFDF758FC602001900020CDE96E
:103430000200059040F28420C2F2000001A900229F
:10344000FEF7D6FE002818BFFDF746FC40F28420A8
:10345000C2F20000FEF742FE08B080BD80B540F227
:10346000143044F60041C2F20000C4F2000100230F
:103470004FF00C0C4FF4E13280E80E00C0E903334A
:10348000C0E905C3C361FFF795F8002808BF80BDF8
:10349000BDE88040FDF720BCFEE70000F0B581B03C
:1034A00040F2AC14C2F2000420684FF4FA6140F21A
:1034B000F4154163C2F20005286840F23C264163DE
:1034C000C2F20006306840F284274163C2F200076E
:1034D000386841634FF4FA60FDF702FC20684FF44E
:1034E0007A71416328684163306841633A684FF4F8
:1034F000FA60516301B0BDE8F040FDF7F1BB000098
:1035000040F2AC10C2F2000000684FF482614163E7
:1035100040F2F410C2F200000068416340F23C2027
:10352000C2F200000068416340F28420C2F2000051
:103530000068416370470000006851B1082905D058
:10354000042914BF40213821425070473C21425089
:103550007047342142507047FEE700000000000031
:10356000EFF30980BFF36F8F154B1A681EF0100F31
:1035700008BF20ED108A20E9F04F10602DE9090006
:103580004FF0500080F31188BFF34F8FBFF36F8F60
:1035900003F082FA4FF0000080F31188BDE80900C3
:1035A00019680868B0E8F04F1EF0100F08BFB0ECC3
:1035B000108A80F30988BFF36F8F704700BF00BF88
:1035C0006403002000000000000000000000000074
:1035D000074B19680868B0E8F04F80F30988BFF31B
:1035E0006F8F4FF0000080F31188704700BF00BF5D
:1035F0006403002080B54FF0500080F31188BFF3C2
:103600006F8FBFF34F8F03F0BBFB30B14EF604500A
:10361000CEF200004FF080510160002080F311884D
:1036200080BD000070B592B006AC20463021FCF79A
:1036300030FE002543F640000595CDE90355CDE960
:1036400001550095C4F202000168022641F0805144
:103650000160006800F080500090009847F2000080
:103660000095C4F20000016841F4804101600068E7
:10367000A82100F4804000900098012006904FF4AB
:10368000803007904FF480000D9004200E90119030
:1036900020460C96CDE90F16FEF7F2F908B172B686
:1036A000FEE70F20CDE901064FF4A05004904FF43F
:1036B0008050059001A805210395FEF7B3F810B1DD
:1036C00072B600BFFEE712B070BD00004EF6885023
:1036D000CEF20000016841F4700101607047000003
:1036E00040F2CC20C2F20000FEF752BC10B540F60A
:1036F000FF3E0368C4F2000E40F2004C7045C4F275
:10370000010C0FDCB0F1804F19D040F20042C4F23E
:103710000002904213D040F60002C4F20002904230
:103720000DD010E040F60042C4F20002904206D0F4
:10373000604504D00022C4F20102904203D14A68DD
:1037400023F07003134341F6FF72C4F2000290426B
:103750000FDC704521DCB0F1804F41D040F20042D7
:10376000C4F2000290423BD040F60002C4F20002D4
:1037700034E043F6FF72C4F2010290421EDC42F2D2
:103780000002C4F2000290422AD00022C4F20102D8
:10379000904225D0604523D026E040F60042C4F296
:1037A000000290421CD041F60002C4F20002904296
:1037B00016D041F60042C4F200020FE044F20002CB
:1037C000C4F2010290420BD044F60002C4F201029E
:1037D000904205D044F20042C4F20102904203D16B
:1037E000CA6823F44073134323F080024B69D1F875
:1037F00000E08C681A430260C46240F48062C0F842
:1038000028E0624504BF0969016301214161016942
:10381000C90708BF10BD016921F00101016110BD98
:10382000B0B50446006804F108030ECB05691943DE
:1038300025F440552A4302616269E3691143C26875
:10384000194349F20C639A431143C1604169A2696B
:1038500021F4407141F20043114340F48062C4F20C
:1038600001039A42416102D1FEF7C0F801E0FEF780
:10387000A9F8E1694FF69C7563681922C0F6FF75D7
:10388000B1F5004FA0FB02011CD15A00DB0FFCF781
:1038900097FC48F21F51C5F2EB11A0FB01235A0916
:1038A00005F1805302FB0300322303EBC000A0FBB1
:1038B00001014FF4F87000EA111000EB0210C1F39F
:1038C000421118E09A009B0FFCF77AFC48F21F5156
:1038D000C5F2EB11A0FB01235A0902FB05003223BC
:1038E00003EB0010A0FB0101F02000EA511000EBF7
:1038F0000210C1F34311084421688860B0BD000084
:10390000FEE7000070B586B004464CF60220C0F613
:10391000E3100DF10205CDF80200682004212A46CB
:1039200002F0EEFA14F040014FF0A3006FF03F01F7
:103930008DF8020008BF6FF05C016FF037026FF086
:103940003D0308BF6FF05C0208BF6FF05C038DF8A9
:10395000031014F4C0716FF03B018DF804208DF852
:10396000053008BF6FF05C016FF033026FF0390370
:1039700008BF6FF05C0208BF6FF05C038DF80610A3
:103980004AF2A3318DF80720ADF809108DF80B002D
:1039900040F6A7200A212A468DF8083002F0B0FA36
:1039A0002020A60708BF6FF027008DF8020040F620
:1039B000B62001212A4602F0A3FAA0060BD4C720A4
:1039C000059048F6B000CCF2C35004904AF6B820F7
:1039D000CAF6AA200AE05D20059049F6B400C3F2B9
:1039E0000D5004904AF6B820C8F6B350039003AACD
:1039F0004FF49760092102F083FA14F4C07F25D0B8
:103A00006FF04D016FF0740214F4807008BF6FF016
:103A10004F0108BF6FF07F026FF049036FF064053C
:103A200008BF6FF04B03002808BF6FF06F058DF8DB
:103A300002108DF803200DF1020240F6A2200421AD
:103A40008DF804308DF8055002F05AFAE00708D1DD
:103A5000D8208DF802000DF102024FF40B60012115
:103A600050E0F8208DF802000DF102024FF40B60D7
:103A7000012102F045FA0720FA2100F0F9FA3F206F
:103A80008DF80C0003AA4FF4A470012102F038FA5B
:103A900000208DF80C0003AA40F24F10012102F023
:103AA0002FFA4FF4A050ADF80C0003AA4FF4EF70BA
:103AB000022102F025FA4FF4C840ADF80C0003AA29
:103AC0004FF4ED70022102F01BFA48F60060C9F2D3
:103AD000F900039003AA4FF4AE70042102F010FA2B
:103AE0004FF40060ADF80C0003AA4FF4AD70022152
:103AF00002F006FA4FF40070ADF80C0003AA4FF480
:103B0000AC70022102F0FCF96FF02600002E58BFC5
:103B10006FF027008DF802000DF1020240F23D70B7
:103B2000012102F0EDF9600752BF4FF08B304CF2EB
:103B3000C020CCF2C460039003AA40F69820042170
:103B400002F0DEF901F0CAF9E00652BF4FF0A330EF
:103B500042F62000C3F63000039003AA40F69E20F0
:103B6000042102F0CDF901F0B9F940F2A80144F0C6
:103B70000800C2F200016506088001F0AFF90620D6
:103B800000EAE57114F4C07F18BF063140F2AE02BE
:103B900014F0140F18BF1031C2F20002002E18BF2B
:103BA00004310020117006B070BD000048F6BE510F
:103BB000C0F6000140F6F6304FF48062C82300F0F2
:103BC00001BF00002DE9F04F89B0834640F2AE00FE
:103BD0001446DDE912A2C2F200000F46002100786F
:103BE0000DF10409AAF800104946984601F004F9BD
:103BF00020B14FF0FF3009B0BDE8F08F40F2A800CF
:103C0000C2F20000B0F800C01CF0140F4BD09DF8B9
:103C100005209DF80410BDF8066012049DF80950B7
:103C200042EA016132BA9DF8083041EA1242BDF819
:103C30000A6022602A0442EA036233BA42EA13436A
:103C400063609DF80D309DF80C60BDF80E501B04AC
:103C500043EA06632EBA43EA1646A6609DF8116051
:103C60009DF8105011FB31F1360412FB3211BDF8F2
:103C7000120046EA056613FB331116FB361100BA33
:103C800001F1714146EA1040B1F1007FE0606CD86B
:103C9000BAF80000102140F48070AAF800005FEA32
:103CA0004C6004D41DE000215FEA4C6019D509EB9B
:103CB000010019F8012043788678C57804794079A5
:103CC00043EA02223A8045EA062240EA04207A804A
:103CD000B880BAF8000041F0060140F00800AAF8E8
:103CE00000001CF4C07F18D039F8010009EB010274
:103CF00000BA5388000CABF8000018BA9288000C88
:103D0000ABF8020010BA000CABF80400BAF80000DF
:103D1000063140F07000AAF800005FEA8C701CD0F9
:103D200009EB01056878EC78C1070CD040F29C01E2
:103D3000C2F200010A6832B104F00700411CC4F36A
:103D4000C20090476878000707D540F2A000C2F291
:103D50000000016809B1A0098847FDF7ABF8C8F871
:103D60000000002009B0BDE8F08F01F0B7F8002096
:103D7000AAF800003DE7000010B584B004460DF13C
:103D8000020000F0EDFC40F2A401BDF802C000BF4B
:103D9000C2F20001098801F003024B0754F8222007
:103DA0004FF00C0348BF524203EA51038806E35820
:103DB000C1F3811048BF5B4254F82000C90548BFD9
:103DC00040424FEACC3181FB02C481FB03E281FB1C
:103DD00000014FEA9C73800F43EA840C4FEA9E7304
:103DE00040EA810EA00D8DF80400A00B8DF80500AF
:103DF000A0098DF80600900D8DF80800900B8DF845
:103E0000090090098DF80A00880D8DF80C00880BC8
:103E10008DF80D00880943EA82038DF80E0001AA8F
:103E20004FF425700C218DF807C08DF80B308DF8FC
:103E30000FE002F065F804B010BD000010B586B0C8
:103E40004AF6BB71CDF6DF7105914FF2AA11CDF69E
:103E5000DF7104914FF2FE21CCF2AB41C8280391EF
:103E600018D80446C0B2C821B1FBF0F000210138D7
:103E70008DF804108DF8050001AA40F216200221E9
:103E800002F03EF830B903AA40F6C1200C2102F03E
:103E900037F818B14FF0FF3006B010BD40F2AC005B
:103EA000C2F200000480002006B010BDF0B581B061
:103EB00040F2A401C2F200010E880C2306F00301B7
:103EC0004EF2093450F8211003EA5603C0F2CA2416
:103ED000720748BF4942C758C6F3811381FB0412D9
:103EE00050F82350F0054FEA91704FEA925148BFC5
:103EF0006D428DF80010910B40EA82008DF80110A0
:103F000091098DF802108DF803006A464FF4747021
:103F1000042101F0F5FFE0B9B00648BF7F42A7FBDE
:103F20000401FA1702FB0411800F8A0D40EA810098
:103F30008DF800208A0B89098DF801208DF8021078
:103F40008DF803006A464FF47570042101F0D8FF24
:103F500018B14FF0FF3001B0F0BD85FB0401800FB8
:103F600040EA8100010E8DF80010010C8DF801105F
:103F7000010A8DF802108DF803006A464FF476703E
:103F8000042101F0BDFF01B0F0BD0000B0B582B06A
:103F9000054648F69B51C0F60001C5F3C10300F089
:103FA0000300CC5C0A5C8DF8054048F698548DF807
:103FB0000420C5F38112C0F60004895C205C8DF8F2
:103FC00006108DF80000E05CA15C8DF801008DF812
:103FD000021001AA40F22640032101F091FF50BBDC
:103FE0006A4640F22A40032101F08AFF18BB45F2DD
:103FF0003660C0F27600019044F22660C0F266009E
:10400000690700901BD4A80621D4E80505D57720C0
:104010008DF8060067208DF8020001AA4FF4886031
:10402000032101F06DFF30B96A4640F231400321AF
:1040300001F066FFA0B14FF0FF3002B0B0BD3720F5
:104040008DF8040027208DF80000A806DDD5572044
:104050008DF8050047208DF80100E805D7D4DCE78E
:1040600040F2A400C2F200000580002002B0B0BD02
:10407000B0B582B00446B1F5C86F4FF0FF3045D8F7
:1040800014F0070242D00DF103000D4600F04CFB86
:104090009DF8030002384FEA7000072864D8C1B2C7
:1040A0008B2222FA01F1C9075ED000EE105A9FED73
:1040B000301AB8EE400A80EE010A2EA101EB800111
:1040C00091ED001A33A101EB800090ED002A20EE63
:1040D000011A20EE020ABDEEC00A10EE100ABDEE73
:1040E000C10A10EE101A0A0A8DF804208DF8051086
:1040F000010A01AA951C8DF80610E1078DF807004A
:1041000006D1A00712D460071FD4002002B0B0BDB2
:104110004FF4EA70022101F0F3FE28BB4FF49270D5
:1041200002212A4601F0ECFEF0B9EAE701AA4FF4B9
:10413000EC70022101F0E4FEB0B94FF4947002215A
:104140002A4601F0DDFE78B9DDE701AA4FF4EE70F2
:10415000022101F0D5FE38B94FF4967002212A46AB
:1041600001F0CEFE0028D0D04FF0FF3002B0B0BD3D
:1041700000004843000080460000004600008046E2
:104180000000804500008046000080460000804618
:1041900000000045000040460000C04500004046C9
:1041A00000004045000040460000404600004046F8
:1041B0000000C04480B582B0019040F21430C2F2D9
:1041C000000001A901224FF0FF33FEF75BFA0198CE
:1041D00002B080BD2DE9F04F89B040F20C0BC2F265
:1041E000000B89468046DBE900010125ADF8185037
:1041F000437D022006AC0978CDE9004040F2B000D2
:1042000016460F27C2F200001A4601230297FDF757
:104210008BF8002840F02B81C82001F0B5FE00206B
:10422000DBE900218DF818000978527C40F2B000DB
:10423000C2F200000123CDE901570094FDF774F8A4
:10424000002840F01481DBE900010F25097842794C
:1042500040F2B0000127C2F200000123CDE900477F
:104260000295FDF761F8002840F00181DBE90001CB
:1042700001230978427D40F2B000C2F20000CDE98E
:1042800001750094FDF750F8002840F0F080DBE95C
:1042900000010F250978827E40F2B0000127C2F2AA
:1042A00000000123CDE900470295FDF73DF8002805
:1042B00040F0DD80DBE9000101230978027940F25A
:1042C000B000C2F20000CDE901750094FDF72CF8B2
:1042D000002840F0CC800C20DBE900218DF818008C
:1042E0000978127940F2B0000F250127C2F20000D0
:1042F0000123CDE900470295FDF716F8002840F0AC
:10430000B6800F2001F040FEDBF82800DBE9002139
:10431000407A92788DF81800097840F2B000C2F225
:1043200000000123CDE901750094FCF7FDFF002892
:1043300040F09D80DBF82800DBE90021007A52780C
:104340008DF81800097840F2B0000F250127C2F25D
:1043500000000123CDE900470295FCF7E5FF0028A6
:1043600040F08580DBF82800DBE90021807A002E10
:1043700018BF40F0E0008DF818000978927940F2FB
:10438000B000C2F200000123CDE901750094FCF7F2
:10439000CBFF00286BD12EB1DBF82800C07A60F08B
:1043A0001F0000E01820DBE900218DF818000F2025
:1043B00001230978D279CDE9013040F2B000C2F290
:1043C00000000094FCF7B0FF002850D116B1C820BF
:1043D00001F0DAFD4020DBE900218DF818000978B2
:1043E000127940F2B0000F250126C2F2000001232D
:1043F000CDE900460295FCF797FFC0BB7820DBE9CA
:1044000000218DF818000978527940F2B000C2F20C
:1044100000000123CDE901650094FCF785FF30BB66
:10442000322001F0B1FD0020DBE900218DF81800F9
:10443000012009785279CDE9004040F2B0000F2503
:10444000C2F2000001230295FCF76EFF78B9DBE9A8
:1044500000010123027B02200978CDE9010540F229
:10446000B000C2F200000094FCF7DAFD20B14FF07A
:10447000FF3009B0BDE8F08FBDF818004AF6AB2157
:1044800000BA000C4843C0F3C7420021002AC8E923
:104490000011C8F80810C9E900110492C9F8081001
:1044A00049D0C00C0026C0B20590DBE90001012311
:1044B000427B0C200978019040F2B000C2F200006B
:1044C0000F2700940297FCF7ABFD0028CFD1BDF871
:1044D0001800BDF81A10BDF81C20D9E90037D9F82A
:1044E000085000BA09BA12BA03EB204007EB214189
:1044F00005EB2242C9E90001C9F80820BDF82010E7
:10450000BDF82220D8E90037D8F80850BDF81E00C1
:1045100009BA12BA07EB214A05EB22470136059A80
:1045200000BAF1B203EB20409142C8E9000AC8F892
:104530000870BAD303E0D8E9000AD8F80870C117A8
:10454000090441EA1041000483220023FBF769FEBD
:10455000049E00233246FBF764FEC8F800004FEAD1
:10456000EA70000440EA1A414FEA0A40832200231D
:10457000FBF757FE32460023FBF753FEC8F8040052
:10458000F817000440EA1741380483220023FBF7A0
:1045900048FE32460023FBF744FEC8F80800D9E97C
:1045A0000005D9F80840C117490141EAD06140012E
:1045B00032460023FBF735FEC9F80000E81740013A
:1045C00040EAD561680132460023FBF72AFEC9F8AC
:1045D0000400E017400140EAD46160013246002344
:1045E000FBF71FFE01464FF480320029C4BF0022B2
:1045F000CFF6FF7211440020C9F8081009B0BDE8D9
:10460000F08F0000AC207047FDF726F8FFF70AF89E
:10461000FEF76CFDFEF722FFFEF7DEFEFEF7BCFDA7
:10462000FEF7DCFDFEF7FCFDFEF71CFEFEF75CFE70
:10463000FEF790FE40F2AC10C2F200000021FDF740
:104640002BFF40F2F410C2F200000021FDF724FF1E
:1046500040F23C20C2F200000021FDF71DFF40F2B5
:104660008420C2F200000021FDF716FFFEF716FFBE
:1046700040F60000C4F202004FF400510022FCF7A3
:1046800013FC41F28830FCF72BFBFEF739FFFEF7F5
:10469000BFFC01F081FC00BFFEE70000F0B585B073
:1046A00040F20C04C2F2000494F8241011B100206E
:1046B00005B0F0BDA17AB9B100F0FE073940267C03
:1046C000CD1B207D18BF4FF0FF35002F217408BF90
:1046D00000280DD0012001F08DFF17B300F0FEFB84
:1046E0000028284602D026744FF0FF3005B0F0BDF8
:1046F0000020D4E900218DF8130001200DF11303EF
:104700000978527CCDE9003040F2B0000F27C2F2A8
:10471000000001230297FCF707FE10B99DF8130073
:104720006074284605B0F0BD40F20C01C2F20001F1
:104730004A7A032A84BF4FF0FF30704740F20243A9
:10474000D200C1F20803D3400370C97C29B140F6FE
:104750000401C2F21001D140017000207047000036
:1047600040F20C01C2F200014A7A032A84BF4FF0E2
:10477000FF30704706A333F81230C97C0FF2180CD3
:104780003CF812200029038018BF028000207047E7
:1047900000409C1F001000080020CE0F00080004FD
:1047A00040F20C01C2F20001097A032984BF4FF0E4
:1047B000FF30704702A252F82110016000207047BC
:1047C0000000034300008342333303423333834109
:1047D000F0B585B040F20C04C2F200048020D4E9A8
:1047E00000218DF80D000978527D40F2B0000F26AF
:1047F00001270DF10D05C2F200000123CDE900579C
:104800000296FCF791FD28BB642001F0BDFB00205F
:10481000D4E900218DF80D000978527D40F2B000F6
:10482000C2F200000123CDE901760095FCF77CFD82
:1048300080B9D4E900010623427E0F200978CDE932
:10484000013040F2B000C2F2000001230095FCF7F5
:10485000E7FB18B14FF0FF3005B0F0BD9DF8122016
:104860009DF80E009DF81010042303EA820261F304
:10487000410200F00100111854D0012902D0022990
:1048800072D10021E1744FF6FF700021E081FF201A
:10489000C4E90511E1612184C4F8231084F82710CC
:1048A00018212074A0744FF0FF308DF81310D4E954
:1048B0000021A06001200DF1130320730978927983
:1048C00084F82200CDE9003040F2B0000F27C2F298
:1048D000000001230297FCF727FD0028BAD19DF8BC
:1048E0001300C0082072022001F052F80028B1D154
:1048F0002A2001F0B7F90028ACD1322001F0F2F9FA
:104900000028A7D10020FFF7C9FE0028A2D100206F
:1049100001F08AF800289DD1002001F061FA002002
:1049200005B0F0BDD4E900010F27C2780120097855
:10493000CDE9005040F2B000C2F20000012302971E
:10494000FCF76EFB00287FF485AF9DF80D0000F0AA
:104950000F0004280CD0002893D149F6FC10C0F6B3
:10496000000004F011F975E70CA002F063FB71E799
:1049700002A004F009F9012184E700BF48616C66D8
:104980002073656E736974697669747920706172D9
:104990007420666F756E642E00000000556E73758E
:1049A00070706F7274656420736F6674776172657E
:1049B0002070726F64756374207265762025642E92
:1049C0000A0000002DE9F04F8DB0074600294FF096
:1049D000FF3000F0C38040F20C04C2F200040E4627
:1049E00094F82510002940F0B980002FCDE9043259
:1049F00000F092804FF0000BCDE906671FFA8BF9AB
:104A0000A7EB0908A07AB8F1100FA8BF4FF0100863
:104A1000002800F0998060681FFA88F7418957FAEA
:104A20008BFA8A459BFA8BF14FEA1141ADF83210AF
:104A300000F28A80226801780DF13200D27E009067
:104A40000220019040F2B000C2F2000001230F25C5
:104A50000295FCF769FC40F20C05C2F20005002843
:104A600072D1D5E9000116FA8BF40978027E40F282
:104A7000B000C2F2000001230F26CDE900470296E4
:104A8000FCF752FC00285FD1A87A00285CD0686847
:104A90002B4642894FEA192192458DF832108DF844
:104AA00033B051D81A6801780DF13200D27E0090EF
:104AB0000220019040F2B000C2F2000001230F2654
:104AC0000296FCF731FC40F20C01C2F20001D8BBA7
:104AD000D1E900010DF122050978027E40F2B00013
:104AE000C2F2000001230F26CDE900570296FCF721
:104AF00097FA48BB204629463A46FBF7D5FB80BBD0
:104B0000C344079F1FFA8BF0069E40F20C04B84284
:104B1000C2F20004FFF472AF0598D4E9002140BA54
:104B2000ADF832000F200978527F02230DF13207D1
:104B3000029040F2B000CDE90073C2F20000012300
:104B40000125FCF7F1FB20B14FF0FF300DB0BDE8BF
:104B5000F08F049884F82550E08400200DB0BDE863
:104B6000F08F6FF001000DB0BDE8F08F282884BFF2
:104B70004FF0FF30704770B586B040F20C0400284B
:104B8000C2F2000457D094F82310012929D0054619
:104B9000A07C94F822103222002808BF30228DF821
:104BA000132039B16FF04D01002808BF6FF04F019D
:104BB0008DF81310D4E900010DF11303C27D0F200D
:104BC0000978029040F2B00001260093C2F2000082
:104BD00001230196FCF7A8FB0028284608BF84F8AB
:104BE0002360202101288DF810106ED1A07A0021B9
:104BF00000288DF8111000F0D180E07A06210628F7
:104C00008DF8141000F0CA80D4E9000105AB827859
:104C100001200978CDE9003040F2B0000F26C2F241
:104C2000000001230296FCF77FFB002840F0B680CD
:104C30009DF81400B1E094F8230048B3A07C94F8E8
:104C400022100246002818BF012252008DF81220BF
:104C500039B16FF07D01002808BF6FF07F018DF83A
:104C60001210D4E900010DF11203C27D0120097870
:104C7000CDE9003040F2B0000F26C2F2000001235F
:104C80000296FCF751FB002804BF002084F82300A3
:104C90004FF4E060D4E90021ADF81000022004AB2D
:104CA0000978527DCDE9003040F2B0000F26C2F203
:104CB000000001230296FCF737FB002806BF002006
:104CC00020754FF0FF3006B070BD052822D8A07ABD
:104CD000012100288DF8111060D0E07A0621062805
:104CE0008DF815105AD0D4E900010DF11503827822
:104CF00001200978CDE9003040F2B0000F26C2F261
:104D0000000001230296FCF70FFB002846D19DF816
:104D1000150042E0142820D8A07A02218DF8111045
:104D2000E0B3E07A052105288DF8161036D0D4E9D5
:104D300000010DF11603827801200978CDE90030D9
:104D400040F2B0000F26C2F2000001230296FCF7E9
:104D5000EBFA18BB9DF816001FE0A07A03218DF82E
:104D60001110D8B1E07A042104288DF8171015D05D
:104D7000D4E900010DF11703827801200978CDE90B
:104D8000003040F2B0000F26C2F20000012302966C
:104D9000FCF7CAFA10B99DF81700E0729DF81100EF
:104DA000D4E90021800107308DF811000F20097827
:104DB000527D022304AE029040F2B000CDE90063C0
:104DC000C2F2000001230125FCF7AEFA18B14FF042
:104DD000FF3006B070BD94F824100820A0720020A7
:104DE0000029207325757FF46EAF2074012001F037
:104DF00001FC002006B070BD2DE9F04385B040F203
:104E00000C06C2F2000696F824300446002B4FF040
:104E1000FF3059D0B37A002B56D00F46D6E90001A7
:104E20009146027B0F2002230978CDE9013040F240
:104E3000B0000DF11205C2F2000001230095FCF74D
:104E4000EFF8B0BBBDF8121008BAB4EB104F03D99D
:104E5000002089F800002CE0706891FA91F84288EF
:104E6000B8EB520F16D9326801780120D27CCDE917
:104E7000005040F2B0004FF00F0CC2F200000123CE
:104E8000CDF808C0FCF7CCF898B99DF81200C00620
:104E90001DD47068326801780F20527B029040F276
:104EA000B000C2F20000012300970194FCF7B8F8AB
:104EB00020B14FF0FF3005B0BDE8F083B8FBF4F04F
:104EC000013889F80000002005B0BDE8F08300F04B
:104ED00005F86FF0010005B0BDE8F083F0B585B0CE
:104EE00040F20C04C2F20004A07AA0B30020D4E97E
:104EF00000218DF813000978527C40F2B0000F2693
:104F000001270DF11305C2F200000123CDE900577E
:104F10000296FCF709FAF0B9D4E9000101230978F7
:104F2000427940F2B000C2F20000CDE9017600956E
:104F3000FCF7FAF978B9D4E90001012302790F20CE
:104F40000978CDE9013040F2B000C2F200000095CE
:104F5000FCF7EAF918B14FF0FF3005B0F0BD94F856
:104F60002400002853D00C20D4E900218DF8130030
:104F70000978127940F2B0000F260127C2F2000032
:104F80000123CDE900570296FCF7CEF90028E2D1C3
:104F9000322000F0F9FFA07A0123C0076FF01F0054
:104FA00008BF6FF03F00D4E900218DF813000978A5
:104FB000127940F2B000C2F20000CDE9017600950E
:104FC000FCF7B2F90028C6D1607C0F26002818BF74
:104FD00001204000D4E900218DF813000978527CAB
:104FE00040F2B0000127C2F200000123CDE90057D2
:104FF0000296FCF799F90028ADD10020D4E90021F0
:105000008DF8130009785279CDE9005755E0042056
:10501000D4E900218DF813000978127940F2B0002C
:105020000F260127C2F200000123CDE900570296A6
:10503000FCF77AF900288ED1A07AA17CC0074FF046
:10504000600008BF4020002918BF4020D4E900219B
:105050008DF813000978127940F2B000C2F2000016
:105060000123CDE901760095FCF75EF900287FF475
:1050700072AF322000F088FF607C0F26002818BF36
:105080000120D4E900218DF813000978527C40F208
:10509000B0000127C2F200000123CDE900570296BB
:1050A000FCF742F900287FF456AFD4E900010978F3
:1050B000427904F11000CDE9000740F2B000C2F2DD
:1050C000000001230296FCF72FF900287FF443AF7C
:1050D000002005B0F0BD00002DE9F04F81B02DEDAE
:1050E000028B96B040F20C0BC2F2000B9BF824200E
:1050F000884605460E9212B1002000F029FD9BF86B
:105100000800032806D848F6B651C0F6000131F869
:10511000107000E000279BF8090003280DD80FF657
:1051200034029BF8133002EB80020FF61801002BBB
:1051300008BF01EB8002106800E000200D909BF892
:105140000B0006281BD8411EB1FA81F149090C91C8
:1051500000F07F000621C14001F001010B910E21FA
:10516000C14001F0010109911E21C14001F001017E
:1051700008913E2121FA00F000F0010004E0002037
:10518000CDE90B00CDE908000790BBF80E409BF875
:105190000A609BF81090284641460022FFF71AF853
:1051A00048B12846414600224FF0000AFFF712F8A6
:1051B000002840F0038312A80FA901220A95FFF7E7
:1051C00009F840B112A80FA90122FFF703F810B1A6
:1051D0004FF0000AF2E2DBF80400042201780F200D
:1051E000CDE9012040F2B00015ADC2F200000D2261
:1051F00001230095FBF714FFCDE904643E46CDF88A
:10520000189038B3D8F800000F990A9C401A48BF8C
:10521000404203EE100A9FEDE68AB8EEC33AB5EEBF
:10522000401AF1EE10FA23EE083A47D083EE011A45
:10523000BFEE003A31EE031A9FEDDE3AB0EEC11A2E
:10524000B4EE431AF1EE10FACCBF4FF001094FF063
:10525000000948E09DF854009DF855209DF85770CE
:105260009DF856301C219FEDD40A2C4601EAD0054A
:10527000C7F3011A01EAD209C7F381001AEB050C42
:1052800009EB000201EAD30E07F00307B0EE401A63
:1052900000F00981BCF1010300F0D98045EA0A0160
:1052A00013F00305A1F1020A00F0D780012D40F0B0
:1052B000DA809FEDC21AACF10203E3E09FEDC01A61
:1052C0000020B4EE413A9FEDBF1AF1EE10FA4FF014
:1052D0000001B4EE413AB8BF0121F1EE10FAC8BFA7
:1052E000012041EA0009D8F804001099B5EE402ADF
:1052F000401A48BF404201EE100AB8EEC11AF1EE62
:1053000010FA21EE081A11D081EE021ABFEE002A1F
:1053100031EE021A9FEDA72AB0EEC11AB4EE421A7E
:10532000F1EE10FAC8BF09F1020911E09FEDA52ABC
:1053300009F10200B4EE421A9FEDA12AF1EE10FA33
:10534000C8BF8146B4EE421AF1EE10FAB8BF8146EA
:10535000D8F808001199B5EE400A401A48BF4042FB
:1053600001EE100AB8EEC11AF1EE10FA21EE081A99
:1053700011D081EE000ABFEE001A30EE010A9FED57
:105380008D1AB0EEC00AB4EE410AF1EE10FAC8BFB1
:1053900009F1040911E09FED8B0A09F10400B4EE54
:1053A000401A9FED870AF1EE10FAC8BF8146B4EEAD
:1053B000401AF1EE10FAB8BF8146DBF804000F275F
:1053C00001780320CDE9005040F2B000C2F20000A5
:1053D0000D2201230297FBF723FE10B10720374669
:1053E000DFE1206812999DF85420401A48BF4042DE
:1053F00000EE100A02F01F039DF855209DF856108C
:10540000B8EEC00A20EE080A63B1581E22D010F090
:105410000304A3F1020523D0012C63D19FED6A1A86
:1054200028466DE0B2EE041AB4EE410A9FED671A09
:105430000020F1EE10FA4FF00003B4EE410AB8BFBD
:105440000123F1EE10FAC8BF012018437AE09FED66
:10545000601A28E0B3EE091A63E09FED5D1A11E0CF
:10546000B3EE091A4CE06FF00301022D0FF2FC437A
:1054700008BF6FF00201022D08BF043393ED001A3C
:105480000CEB0103BAF1030F0DD39FED522A00BFBD
:1054900021EE021A21EE021A21EE021A043B19062D
:1054A00021EE021AF4D10EEB0703002AB0EE402AD7
:1054B000254600F0B280511E0ED040EA09003C465D
:1054C00011F00307A0F1020009D0012F40F08680FF
:1054D0009FED3A2A911E8FE09FED3D2A9DE09FEDC2
:1054E0003C2A89E06FF00300022C0FF2944708BFBA
:1054F0006FF00200022C08BF043797ED001A184421
:105500000A9C032D0DD39FED342A00BF21EE021A11
:1055100021EE021A21EE021A0438030621EE021AC5
:10552000F4D180EE010ABFEE001A30EE010A9FEDC1
:10553000211AB0EEC00AB4EE410AF1EE10FACCBF67
:10554000012000206368139F02F01F05DB1B48BF8A
:105550005B4200EE103AB8EEC00A20EE080A374669
:1055600065B16A1E1DD012F00304A5F102031CD020
:10557000012C6AD19FED141A1A4674E09FED131A9C
:10558000821CB4EE410AB2EE041AF1EE10FAC8BF62
:105590001046B4EE410AF1EE10FAB8BF10460A9D6B
:1055A00081E00A9DB3EE091A6DE0B3EE091A5AE0E4
:1055B00000008037295C0F3E00000000ADFFB33EC5
:1055C0009A99993E3333733F3333D1410000D2422D
:1055D0007B14AE3E1D5A843F54E3853F6FF00301B8
:1055E000022F08BF6FF00201022F0FF2803708BFB1
:1055F000043797ED002A1144274603280DD31FEDE9
:105600000B3A00BF22EE032A22EE032A22EE032ADF
:105610000439080622EE032AF4D1002B3FF4F2AD40
:10562000581E0CD04EEA070110F00302A1F102014E
:1056300008D0012A6AD19FEDCC0A981E73E09FED35
:10564000C90ADFE59FEDC70A6DE06FF00302022C87
:10565000CBA708BF6FF00202022C08BF043797EDFA
:10566000001A37462A440A9D032B0CD39FEDC62A05
:1056700021EE021A21EE021A21EE021A043A130652
:1056800021EE021AF4D180EE010ABFEE001A30EECC
:10569000010A9FEDB91AB0EEC00AB4EE410AF1EE6C
:1056A00010FAC8BF0230AA68149BD21A48BF5242EF
:1056B00000EE102A01F01F03B8EEC00A20EE080A1F
:1056C00063B1591E1CD011F00307A3F102021AD0D6
:1056D000012F39D19FEDA91A114642E09FEDAB1A77
:1056E000011DB4EE410AB2EE041AF1EE10FAC8BF81
:1056F0000846B4EE410AF1EE10FAB8BF084650E091
:10570000B3EE091A3DE0B3EE091A2AE06FF0030088
:10571000022A08BF6FF00200022A94A208BF0432D6
:1057200092ED000A18440329FFF46CAD9FED913A05
:1057300020EE030A20EE030A20EE030A04380106D5
:1057400020EE030AF4D15DE56FF00301022F08BFDC
:105750006FF00201022F8AA708BF043797ED001AE5
:105760001944032A37460CD39FED872A21EE021AEB
:1057700021EE021A21EE021A04390A0621EE021A5B
:10578000F4D180EE010ABFEE001A30EE010A9FED5F
:105790007A1AB0EEC00AB4EE410AF1EE10FAC8BFB0
:1057A0000430B0FA80F04FEA501AB9F1000F08BF88
:1057B0000AF1020ADDF81890DDE904644FF6FF7083
:1057C000ABF80E00FF208BF810004FF0FF30CBF845
:1057D00008000120B7F57A7F8BF80C0006DAFA2F63
:1057E0000AD0B7F5FA7F28D1082008E006D0B7F52F
:1057F000FA6F22D1182002E0002000E010208DF87E
:105800005400DBE9000115AB827901200978CDE96C
:10581000003040F2B0000F27C2F2000001230297CF
:10582000FBF782FD20B99DF85400C0088BF80800F2
:105830009BF80A00002800F070800D996FF00100BD
:1058400050FA81F04FEA7000072832D8DFE800F004
:10585000040D31083131311200208DF854000DE073
:1058600010208DF85400022008E008208DF8540024
:10587000012003E018208DF8540003209BF8091044
:10588000814216D0DBE9000115ABC279012009780D
:10589000CDE9003040F2B0000F27C2F20000012332
:1058A0000297FBF741FD20B99DF85400C0088BF822
:1058B00009009BF80A0080B30C9808B1012010E0A1
:1058C0000B9808B102200CE0099808B1032008E009
:1058D000089808B1042004E0079800280CBF0620AF
:1058E00005209BF80B108DF85400814215D0DBE9A0
:1058F000000115AB827801200978CDE9003040F233
:10590000B0000F27C2F2000001230297FBF70CFD45
:1059100018B99DF854008BF80B00204600F0E2F90E
:10592000304600F05DFA4846FEF7B8FE0E9810B11A
:10593000012000F00DF9504616B0BDEC028B01B00D
:10594000BDE8F08F02000000040000000800000025
:10595000100000000400000008000000100000001B
:10596000200000007B14AE3EADFFB33E5E72C03E31
:10597000631EBA3E1D5A843F295C0F3E3333D1412A
:105980009AE3E441BDD2DA4154E3853F0000D242BC
:1059900010B584B040F20C04C2F20004A17A0029D0
:1059A00036D002384FEA700107294FF0FF3038D85F
:1059B000DFE801F0040D37083737371200208DF883
:1059C0000F000DE010208DF80F00022008E00820E5
:1059D0008DF80F00012003E018208DF80F00032040
:1059E000617A81421CD0D4E900010DF10F03C27924
:1059F00001200978CDE9003040F2B0004FF00F0CE3
:105A0000C2F200000123CDF808C0FBF78DFC18B1ED
:105A10004FF0FF3004B010BD9DF80F00C008607259
:105A2000002004B010BD000070B584B040F20C0539
:105A3000C2F20005A97C814202D1002004B070BDF1
:105A40000446D5E90001012302790F200978CDE948
:105A5000013040F2B0000DF10F06C2F200000096D6
:105A6000FBF7DEFA002C40D000285AD19DF80F0039
:105A7000D5E9002100F0DF008DF80F000F20012391
:105A800009781279CDE9013040F2B000C2F200008D
:105A90000096FBF749FC002843D1032000F074FA7C
:105AA00095F8221095F823206FF07D00002908BF9B
:105AB00002208DF80F001AB140F030008DF80F0071
:105AC000D5E900014FF00F0CC27D01200978CDE926
:105AD000006040F2B000C2F200000123CDF808C01F
